:020000040800F2
:10000000702E00209D0100089F0E0008110C0008B2
:100010009D0E00083F030008C12C000800000000EE
:100020000000000000000000000000004522000861
:1000300041030008000000002117000849220008C1
:10004000B7010008B7010008B7010008B7010008B0
:10005000B7010008B7010008B7010008B7010008A0
:10006000B7010008B7010008B7010008B701000890
:10007000B7010008B7010008B7010008B701000880
:10008000B7010008B7010008B7010008B701000870
:10009000B7010008B7010008B7010008B701000860
:1000A000B7010008B7010008B7010008B701000850
:1000B000B7010008B7010008B7010008B701000840
:1000C000B7010008B7010008B7010008B701000830
:1000D000B7010008B7010008B7010008B701000820
:1000E000B7010008B7010008B7010008B701000810
:1000F000B7010008B7010008B7010008B701000800
:10010000B7010008B7010008B7010008B7010008EF
:10011000B7010008B7010008B7010008B7010008DF
:10012000B7010008B7010008B7010008B7010008CF
:10013000B7010008B7010008B7010008B7010008BF
:10014000B7010008B7010008B7010008A10E0008B8
:10015000B7010008B7010008B7010008B70100089F
:10016000B7010008B7010008B7010008B70100088F
:10017000B7010008B7010008B7010008000000003F
:10018000B7010008B7010008DFF80CD000F038F81C
:1001900000480047C52C0008702E00200648804704
:1001A00006480047FEE7FEE7FEE7FEE7FEE7FEE75C
:1001B000FEE7FEE7FEE7FEE7592200088901000896
:1001C00030B504460020034600E05B1C934203D296
:1001D000E05CCD5C401BF8D030BD40EA01039B07DA
:1001E00003D009E008C9121F08C0042AFAD203E0AC
:1001F00011F8013B00F8013B521EF9D27047000094
:10020000064C074D06E0E06840F0010394E8070063
:1002100098471034AC42F6D3FFF7BAFFA835000870
:10022000C83500082DE9F05F0546002092469B4640
:1002300088460646814640241BE0284641464746FC
:10024000224600F041F853465A46C01A914110D355
:1002500011461846224600F028F82D1A67EB0108CF
:100260004F4622460120002100F01FF817EB00093D
:100270004E41201EA4F10104DFDC484631462A46E7
:100280004346BDE8F09FD2B201E000F8012B491EC1
:10029000FBD270470022F6E710B513460A46044623
:1002A0001946FFF7F0FF204610BD202A04DB203A54
:1002B00000FA02F1002070479140C2F1200320FAB9
:1002C00003F3194390407047202A04DB203A21FAB7
:1002D00002F00021704721FA02F3D040C2F120025F
:1002E000914008431946704770B58C1810F8015BAF
:1002F00015F0070301D110F8013B2A1106D110F8BF
:10030000012B03E010F8016B01F8016B5B1EF9D1C2
:100310002B0705D40023521E0DD401F8013BFAE748
:1003200010F8013BCB1A921C03E013F8015B01F8B3
:10033000015B521EF9D5A142D8D3002070BDFEE763
:1003400070470000DFF8C8C000214CF25033CCF8F1
:1003500020102949DCF8002006E0DCF80000801AB3
:10036000984284BF032070470868C003F5D408682A
:10037000C0071CBF01200860086810F0F20F04BF1E
:10038000002070470868C00607D5DCF8200040F060
:100390001000CCF82000102008600868800607D5FF
:1003A000DCF8200040F00800CCF820002020086095
:1003B0000868400607D5DCF8200040F00400CCF8BF
:1003C0002000402008600868000607D5DCF82000FF
:1003D00040F00200CCF82000802008600868800708
:1003E00007D5DCF8200040F02000CCF820000220E7
:1003F00008600120704700BF0C3C0240411C08BF50
:1004000001460348026803689B1A8B42FBD370477E
:10041000700100202DE9F84F584C4FF0010A4FF0C1
:10042000000B4FF0000E0026102E08BFBDE8F88F1D
:1004300001680AFA06F5294200F08E804168122907
:1004400000F290800AFA01F212F0061F00F08A8092
:100450000322A768C36802FA0EF2974303FA0EF369
:100460006FEA02083B43A360C1F300136768B3401F
:10047000AF433B4377006360E368D0F808C0A14610
:1004800003EA08030CFA07F423434C46C9F80C307E
:1004900041F01003122B12D10BF01C010F2202FAB3
:1004A00001F36FF0030202EA56044C44226A9A43B5
:1004B000036903FA01F1114321624C464168236844
:1004C00001F00302C90002FA07F203EA080342EA54
:1004D0000302226040D500210BF00C030F2700918E
:1004E000274907FA03F30A46096841F4804111607D
:1004F0001168204A01F480411446009126F003015E
:100500001144009A1F4A94468A589A4341F80C2095
:100510002168436841EA0502DF0358BF21EA05026A
:1005200022609F03616841EA050258BF21EA050283
:100530006260DF02A16841EA050258BF21EA0502B4
:100540000D49A2604C469B020F46096841EA05022C
:1005500058BF21EA05023A600BF1040B0EF1020EBE
:10056000013661E70322774602FA0EF26FEA0208CB
:1005700082E700BF003C01400C3C0140000002400B
:100580004438024008FCFFFFB0B50F4D04464FF45D
:100590007A712869B0FBF1F0411E0020B0EB116FB9
:1005A00011D10A4AF0230F2C516009490B70906059
:1005B0004FF00700106088BFB0BD4FF0FF302146FC
:1005C00000F008F8EC60B0BD0800002010E000E08A
:1005D00023ED00E010B500F00F03114C0F4AB0F10D
:1005E000FF3FA3F10403234403F10C03C8BF8318A6
:1005F00020684FF0FF34C0F30220C21E80F00700D5
:1006000038BF0022042828BF042004FA00F021EAA1
:10061000000090400001187010BD00BF00E400E031
:100620000CED00E0314A0028D2F800C0DCF82420AC
:1006300019D080B5DCF82830A0F1010E02EB13438D
:10064000002206E00CEB80000132D0F8040103EB3D
:100650001043D0B28645F5D80CEB8E0043EA014139
:10066000C0F8041180BD42EA0140CCF82800704770
:1006700010B501461D480029D0F804440BD0D4F829
:10068000B802826912B394F89C0203281ED1204656
:10069000BDE810401047D4F89422032A16D1D4E9BB
:1006A00057C39C4513D9C1EBC10100EB8100002168
:1006B000D0F80822ACEB0300C4F85C01984238BFC4
:1006C00003462046BDE8104001F0C6BF10BDD4F877
:1006D000B802016929B194F89C02032801D120468F
:1006E00088472046BDE8104001F0E1BD68060020C3
:1006F0002DE9FC47DFF8CC2F012092F8C473D2F823
:1007000004A48AF8AA7207F01F040AF2AA2892F831
:10071000C533022C8AF8AB3292F8C69392F8C763BD
:1007200049EA062CAAF8ACC292F8C81392F8C95349
:1007300041EA0525AAF8AE52B2F8CA23CAE9A502D1
:10074000AAF8B0220AD0012C19D0B4BB17F060016E
:100750003DD040290AD0202908D070E117F0600769
:1007600057D0402F02D0202F40F06981DAF8B8022C
:1007700041468268504602B0BDE8F047104717F086
:10078000600018BF40281FD19AF89C020138022847
:1007900000F2558111F0FE0F40F05181DAF8B802F5
:1007A0004146826850469047002840F01C82BAF8C3
:1007B000B002002800F0E08115E207F08001504609
:1007C000BDE8FC4701F070BF2028DDD037E1092BE0
:1007D00000F23581DFE813F00A00580033016400AD
:1007E00033016C00A1003301B700C3009AF89C02EA
:1007F0000138022800F22381022A40F02081DAF831
:10080000A40203225146002808BF012241F80C2F00
:1008100024E163B1012B21D0032B40F010819AF821
:100820009C32032B00F0C180022B1FD007E19AF805
:100830009C02032800F0C980022840F000810029B2
:1008400000F00281802940F0FA8001F07F0000EB87
:1008500080000AEB800000F11401FDE09AF89C2270
:10086000032A00F0C780022A40F0E98041F08000AE
:10087000802800F0E480504601F016FF50468021A9
:10088000BDE8FC4701F010BF9AF89C02013802282D
:1008900000F2D580BCF1010F40F0A581002004E0FA
:1008A000BCF1010F40F09F810120CAF8A40263E16E
:1008B00045EA0200000440F0C280BCF17F0F00F264
:1008C000BE809AF89C02032800F0B98009F07F05E9
:1008D0008AF89E52DAF8C40290F8BC13012911D0AC
:1008E00080F838500168D1F8002822F4FE62C1F87F
:1008F0000028D1F8002842EA0512C1F8002800219A
:1009000080F8BC13504601F0D2FC002D00F022818B
:1009100002208AF89C02BDE8FC870020ADF80600A2
:10092000701E062800F25781DFE810F007009A00D9
:10093000A80055015501B500C100DAF8B4129AF8C3
:1009400010000A6833E1012A79D19AF89C02411E0D
:1009500002296DD20020514641F8080F6CE0AB4DE2
:10096000B9F1020F85F8009069D29AF89C02032829
:1009700000F0AC80022840F0C680B9F1000F00F012
:10098000FB80CAF80490DAF8B802002857D0026851
:10099000504649469047002851D1504601F087FC07
:1009A00003208AF89C02BDE8FC87BCF1000F40F0F0
:1009B000E38041F08000802800F0DE80002A40F0D3
:1009C000DB80504601F070FED6E001F00F0211F01E
:1009D000800002EB82020AEB820219D1B2F8642194
:1009E0006AB301F07F0202EB82020AEB820202F597
:1009F000AA7216E0BCF1000F18BFBDE8FC874806DC
:100A000002D0504601F0EAFC504601F050FCADE641
:100A1000928CA2B101F07F0202EB82020AEB820209
:100A2000143241F08003802B40F07880002088E071
:100A3000032804D10AF104015046012285E0504602
:100A4000BDE8FC4701F01BBC01F07F0000EB80001B
:100A50000AEB800000F5AA7100200860504673E0A0
:100A60009AF81010DAF8B80200290CBF816AC16A3E
:100A70000DF1060088470146022025E0B9F1050F77
:100A800000F2A980DFE809F0037D8185898DDAF81D
:100A9000B402426888E09AF81000002840F09B8079
:100AA000DAF8B802416B0DF10600884782E09AF847
:100AB0001000002840F08F80DAF8B802016B0DF1C9
:100AC0000600884701460720487074E0B9F1000F1E
:100AD00045D0DAF8040048454ED0DAF8B8120029BB
:100AE00000F083804A68C1B2504690472978CAF81E
:100AF0000410DAF8B802002879D00268504690470E
:100B0000002874D138E0504601F0B9FBDAF8B80299
:100B1000002868D04268504649462CE601F07F0123
:100B2000DAF8C4320028C1EBC10103EB810101F105
:100B30003E0308BF01F5FF73187800283FF476AF35
:100B40000120106050461146022202B0BDE8F04775
:100B500001F0A0BB01208AF89C02BDE8FC870020C0
:100B6000CAF8040002208AF89C02DAF8B80218B128
:100B700042685046494690475046BDE8FC4701F060
:100B800096BBDAF8B40282680EE0DAF8B402C26802
:100B90000AE0DAF8B402026906E0DAF8B40242695F
:100BA00002E0DAF8B4028269AAB19AF810000DF1F5
:100BB000060190470146BAF8B0228AB1BDF8060096
:100BC00048B1904238BF02465046ADF8062001F0C9
:100BD00061FBBDE8FC87504601F051FBBDE8FC8796
:100BE000504601F064FBBDE8FC87CAF8049050460B
:100BF00001F045FBDAF8B80200283FF489AE4268FC
:100C00009AF804105046904782E600BF94010020F5
:100C1000FEE710B501314FF0000C4FF0370E10E039
:100C20000EEB107381F800C0040FB0F1204FA2F159
:100C300001024FEA001038BF04F1300301F8013C13
:100C40000231002AECD110BDB0B5D0F8BC52044638
:100C500095F81C0288B12046812101F025FD687AB3
:100C6000022818BFB0BD2046812101F01DFD20469D
:100C70000121BDE8B04001F017BDD5F818020028E9
:100C8000E9D0687A0028E6D12046012101F00CFD68
:100C9000E1E710B50446D0F8BC02407A022809D139
:100CA0002046812101F000FD20460121BDE81040D1
:100CB00001F0FABC49B2B1F1FF3FC8BF10BD012835
:100CC00005D020460121BDE8104000F0C9B810BD94
:100CD00010B50446D0F8BC02017ACA1E022A05D219
:100CE00020460021BDE8104000F0BAB8022910D11A
:100CF00090F81D1200F21F22204600F025FDB0F1F1
:100D0000FF3FC8BF10BD20460121BDE8104000F0E4
:100D1000A7B810BDB0B5D0F8BC520446287A012857
:100D200024D068BBD5E98501C5E98D01D4F8C4029A
:100D3000D0F830021F280DD1D5F810022B49884277
:100D400008D195F81D12012904D895F81E02013822
:100D5000102816D320460521202200F0E9FF0220AA
:100D600068722046BDE8B040FFF76EBF95F81D12CF
:100D700005F21F22204600F0E7FCB0F1FF3F29DD1D
:100D8000B0BD05F21F22204600F0DEFC297AB0F14A
:100D9000FF3F1DDD481E0328F2D3EB6803B3D4F8F0
:100DA000BC02002180F83C1204210172D0F83822E4
:100DB000D0F81812D21A9942C0F8382238BF0B4620
:100DC00005F1100220468121BDE8B04001F0C0BC11
:100DD0000529C6D120460121BDE8B04000F040B849
:100DE00020460021BDE8B04000F03AB855534243D8
:100DF000B0B5D0F8BC5204460020288185F86202C4
:100E0000A5F86002D4F8C002016800208847204697
:100E1000012101F09BFB2046812101F097FB05F5A4
:100E20000472204601211F23BDE8B04001F014BC2C
:100E3000B0B5D0F8BC5204464FF4807081212881AF
:100E4000204601F0CBFA2046012101F0C7FA05F552
:100E50000472204601211F23BDE8B04001F0FCBB15
:100E6000B0B5D0F8BC5204460B480D2385F83C12AF
:100E7000C5F83002002005F50C7281212872204649
:100E800001F066FC05F50472204601211F23BDE830
:100E9000B04001F0E1BB00BF55534253FEE770473D
:100EA0002DE9F04F87B0DFF81CC8DCF80090D9F8C6
:100EB0001400C00740F0BF83D9F81400D9F8181007
:100EC000014200F0B883D9F81400D9F8181008408E
:100ED000800742BFD9F8140000F00200C9F81400DE
:100EE000D9F81400D9F818100840C006484645D56E
:100EF000D9F8180020F01000C9F81800D9F82060BF
:100F0000C6F3434006F00F0506281ED002282FD155
:100F100047F6F07006402BD0C5EBC50032090CEB4C
:100F200080054846D5F8081201F0A8FED5F8080259
:100F3000D5F81412DFF88CC700EB1610C5F80802BC
:100F400001EB1610C5F8140212E00CF57171484659
:100F5000082201F093FEDFF86CC7C5EBC5000CEB6F
:100F60008000D0F81412C6F30A121144C0F814120B
:100F7000DCF80000816941F01001816141698269FA
:100F80001140090340F1BA80D0F81818D0F81C08B5
:100F90000CF505784FF0000A4FF430640840050C5A
:100FA000D7488346A5E0E80700F09D80DCF8000004
:100FB00021188A68D0F8143803EA0206F20756D0DE
:100FC00009EB040201239360036C8A68DCF810705B
:100FD000012F22D117072CD4970646D412F0280FE0
:100FE00045D15B455F4602D312F4004227D158E950
:100FF000042309696FF3DF41511AC8F800109918EA
:1010000048F80C1CDCF8101251EA0A0126D1DFF86E
:10101000B41601F5717201211EE05F460BF1FF0766
:10102000BB420FD110040AD4900644BF2020886030
:1010300014E05B4558461AD312F4004017D04FF421
:10104000004013E0DCF8101251EA0A0106D1DFF883
:10105000741601F57172002101F006FD5FFA8AF045
:10106000FFF706FBDFF85CC601E020208860300750
:1010700026D509EB040008215B468160ABF1010332
:10108000DCF800100A6C601881689A4214D90904CF
:1010900044BF4FF400418160FFF72AFBDFF824C60C
:1010A000DCF8100001280BD1DCF800000CF571729F
:1010B000012101F0D9FC01E0FFF71AFBDFF804C6BB
:1010C000F00642BF09EB040010218160B00642BF68
:1010D00009EB040020218160B00442BF09EB040049
:1010E0004FF40051816008F11C0820346D080AF1AA
:1010F000010A002D7FF457AFDCF8000041698269D6
:101100001140490340F13D81D0F81818D0F81C086F
:1011100009F510634FF0000ECDF8089004930840D5
:1011200084B229E1E00700F02481DCF800000EF031
:101130000F074FEA4E15D0F81018D0F83428FA40AF
:10114000D201D2B2114300EB4E12D2F80829CDF8E9
:1011500018E001EA02085FEAC87100F098800126F1
:10116000D9F8342806FA07F122EA0101C9F834183F
:1011700059198E60DCF8101001290BD1CEEBCE018D
:10118000BEF1000F0CEB8101D1E911231A44049B3D
:101190008A641DD0DCF804645FEA0E6012D0D6F8D1
:1011A000B8024269002A72D096F89C0203286ED1D8
:1011B0005FFA8EF130469047DDF818E0049BDFF8C7
:1011C00004C564E0CEEBCE000CEB8000483010E0AC
:1011D000DCF8501049B90CF57172012101F044FCA2
:1011E000DDF818E0049BDFF8DCC4DCF804640CF1E3
:1011F0004800D6F89412022942D1D6E907239A4230
:1012000011D90168D21A3046F26101F033F8304644
:1012100000210022002301F01FFADDF818E0DFF8BA
:10122000A4C4049B2CE00FD1B06990420CD3D6F833
:101230009812884208D230460021002201F01AF8A4
:101240000020C6F89802E2E7D6F8B802C16829B1D2
:1012500096F89C02032801D1304688473046802109
:1012600001F022FA0520002100220023C6F8940292
:10127000304601F0F1F9DFF84CC4049BDDF818E0CA
:1012800096F8A002012804BF002086F8A0025FEAB9
:10129000087042BF5819082181605FEAC86042BFE8
:1012A00058191021816005975FEA486042BF5819BC
:1012B000402181605FEA887042BF58190221816035
:1012C0005FEA086055D5CEEBCE000CEB800BDA461A
:1012D0005AF8500F564656F8042F904249D35BF8FF
:1012E000441FDCF80080A0EB02090394894588BF05
:1012F000894605EB08010BF1040701F510651FE0B5
:101300000B30544FDFF8BC43DBF80030A0EB020990
:1013100039685FFA8EF24046247C9945009488BF74
:1013200099461FFA89F301F0B6FC3868DDF818E039
:1013300048443860306800EB09023260DAF8000097
:10134000AB6909F103019BB2B3EB910F28BF904247
:10135000D8D8DDE90294DFF86CC3049B904208D82A
:10136000059901208840D8F8341821EA0000C8F80F
:10137000340864080EF1010E002C7FF4D3AEDCF8C3
:101380000000416982691140B1F1FF3F1BDCD9F8CF
:10139000041821F00101C9F804189CF8F41301297C
:1013A00003D100218CF8F41309E0DCF8041491F85F
:1013B0009C22042A04BF91F89D2281F89C22416955
:1013C00001F00041416141698269114009051ED562
:1013D000D9F80818C90716D0DCF80414042391F8CA
:1013E0009C2281F89C3281F89D22D0F8001E41F0A9
:1013F0000101C0F8001EDCF8201021B1B2490A68D2
:1014000042F006020A60416901F4006141614169EC
:1014100082691140C90455D5D9F8041821F0010199
:10142000C9F80418102101F015FCA64DA74BA84CD3
:1014300009F5306109F500604FF67F376A6813E0FF
:10144000CF50013A0E5926F400160E510E5946F0AF
:1014500000660E518F600E6826F400160E600E684E
:1014600046F000660E602031002AE9D1C16941F0E2
:101470000111C161296B41B1D0F8841041F00B0119
:10148000C0F8841000F1440106E0416942F22B02E9
:101490001143416100F110010A6842F00B020A6039
:1014A00005F57172016821F4FE610160297C2868EC
:1014B00001F0DAFADFF80CC2DCF80000416901F44F
:1014C00080514161416982691140890466D5D0F833
:1014D000001940F2FF729143C0F80019D0F80418C7
:1014E00041F48071C0F80418D0F8081811F0060112
:1014F00011D041F0040106290FD1764A764B774C82
:101500000221CCF80C1012691344A34280F096809B
:101510004FF4705206E0002100E00F21CCF80C10CF
:101520004FF41052C3680125002923F47053C3609F
:10153000C36842EA0302C2604FF00000DCF80444D2
:1015400084F89C5218BF01212174C4F89402C4F895
:10155000A4026060D4F8BC0228B1D4F8B80200211B
:101560004268204690472046002100224023402622
:1015700001F00AF82046802100224023A4F864519B
:10158000C4F8606101F000F8DFF838C1A584266274
:10159000DCF80000416901F4005141614169826950
:1015A0001140090713D5DCF8041491F89C22032A92
:1015B00009D1D1F8B822D2692AB108469047DFF89C
:1015C00004C1DCF80000416901F008014161416992
:1015D00082691140C90242BF416901F48011416131
:1015E000416982691140890242BF416901F40011D9
:1015F0004161416982691140490042BF416901F07E
:1016000080414161416982691140490713D54468AD
:1016100061070DD5DCF80424012182F89C12D2F870
:10162000B8322BB111795B68104665469847286837
:1016300041682143416007B0BDE8F08F2849294B3C
:101640001144994202D24FF4605238E02649274BA8
:101650001144994202D24FF4505230E02449254BB4
:101660001144994202D24FF4405228E02249234BC0
:101670001144994202D24FF4305220E02049214BCC
:101680001144994202D24FF4205218E01E491F4BD8
:101690001144994202D24FF4105210E01C491D4BE4
:1016A0001144994202D24FF4005208E01A491B4BF0
:1016B00011444FF4C052994238BF4FF4E052022116
:1016C00030E700BF6806002010ED00E008FEFFFFD5
:1016D00000FEFFFF08000020405327FF00350C00EC
:1016E000401E1BFF40420F0000DC0BFF804F12002A
:1016F000808CF9FE20D6130060B6E5FE60E316008C
:1017000000D3CEFE40771B00C05BB3FEC09121002A
:1017100000CA91FE20753800E05459FEE09C41005B
:1017200070471144D0F8BC22D2F86822914208D9FF
:1017300080B50521212200F0FBFAFF20BDE88040A2
:1017400000E0002040B27047FEB5044610780E4617
:101750001546A0F11A01102931D9AA2800F00A81F2
:10176000032800F01481122800F044812F2800F093
:101770005A815A2800F067819E2800F07081A828BD
:1017800000F09F8100282FD1D4F8BC52D5F8180260
:10179000002840F0BA8195F86202022807D0D4F8F8
:1017A000C002816830468847002800F04981204601
:1017B00002213A2200F0BCFA05202872C9E1DFE8D4
:1017C00001F0091D1313361313131341136F131371
:1017D0009413B6002A79DFF8501A172A28BF172267
:1017E000D4F8BC02223136E1D4F8BC52204605219F
:1017F000202200F09DFA02206872AAE1D4F8BC12FF
:10180000287991F86222012A04D100F00302022A09
:1018100000F0878100F003020020012A18BF032A8C
:1018200040F0838181F862020020C86092E129794A
:10183000D4F8BC220020D060002918BF012182F812
:10184000621287E1D4E9AF5001A90DF10A024368A1
:1018500030469847002840F0778195F862020228C8
:1018600000F0728105F110000021002201E0815496
:1018700001320C2AFBD108200221E8740198298347
:101880000138010AE875A975010C000E6975287503
:101890000C21BDF80A00E960E876000AA876DCE0D1
:1018A000D4E9AF50436805F51A7105F51972304651
:1018B0009847002840F0488195F86202022800F01D
:1018C000438100200821A882E960B5F86412E97517
:1018D000090AD5F86822013AEA74A975110AA974AF
:1018E000110C6974110E297434E1D4F8BC72387A81
:1018F000002840F0EA8097F91C02002880F2058158
:1019000097F86202022800F01F81D4F8C0028168B3
:1019100030468847002840F01781D5F8020001BA08
:10192000C7F86C12E8792A7A42EA00222FE1D4F84B
:10193000BC72387A20BBD7F81802002800F0E58086
:1019400097F91C02B0F1FF3F40F3DF80D4F8C002EA
:10195000816830468847002840F0F680D4F8C002FD
:10196000C16830468847002800F0248120460221C3
:101970002722ECE0D4F8BC72387A002800F0AF805F
:101980002046314603B0BDE8F04000F088B9D4F8F5
:10199000BC02D0F81812002900F0B78000F1100145
:1019A0000022002301E0CA540133122BFBD10C2189
:1019B000C1757021017490F8601290F86122914213
:1019C00011D000EBC102013192F84032837492F8D9
:1019D00044320377CBB2043B18BF0B4692F8451252
:1019E00080F8603241771221C1602979122998BFAD
:1019F000C16032E0D4F8BC02D0F81812002900F01F
:101A000084806978C90740F08480D4F8C01206EB5E
:101A1000C602C96901EB82010A79531D2A799A42EB
:101A200088BF1A4617E0687880077AD4D4F8BC5289
:101A30002046D5E99B12FFF774FE0028C0F289808A
:101A40000020E86086E02A7A73491B2A28BF1B22FF
:101A5000D4F8BC02393100F082F900207AE0D4E9F0
:101A6000AF70436807F51A7107F519723046984749
:101A7000002869D197F86202022865D0D5F80A00DB
:101A80000021002200BAF86002E03B4401321974E0
:101A9000D3B29842F9D800203883B7F86412F976A7
:101AA000090AD7F86822013AFA75B976110AB975A8
:101AB000110C7975110E3975D5F80A1009BAF9604B
:101AC00048E0D4F8BC72387AD8B14FF4007031468F
:101AD000F860204603B0BDE8F04000F09FB8D7F8AA
:101AE000180290B197F91C02B0F1FF3F0DDDD4F858
:101AF000C00281683046884798B3204602213A22C6
:101B000038E097F91C02002814DB2046052120222A
:101B10001DE0A978802920D019B93F490622143147
:101B200099E720460521242211E0022A7FF47CAEA9
:101B3000022077E697F86202022805D0D4F8C002A6
:101B4000816830468847D0B1204602213A2200F011
:101B5000EFF8FF2040B203B0F0BD2F4908221A3140
:101B600079E7D4F8C002C1683046884760B32046A0
:101B70000221272200F0DCF805203872E9E7D5F8C9
:101B8000020001BAC7F86C12D5F8060002BA204666
:101B9000C7F87022FFF7C5FD0028DADBB7F864024A
:101BA000D7F87022D7F8181250438142ADD10220E5
:101BB00038728AE7D5F8020001BAC7F86C12E879E2
:101BC0002A7A42EA002207E0D5F8020001BAC7F8F3
:101BD0006C12D5F8060002BA2046C7F87022FFF74B
:101BE000A0FD0028B5DBB7F86402D7F87022D7F85B
:101BF000181202FB00F399427FF487AF012007F12E
:101C000010020121B3F5007F3872204628BF4FF43F
:101C1000007300F021FD20E7080000202DE9F843C3
:101C20000446D0E9AF70B7F86432D7E99B2607F1D4
:101C3000100906FB03F5B5F5007F28BF4FF40075CA
:101C40001FFA85F8066908464946B8FBF3F3B04722
:101C5000B0F1FF3F19DD204681214A462B4600F0B6
:101C600077FDD7F83802D7E99B12401BC7F8380236
:101C7000B7F86402B8FBF0F00144101AC7E99B10F2
:101C800004BF03203872002005E020460421112201
:101C900000F04EF8FF2040B201B0BDE8F0832DE91E
:101CA000F8438146D0E9AF60B6F86432D6E99B27A5
:101CB00006F110085F43B7F5007F28BF4FF40077A7
:101CC000BDB2446908464146B5FBF3F3A047B0F105
:101CD000FF3F1DDDD6F83802D6E99B12C01BC6F8BF
:101CE0003802B6F86402B5FBF0F3CF18D11AC6E992
:101CF0009B7114D001FB00F3484601214246B3F525
:101D0000007F28BF4FF4007300F0A6FC00250BE015
:101D100048460421032200F00BF8FF2504E0484662
:101D200000210025FFF79CF868B201B0BDE8F08300
:101D300080B5D0F8BCE200209EF861C20EEBCC0367
:101D400083F845020CF1010083F8442283F8401225
:101D5000C1B2043918BF01468EF8611280BDC2605D
:101D600007E0013A93B211F803C010FA82F383F846
:101D700010C0002AF5D170474FF4803008604FF44E
:101D800000701080002070470020704700207047CE
:101D900000207047002070472DE9F84F1C467F4B0C
:101DA000DFF8EC910D4657024FF0000801264FF086
:101DB000000A4FF0000BA34500F0E080780A0828E5
:101DC0003ED806FA00F010F0410F20D110F0820F3B
:101DD00006D110F4827F33D028464FF4FF711FE004
:101DE000281D4FF4FD71FEF755FA4AF655206B4B4E
:101DF000A5F8FE0140F60500C5F8EC016148C5F8FC
:101E0000E8016148C5F8E401604828600FE0284611
:101E100049465A22FEF7E1F905F15A004FF4D27112
:101E2000FEF738FA5D4B4AF65520A5F8FE0117F586
:101E300000770BF1010B05F500754AF1000ABAE7CE
:101E400055483844B0F5085F41D352493944490AEE
:101E500010293CD9B7F5800F55D105F140004FF45A
:101E6000E071FEF717FA28464EA10B22FEF7B5F9EE
:101E700008204E464FF0000945F29C084CA10B2269
:101E8000E87205F12000C5F81490C5F81090C5F867
:101E90000C90C5F81C90C5F81880FEF79EF94FF419
:101EA000F8203E4BE863052068874448C5F83600B3
:101EB000C5F83280C5F82E004FF4C15085F82D903A
:101EC000B1464FF000080126A5F82B00AFE73C49CA
:101ED00080088F422DD03B4940F001008F423DD118
:101EE000002103E0421845F8212001310429F9D1ED
:101EF0006FF070402861052002E045F82080013035
:101F00008028FAD193E75868B84230D89968B94226
:101F10002DD9381A4FF4F82200F50071B1F5F82FD9
:101F200028BF11460A1A1E4901442846FEF755F9F2
:101F300022E0254940F0010029604FF0FF3169603F
:101F40006FF07041C5E902112961052103E04218D3
:101F500045F8212001318029F9D168E7002103E00B
:101F6000421845F8212001318029F9D15FE7284640
:101F70004FF40071FEF78EF9084B58E7002001B0CE
:101F8000BDE8F08FBE980300727241615252614108
:101F9000283500080084CEFF0008DDFF080000207F
:101FA00000400008594142204469736B2020200002
:101FB000463430375F41505042494E0000009C503B
:101FC00000F8220000182300F8FFFF0F2DE9F04F62
:101FD00087B09348DFF850B20D4699464FEA422A3F
:101FE00000270FF258280021009300EB42200590B3
:101FF00000200DE1CDE9030140F2FF11DBF80800FC
:1020000020EA0101C20518BF01F50071BAF5800F81
:10201000C0F0F18020D100241AE02E19414603229D
:1020200006F10800FEF7CCF888B9B08A718B41EA56
:102030000040834901EB4020CBF80400F169B1F581
:10204000F82F28BF4FF4F8210844CBF808002034BB
:10205000B7EB542FE1D0CEE051451BD9DBF804108B
:10206000514517D80191714980226E4C0A608BF856
:1020700000702169B1F1FF3F04DC6D4961606D4979
:1020800061602169019A811AB1F5007F06D94FF488
:10209000007106E001208DF81B00ACE0880718BF36
:1020A00004315245029164D16348007F012800F059
:1020B0009980614E01203077FEF744F9002840F006
:1020C00090804FF00109082402E0083409F1010969
:1020D000B9F1070F1FD853480646006920F4407035
:1020E0003061306940F400703061306920F0F800F0
:1020F00030613069204340F002003061306940F4C3
:1021000080303061FEF71EF93169002821F0FA01B4
:102110003161DAD000E00020424C474A216889054D
:102120000FD5216821F400712160216841F400611C
:102130002160216821F400612160216841F400716F
:102140002160216849050FD5216821F48061216053
:10215000216841F480512160216821F4805121607F
:10216000216841F48061216017770028DDE90121B1
:1021700038D1AAEB0200800B1E2833D805984FF007
:102180000009801A019089452CD22B48007F012834
:1021900028D0294E55F8094001203077FEF7D2F8B3
:1021A000F0B920480146006920F4407008610869D0
:1021B00040F400700861086940F00100086101986E
:1021C00049F800400C46FEF7BDF8216909F1040901
:1021D000002821F00101216137770299D3D001E075
:1021E000104C3777206940F000402061FF208BF8C9
:1021F0000000DDF80090059804991AF5007A05F5BD
:10220000007500F5007041F1000105900398013060
:1022100048457FF4EFAE002007B0BDE8F08F00BF67
:1022200000400008003C0240080000201800024066
:1022300023016745AB89EFCD7001002042494E0074
:1022400000FC3F0070470000024801680131016056
:10225000704700BF700100200548D0F8801041F49D
:102260007001C0F880104FF000610160704700BF3E
:1022700008ED00E013460A46002100F069BA10B5E7
:102280008021044600F010FA20460021BDE81040ED
:1022900000F00ABA80B513460A460221C0E90633A7
:1022A000C0F89412002100F053FA002080BD0421F0
:1022B00000220023C0F89412002100F049BA000067
:1022C00080B502A000F05EF8434880BD4D53432026
:1022D000436F6E66696700001220088000487047EF
:1022E000D000002080B502A000F04CF83A4880BD34
:1022F0004D534320496E746572666163650000004A
:102300000420088000487047E400002080B502A047
:1023100000F038F8304880BD53544D6963726F65E2
:102320006C656374726F6E696373000080B502A0A0
:1023300000F028F8284880BD53544D3332204D61B9
:1023400073732053746F7261676500001A200880F0
:102350000A4908688A6880180ED0B0B5084D4C68E4
:102360000822A91CFEF755FC05F1120120460422A3
:10237000FEF74FFCBDE8B04001487047107AFF1FE0
:102380005401002080B530B34FF0000C034602E04A
:1023900001330CF1010C1A78002AF9D15FFA8CF3A1
:1023A0000222DFF834E002EB430C0323A1F800C063
:1023B0008EF801308EF800C04FF0000C08E0D1B26A
:1023C000023201300EF8013041F001010EF801C077
:1023D0000378002BF3D180BD98010020D0F8C4020F
:1023E00001F00F0243689A4288BF7047090609D47A
:1023F000C2EBC201002300EB810181F8FD3101F540
:10240000FE7107E0C2EBC201012300EB810181F8FC
:102410003D303C3100230A708B7090F8BC33012BA7
:1024200024D080B501234FEA421E80F8BC334B789C
:10243000D0F800C0012B14BF0CF530630CF510630D
:1024400053F80E2022F4001243F80E20C97801F050
:10245000FE01022902BF5EF8031041F080514EF8E0
:102460000310002180F8BC13BDE8804070470000D5
:10247000D0F8C40201F00F02090609D4C2EBC20170
:10248000002300EB810181F8FD3101F5FE7308E0C6
:10249000C2EBC201012300EB810181F83D3001F163
:1024A0003C031A7090F8BC13012901D1102146E0B9
:1024B000B0B50121244D80F8BC1301685B7801EBB5
:1024C0004214012B13D104F51063D4F80049B4F180
:1024D000FF3F07DC1C6844F000641C601C6844F08B
:1024E00080441C60012404FA02F292B214E004F564
:1024F0003063D4F8004BB4F1FF3F07DC1C6844F0B4
:1025000000641C601C6844F080441C604FF48034FC
:1025100005F1707504FA02F2D1F83C489443C1F811
:102520003C48D1F81C4824EA0202C1F81C2819686A
:1025300029401960002180F8BC13BDE8B0408348F1
:10254000C840C0B2704700BF007833EC10B5D0F877
:10255000C44294F8BC03012801D110200FE00120EF
:102560000A0684F8BC03206802D400F063FB03E091
:1025700001F00F0100F06EFB002084F8BC037349EA
:1025800021FA00F0C0B210BD10B5D0F8C4E201F0DD
:102590000F0C080609D4CCEBCC0000210EEB800018
:1025A00080F8FD1100F5FE7108E0CCEBCC000121B4
:1025B0000EEB800080F83D1000F13C018B60CA708A
:1025C00081F800C0487808B1A1F806C0022A04BF0B
:1025D00000240C719EF8BC13012901D1102033E0B6
:1025E000012101288EF8BC1301FA0CF4DEF800106A
:1025F00011D1D1F81C082043C1F81C084FEA4C1037
:1026000001F510610C5824041BD46FF3DF234458E8
:1026100043EA8C530FE0D1F81C0840EA0440C1F8AB
:102620001C084FEA4C1001F530610C58240408D402
:1026300044586FF3DF23234343EA8242054B1A4396
:10264000425000208EF8BC03404921FA00F0C0B28D
:1026500010BD00BF0080001080B501F00F0CD0F855
:10266000C4E20021CCEBCC000EEB8000C0E9843149
:10267000C0F8082280F8FD1180F8FCC100F5FE7159
:10268000DEF81030012B08BFC0F80C22DAB2DEF8F9
:102690000000BCF1000F03D0BDE8804000F010BA8C
:1026A000BDE8804000F068B910B5D0F8C44201F030
:1026B0000F026068824201D9082042E0080609D46E
:1026C000C1EBC100002104EB800080F8FD1100F592
:1026D000FE7108E0C2EBC200012104EB800080F82B
:1026E0003D1000F13C0101200A70887094F8BC3361
:1026F000012B01D1102024E084F8BC032068497824
:1027000000EB4213012919BF03F53061D3F8003BF8
:1027100003F51061D3F800392AB1002B03DB0B68F5
:1027200023F080430B600B68002A43F400130B6016
:1027300004D1217C04F5717200F096F9002084F830
:10274000BC03024921FA00F0C0B210BD000301032E
:1027500010B501F00F0CD0F8C4020024CCEBCC0172
:1027600000EB810E714601F83CCFC1E9053401232D
:10277000CA604B700369012B08BFCEF84C20DAB257
:102780000068BCF1000F03D0BDE8104000F098B91C
:10279000BDE8104000F0F0B880B5FEF799FA0020CF
:1027A00080BD80B5FEF7B6FA002080BDB0B501212E
:1027B0000446FFF75DFE002520468121A4F87851EC
:1027C000FFF756FE2587D4F8BC020028057203D017
:1027D00000F04CFEC4F8BC520020B0BD0A210180BC
:1027E00000487047280100202021018000487047E0
:1027F000E8000020202101800048704708010020E7
:10280000202101800048704734010020B0B5044603
:102810004FF41D7000F052FE88B1C4F8BC020125CF
:10282000207C88B12046012102224023FFF7ACFE24
:102830002046812102224023A4F8785112E0002092
:10284000C4F8BC020220B0BD2046012102224FF490
:102850000073FFF799FEA4F87851204681210222E7
:102860004FF40073FFF790FE012020872046FEF70B
:10287000BFFA0020B0BD7CB50446D0F8BC62002091
:102880000D46ADF80600087810F0600116D020293A
:1028900050D16978FF2922D0FE294BD169880029BF
:1028A00048D1000646D5E888012843D1D4F8C002B3
:1028B0008069804730602046314636E068780B28D2
:1028C00017D001281CD00A2829D098BB94F89C0264
:1028D00003282FD10DF106012046022226E0698847
:1028E00041BB000626D4E88820BB2046FEF7A0FAAC
:1028F0001EE094F89C0203281CD1A878706017E0B1
:1029000094F89C02032813D1688888B92979204655
:10291000FFF71CFE29792046FEF7BBF908E094F882
:102920009C02032806D1311D20460122FFF7B2FC8C
:10293000002003E02046FFF7A2FC032002B070BD98
:10294000CD494FF0FF3201328A4212D80369B3F108
:10295000FF3FF8DC026942F0010202614FF0FF32F2
:1029600004E00369DB0704BF0020704701328A429C
:10297000F7D90320704700BF70B54B7891F800C0BD
:10298000012B21D100EB4C14D1F814E0354D04F5A6
:102990001063D4F81069324CBEF1000F39D03540C5
:1029A0001D611D69254004F100541D618D68AE450F
:1029B00084BF4D61AE4604EA0E041D6945F400254E
:1029C0001D611D692C432FE000EB4C10244CD0F806
:1029D000103B6FF31203C0F8103BD0F8103B6FF3BD
:1029E000DC43C0F8103B00F530634E69886806B1DF
:1029F00048611E69012A46F400261E6104F1005652
:102A000000EA06001E6940EA0600186112D1C86893
:102A10000EE026404FF0000E1E611E6946F40026AF
:102A20001E611E6906EA0504012A1C6105D10869B8
:102A300000B158614FF004410EE01968BEF1000F7B
:102A400041F00441196008BF70BD0CF00F01012274
:102A500000F6340302FA01F118680843186070BDEB
:102A6000FFFF07E00000F8FF10B5036C134CA34212
:102A700003D3D0F8003B002B1EDB00230129C0F854
:102A8000103BD0F8103B43F40023C0F8103BD0F8C3
:102A9000103B43F01803C0F8103BD0F8103B43F054
:102AA000C043C0F8103B07D1C0F8142BD0F8001B6E
:102AB00041F08021C0F8001B10BD00BF0B30544F07
:102AC000BCB54B7891F800C0012B2ED100EB4C1413
:102AD000D1F814E004F51063D4F81049BEF1000FEA
:102AE00049D06FF312041C611C696FF3DC441C6154
:102AF0008C680EEB0405013DB5FBF4F44C4D05EA82
:102B0000C4441D692C4375461C616FF3DF451C6985
:102B10002C431C61CC78012C38D11C6924F0C044B2
:102B20001C611C6944F000542FE000EB4C13D3F8F7
:102B3000105B6FF31205C3F8105BD3F8105B6FF3F3
:102B4000DC45C3F8105B03F530634C69D1F808C06D
:102B5000D4B304EB0C05364C013DB5FBFCF504EA9F
:102B6000C54E1C69ADB205FB0CFC44EA0E046FF3C4
:102B7000DF4C1C6130E06FF3DC441C611C6944F4E1
:102B800000241C611C696FF312041C61012A01D12D
:102B90000A6928E01C6844F004441C60CC78012CCD
:102BA00036D1D0F80848E4054FF0805458BF4FF0B4
:102BB00000541D682C431C601FFA8EF3C9680092F4
:102BC000624600F068F8BCBD1D696FF3DF4C45EA52
:102BD0000C054FF4002C1D611D69012A45EA0C0506
:102BE0001D6102D1CA6802B15A61C97801290AD1AE
:102BF000D0F80808C0054FF0805058BF4FF0005083
:102C0000196808431860186840F004401860BCBD9B
:102C1000BEF1000F08BFBCBD0CF00F01012202FA8B
:102C200001F1D0F834281143C0F83418BCBD00BFFE
:102C30000000F81F1021104A01614FF0FF310131EF
:102C4000914284BF032070470369DB065CBF00200C
:102C50007047F4E78901084A203101614FF0FF31E4
:102C60000131914284BF0320704703699B065CBF1A
:102C700000207047F4E700BF3F0D030003324FF41C
:102C8000805C920804E050F80C30013A41F8043BB3
:102C9000002AF8D17047DDF800C0BCF1000F00D069
:102CA000704703334FEA023C00F580509B08002B2D
:102CB00008BF704751F8042B013B4CF80020F6E7A1
:102CC000FEE700008AB0754D4FF6FF020024D5F8EC
:102CD000000440F40070C5F80004D5F8000440F486
:102CE0008060C5F80004D5F8000440F48070C5F891
:102CF00000046B48016811406A4A114301600020DA
:102D0000FDF742FC0594686C40F480406864686C90
:102D100000F48040059005980594286C40F08050A0
:102D20002864286C00F08050059005980594286C64
:102D300040F080502864286C00F080500590059881
:102D400005945948016841F480410160006800F42D
:102D5000804005900598A86800F00C00042801D177
:102D6000286816E0A86800F00C00082802D16868FE
:102D70004002F5D4286840F480302860DFF89C06D3
:102D800001682A68920304D40268521A642AF8D9A6
:102D900020E0A86800F00C00082801D1686819E05C
:102DA000424900200860DFF8740602682B689B0126
:102DB00004D503689B1A022BF8D90BE03C4A6A60E1
:102DC00001220A6001682A68920103D40268521A3B
:102DD000022AF8D9D5F8000400F00F00042808D81A
:102DE000052085F80004D5F8000400F00F00052840
:102DF0007DD1A86840F4E050A860A86840F4604025
:102E0000A860A86820F0F000A860286880016ED54E
:102E1000A868022141F2883261F30100A860DFF85E
:102E2000FC050168AB6803F00C03082B04D00368B1
:102E30005B1A9342F6D95AE0D5F8000400F00E0070
:102E4000062808D3052085F80004D5F8000400F012
:102E50000F0005284BD1A868052161F38C200421BF
:102E6000A860A86861F34F30A860A86800F00C0162
:102E70001048082903D0042908BF0F482AE06968D0
:102E80006B6801F03F0269685B02C1F3881115D4D9
:102E9000A1FB00010023FDF7C5F913E00038024053
:102EA0000CED00E00003FA050070004060004742AE
:102EB000042A40070024F40000127A00E74848433F
:102EC000B0FBF2F069680222C1F3014102EB41015B
:102ED000B0FBF1F0A9680FF24852C1F30311515C45
:102EE000C840DFF84C150861C868FDF74DFB0027A6
:102EF000DB4E01240DF1140809970497286B40F06C
:102F000080002863286B00F08000049004980497E8
:102F1000286B40F001002863286B00F0010004904A
:102F200004984FF40000306080200897CDE90644F3
:102F300005904046FDF76EFA4046CDE90747CDE9DA
:102F40000547FDF767FAC74C2068013001280BD808
:102F500060680130012807D8A0680130012803D833
:102F6000E068013002280CD356F8080CC00740F086
:102F70009B80C820FDF742FA56F8080CC00740F0C5
:102F80009380DFF8B424D2F8B80210B10020C2F860
:102F9000B802D2F8CC0210B10020C2F8CC02012055
:102FA000DFF89894DFF8887400244FF0020B4FF09C
:102FB000A04182F89C0204201470C9F80424C2F8CD
:102FC000C492C9E90B44C9E906B4C9E90844C9E98E
:102FD00003B4C9E9001007F15400C2F8B40299F82B
:102FE000BD0390BB0DF1140A142189F8BC4350466F
:102FF000FDF750F90494286B40F001002863286B1A
:1030000000F00100049004980A2009900320089021
:103010004FF4C050CDE906B405905046FDF7FAF9DB
:10302000686B002140F0800068630494686C40F491
:1030300080406864686C00F48040049004984320E9
:10304000FDF7C8FA884808210160032089F8BD030C
:1030500086480068C0055CBF0020C9F81000D9F898
:103060000040A06820F00100A060D9F81800D9F84D
:1030700010A001282ED1D9F83400A16BE64A21F422
:1030800080310128A163E16801EA0201E160E168A1
:1030900021F44011E16002BFE06840F48010E0607C
:1030A0002046FFF74DFC26E04FF0FF31002260681C
:1030B00029622A6269626A6229612A6169616A61B8
:1030C000A961AA61216881F30888DA49C1F8004C36
:1030D0008047FEE7D9F82850E06840F04000E06003
:1030E0002046FFF72DFCA16B002D14BF21F4803189
:1030F00041F48031A163BAF1010F07D1A16841F019
:103100000601A160A16841F02001A160002840F003
:103110000B81D9F80000C16821F0C041C160C168CD
:1031200041F08041C1603220FDF768F9D9F80450C0
:103130000020012100220FE0C3EBC30409EB84044B
:10314000A4F8423084F83C2084F83D102065C4E99E
:10315000110084F83F000132D3B29D42ECD8002028
:1031600000210EE0C2EBC20209EB8202C2F810029B
:10317000C2E9810082F8FF0182F8FC1182F8FD01AA
:103180000131CAB29542EDD8D9F82C40D9E906E010
:10319000D9F80080D9E903C14122002302E048F8B0
:1031A00022300132502AFAD1002C0394CDE90110CB
:1031B0000AD0D8F8382022F40012C8F83820D8F8FD
:1031C000382042F4002215E0D8F8042842F0020228
:1031D000C8F80428D8F8382042F40012C8F838207B
:1031E000D8F8382022F40022C8F83820D8F838203F
:1031F00022F48022C8F83820002208F5006BBEF1C6
:10320000010FC8F8002EDBF80020CBF8002007D112
:10321000DBF80010BCF1000F18BF41F0010103E022
:10322000DBF8000040F00301CBF80010404610210D
:10323000FFF710FD82464046FFF7FCFC4FF0000E02
:1032400040EA0A0C08F510624FF67F330020CBF8F5
:1032500010E0CBF814E0CBF81CE019E000127A0083
:10326000180002400040000808E100E03C00005067
:103270004FF09044002800F1010008BF4FF00064B7
:10328000116804EAE1711160C2F810E09360203225
:103290008542EDD108F530614FF0000E4FF67F33D7
:1032A00000200FE04FF09044002800F1010008BF1B
:1032B0004FF000640A6804EAE2720A60C1F810E0A4
:1032C0008B6020318542EDD1DBF8100020F4807056
:1032D000CBF810000020C8F818006FF08040C8F844
:1032E0001400019828B9D8F8180040F01000C8F868
:1032F0001800D8F8180052490843C8F81800029876
:10330000039900281EBFD8F8180040F00800C8F83C
:103310001800012905D1D8F818004A490843C8F80F
:103320001800BCF1000F62D0022089F8BD03D9F863
:103330000000802440214FF0000944620020FDF786
:1033400071F9012080214FF00108FDF76BF9DFF8DA
:10335000F8A03949ADF814900AF120000D46C1F8E3
:10336000B802DAF8481005A88847C5F8CC02C5F8B5
:10337000C0A2D5F8C40290F8BC1301291FD001687F
:1033800080F8BC83826A012A06D18269012A1EBFA5
:103390008A6B42F480328A638A6842F001028A6052
:1033A000D1F8002E22F00302C1F8002ED1F8042833
:1033B00022F00202C1F80428002180F8BC134FF467
:1033C00000053878FF2805D0FA2805D00028F8D164
:1033D0003460F6E73560F4E735603878FDF70EF8CD
:1033E0003460387800EB4000FDF708F8E9E700208A
:1033F00089F83800012089F8BD03D9F80000D0F819
:10340000001E21F00301C0F8001ED0F8041841F09E
:103410000201C0F804188AE7BFFFBDFF7001002059
:103420000000000000000000010203040607080974
:103430000800002008E100E0980300206806002052
:1034400000383C80040000407800002002E008C8FA
:10345000121F08C1002AFAD170477047002001E00E
:1034600001C1121F002AFBD17047000010B50028CF
:1034700021D0114B0022001F196803E0814203D8BC
:103480000A4649680029F9D152B11368841A9C424E
:1034900004D1006818441060104602E0506000E05B
:1034A000186039B102680B1A934203D10B681A44B1
:1034B00002604968416010BD00000020F0B50B308B
:1034C000154D20F007010024144A0FE003688B42D9
:1034D0000BD38B4205D95E1A43184768C3E90067CE
:1034E00000E04368136002C004E0021D1068002879
:1034F000ECD12046002802D1286808B10020F0BD98
:10350000064A07481060074A121A22F00702C0E96B
:10351000002401202860D7E70400002000000020DC
:10352000740A0020702A0020EBFE904D53444F5344
:10353000352E300002017C110200000000F800006E
:103540003F00FF003F000000C1C003004207000031
:103550000000000002000000010006000000000062
:103560000000000000000000800029B04990024ED9
:103570004F204E414D4520202020464154333220DB
:103580002020008002021F00000053544D20202004
:10359000202050726F64756374202020202020202A
:1035A0002020302E30310000C835000800000020F7
:1035B00070010000E8020008883600087001002051
:1035C000002D00005C3400088142FA23064013C637
:1035D0004742104324F412021A80021B08200132D1
:1035E0002203120812622609111B13D922140801A2
:1035F000231B080D041A2D041A4D041AC1141AE5D0
:1036000004138D1D1B0879041A91041A95041A9944
:103610000413CD1F1B0889081B8235341228140897
:10362000AD271B087708811A99101AA304C11AF54F
:10363000101AE9041A01281ADD081B1201B4211618
:1036400040830448572602010203011008040309BD
:10365000040902201808010104C0320904D618091F
:103660000806500507058102F02C0705010709141B
:1036700020194C292019074B0A0658194F110B1C09
:0836800009074C031A1A0300AC
:040000050800018965
:00000001FF
