:020000040800F2
:10000000780F00200101000883080008210600087D
:1000100081080008CD0100080D2D00080000000037
:10002000000000000000000000000000AD1100080A
:10003000CF0100080000000085080008B111000889
:100040001B0100081B0100081B0100081B01000820
:100050001B0100081B0100081B0100081B01000810
:100060001B0100081B0100081B0100081B01000800
:100070001B0100081B0100081B0100081B010008F0
:100080001B0100081B0100081B0100081B010008E0
:10009000F11E00081B0100081B0100081B010008DD
:1000A0001B0100081B0100081B0100081B010008C0
:1000B0001B0100081B0100081B0100081B010008B0
:1000C0001B0100081B0100081B0100081B010008A0
:1000D0001B0100081B0100081B0100081B01000890
:1000E0001B0100081B0100081B010008DFF80CD0F1
:1000F00000F026F800480047112D0008780F002076
:100100000648804706480047FEE7FEE7FEE7FEE7B1
:10011000FEE7FEE7FEE7FEE7FEE7FEE7C1110008A7
:10012000ED00000830B504460020034600E05B1CEB
:10013000934203D2E05CCD5C401BF8D030BD0000A0
:10014000064C074D06E0E06840F0010394E8070024
:1001500098471034AC42F6D3FFF7CCFF3C3200088E
:100160005C320008202A04DB203A21FA02F0002148
:10017000704721FA02F3D040C2F1200291400843B7
:100180001946704740EA01039B0703D009E008C9FC
:10019000121F08C0042AFAD203E011F8013B00F84C
:1001A000013B521EF9D27047D2B201E000F8012B98
:1001B000491EFBD270470022F6E710B513460A46E7
:1001C00004461946FFF7F0FF204610BDFEE77047D2
:1001D000DFF8E8CF23484CF25033DCF8002006E08B
:1001E000DCF80010891A994284BF03207047016827
:1001F000C907F5D10168890644BF20210160016863
:10020000C90607D40169C90704D1016849075CBF61
:10021000002070470168C90601D4002206E0DCF81E
:100220002410102241F00201CCF824100168490783
:1002300007D5DCF8241042F0040241F00101CCF8AB
:1002400024100169C90709D0DCF8241041F0040129
:10025000CCF82410016921F0010101610260012044
:10026000704700BF0C200240411C08BF01460348F4
:10027000026803689B1A8B42FBD370472801002059
:100280002DE9FC4F594A04234FF0000B4FF00108B1
:100290004FF00F0E4FF000090025904208BF0323D6
:1002A00000930A6832FA05F308BFBDE8FC8F08FA2C
:1002B00005F73A4200F096804A68032A16D9112AB7
:1002C00024D0122A26D04D4B9A4213D04C4B9A423E
:1002D00010D04C4B9A420DD04B4B9A420AD04B4B0C
:1002E0009A4207D04A4B9A4204D020E0DFE802F05D
:1002F0000216191D8A6832B1012A14BF47610761CD
:100300004FF0080913E04FF0040910E0CA6802F149
:1003100004090CE0CA6802F10C0908E0D1F80C905D
:1003200005E0CA6802F1080901E04FF000095A46E9
:100330000446082D28BF203A28BF043426680EFA48
:1003400002F309FA02F226EA03031A432260CA7989
:10035000D20647D5284A0BF00C0C1346126842F01F
:1003600001021A601A680EFA0CF302F001020192FF
:100370001F4A019CAC08A2F57E7656F8242022EA9A
:10038000030A244A904208D0234A904207D0234AC5
:10039000009B904208BF022302E0002300E00123FB
:1003A00003FA0CF242EA0A0246F82420104E4A6888
:1003B000D303336854BFBB433B4333609303736839
:1003C00054BFBB433B437360D302B36854BFBB43CA
:1003D0003B439202B360074A1346126854BFBA43C4
:1003E0003A431A600BF1040B01355AE7001401403F
:1003F000000401400C0401401810024000001110DC
:100400000000121000002110000022100000311026
:100410000000321000080140000C014000100140B3
:10042000B0B50F4D04464FF47A712869B0FBF1F076
:10043000411E0020B0EB116F11D10A4AF0230F2C9E
:10044000516009490B7090604FF00700106088BF41
:10045000B0BD4FF0FF30214600F008F8EC60B0BDB1
:100460000000002010E000E023ED00E010B500F0F7
:100470000F03114C0F4AB0F1FF3FA3F104032344D3
:1004800003F10C03C8BF831820684FF0FF34C0F39A
:100490000220C21E80F0070038BF0022042828BFB7
:1004A000042004FA00F021EA0000904000011870D6
:1004B00010BD00BF00E400E00CED00E0B0B5014667
:1004C00056480029D0F8E8420CD0D4F8B40242696A
:1004D000002A57D094F89C02032853D12046BDE847
:1004E000B0401047D4F894229AB1042A11D0022ABD
:1004F00040D1D4E90832934210D901EB810100EBDD
:10050000C100C16B981A206282B2204600F059FEE9
:100510002AE02046802101F027F92BE0E069904293
:1005200011D3B0FBF2F101FB120161B9D4F89812BA
:10053000884208D2204600210022002500F041FE1A
:10054000C4F8985210E0D4F8B402C16829B194F804
:100550009C02032801D1204688472046802101F0D3
:1005600003F90520C4F8940220460021002200234C
:1005700001F0DEF894F8A002012802BF002084F800
:10058000A002B0BDB0BD00BF10B501462348002990
:10059000D0F8E8420BD0D4F8B40282692AB394F8B8
:1005A0009C02032821D12046BDE810401047D4F812
:1005B0009422052A1AD0032A17D1D4E958C39C459E
:1005C0001DD901EB810100EBC1000021D0F87C2195
:1005D000ACEB0300C4F86001984238BF03462046E4
:1005E0009BB2BDE8104001F0A3B810BD002000216F
:1005F000C4F894022046BDE8104001F0B5B8D4F824
:10060000B402016929B194F89C02032801D1204663
:1006100088472046BDE8104000F0F0BD8808002063
:10062000FEE710B501314FF0000C4FF0370E10E02F
:100630000EEB107381F800C0040FB0F1204FA2F14F
:1006400001024FEA001038BF04F1300301F8013C09
:100650000231002AECD110BDB0B5D0F8B852044632
:1006600095F8180280B12046812101F07DF8687A62
:10067000022818BFB0BD05F50372204601211F23D3
:10068000BDE8B04001F054B8D5F814020028EAD013
:10069000687A0028E7D12046012101F065F8E2E7F9
:1006A00010B5D0F8B842627A022A05D1812101F052
:1006B0005BF80020607210BD49B2B1F1FF3FFADC77
:1006C000012A08BF10BD0121BDE8104000F0BAB8F2
:1006D00010B50446D0F8B802017ACA1E022A05D223
:1006E00020460021BDE8104000F0ACB8022910D12E
:1006F00090F8191200F21B22204600F0D7F8B0F152
:10070000FF3FC8BF10BD20460121BDE8104000F0EA
:1007100099B810BDB0B5D0F8B8520446287A01286F
:1007200023D060BBD5E98401C5E98C01D4F8C002AF
:10073000D0F8AC011F280DD1D5F80C022B49884206
:1007400008D195F81912012904D895F81A02013830
:10075000102815D32046052100F0C0FA0220687247
:100760002046BDE8B040FFF777BF95F8191205F2B3
:100770001B22204600F09AF8B0F1FF3F2ADDB0BD01
:1007800005F21B22204600F091F8297AB0F1FF3FD4
:100790001EDD481E0328F2D3688908B3D4F8B812C6
:1007A000002281F8382204220A72D1F83432D1F8BA
:1007B00014221B1A8242C1F8343238BF104683B269
:1007C00005F10C0281212046BDE8B04001F00CB8D3
:1007D0000529C5D120460121BDE8B04000F032B85E
:1007E00020460021BDE8B04000F02CB855534243EC
:1007F000B0B5D0F8B852044600202881A5F85C02B4
:10080000D4F8BC020168002088472046012100F08E
:1008100043FE2046812100F03FFE05F5037220468D
:1008200001211F23BDE8B04000F082BFD0F8B8120C
:100830004FF480721F230A8101F50372012100F039
:1008400077BF0000B0B5D0F8B85204460B480D236E
:1008500085F83812C5F82C02002005F50B728121AD
:100860002872204600F0C0FF05F5037220460121E2
:100870001F23BDE8B04000F05BBF00BF555342539B
:10088000FEE7704770471144D0F8B822D2F86022D2
:10089000914207D980B5052100F020FAFF20BDE87C
:1008A000804000E0002040B2704700002DE9FE4388
:1008B000044610780D461646A0F11A0110290FD8EB
:1008C000DFE801F037093131093131313146316F1B
:1008D00031317E31BE00D4F8B80200254581E4E113
:1008E0005A2800F0ED80032800F0F980122800F06B
:1008F00022812F2800F03B81A8B9D4F8B862D6F83D
:100900001402002840F0CC81D4F8BC02816828464B
:100910008847002800F0D3812046022100F0DEF94C
:1009200005203072C0E12046052100F0D7F9FF25EF
:10093000BBE1D4F8B8020821E4A24181072104E018
:100940008BB20139C718D35C3B734B1CF8D1ABE1B8
:10095000D4F8B8620021002206F10C0001E08154B5
:1009600001320C2AFBD1D4F8BC0201A90DF10A0214
:1009700043682846984700BB08200221F07301987D
:10098000B1820138010AF074B174010C000E717467
:1009900030740C21BDF80A00F075000A7181B07541
:1009A00082E1D4E9AE60436806F5187106F25E2272
:1009B00028469847002800F0FA802046022171E17D
:1009C000D4F8B88298F808004746002800F0038160
:1009D0004FF4007607F10C09A8F80A60B7F85E0238
:1009E000D7E999214143B1F5007F38BF0E461FFA80
:1009F00086F84946B8FBF0F3D4F8BC02D0F810C032
:100A00002846E047B0F1FF3F40F3C18020468121F6
:100A10004A46434600F0E8FED7F83402D7E9991277
:100A2000801BC7F83402B7F85E02B8FBF0F001444F
:100A3000101AC7E9991040F037810320387233E16A
:100A4000D4F8B872387A002800F0F080B7F85E0267
:100A5000D7E9992107F10C0801FB00F64146B6F5EC
:100A6000007F28BF4FF400761FFA86F9B9FBF0F338
:100A7000D4F8BC02D0F814C02846E047B0F1FF3FDC
:100A800040F38580D7F83402D7E99912801BC7F864
:100A90003402B7F85E02B9FBF0F3CE18D11AC7E9F9
:100AA000996100F00681484301214246B0F5007F7C
:100AB00028BF4FF4007083B2204600F039FEF3E007
:100AC000D4F8B80208217FA24181072104E08BB24B
:100AD0000139C718D35C3B734B1CF8D1E4E0D4F860
:100AE000B8020C21002201E0425401311E29FBD141
:100AF0000C21C1747021017390F85C1290F85D2292
:100B0000914211D000EBC102013192F83C32837363
:100B100092F841320376CBB2043B18BF0B4692F8F1
:100B2000401280F85C3241761221418131791229DC
:100B300098BF4181B8E07178D4F8B802C90729D1CB
:100B4000D4F8BC2205EBC501D26902EB81010A7918
:100B5000531D32799A4288BF1A46428104E0013A15
:100B600093B2CF5C03441F73002AF8D19CE07078E5
:100B7000800700F19580D4F8B8622046D6E9991232
:100B8000FFF781FE00250028A8BF75818DE0204673
:100B9000042187E007214FA24181062104E08BB2A6
:100BA0000139C718D35C3B734B1CF8D17CE000259E
:100BB000082035827081B6F85E02F074000AD6F81B
:100BC00060120139F173B074080AB073080C7073C5
:100BD000080E307369E098F91802002860DAD4F83A
:100BE000BC0281682846884700287FF4E6AED6F824
:100BF000020001BAC8F86412F079327A42EA00229F
:100C00002046C8F86822FFF73EFE00284CDB022091
:100C100088F80800B8F85E02D8F86822D8F81412EC
:100C2000504381423CD1D4F8B872D1E697F918020A
:100C3000B0F1FF3F34DDD4F8BC0281682846884714
:100C400000287FF4BAAED4F8BC02C16828468847B1
:100C500000287FF4B2AED6F8020001BAC7F86412D9
:100C6000F079327A42EA00222046C7F86822FFF77C
:100C70000AFE002818DBB7F85E02D7F86822D7F81A
:100C80001412504381420BD10121B0F5007F07F1CE
:100C90000C02397228BF4FF4007083B201210BE7B8
:100CA0002046052100F01AF8002568B203B0BDE81F
:100CB000F083204600210025FFF7C4FDF5E700255D
:100CC0007581F2E70006000000000000000000004F
:100CD000000000000000000300808300D0F8B8028C
:100CE000002290F85DC200EBCC0383F8402283F829
:100CF0003C120CF10101CAB2043A18BF0A4680F84E
:100D00005D2270474FF4803008604FF4007010800F
:100D10000020704700207047002070470020704777
:100D2000002070472DE9F84F1C467F4BDFF8EC910F
:100D30000D4657024FF0000801264FF0000A4FF011
:100D4000000BA34500F0E080780A08283ED806FA98
:100D500000F010F0410F20D110F0820F06D110F4F6
:100D6000827F33D028464FF4FF711FE0281D4FF4D7
:100D7000FD71FFF720FA4AF655206B4BA5F8FE01EE
:100D800040F60500C5F8EC016148C5F8E801614886
:100D9000C5F8E401604828600FE0284649465A2219
:100DA000FFF7F0F905F15A004FF4D271FFF703FA9B
:100DB0005D4B4AF65520A5F8FE0117F500770BF1BB
:100DC000010B05F500754AF1000ABAE755483844A9
:100DD000B0F5085F41D352493944490A10293CD93A
:100DE000B7F5800F55D105F140004FF4E071FFF7E2
:100DF000E2F928464EA10B22FFF7C4F908204E461F
:100E00004FF0000945F29C084CA10B22E87205F155
:100E10002000C5F81490C5F81090C5F80C90C5F8DE
:100E20001C90C5F81880FFF7ADF94FF4E0303E4B49
:100E3000E863052068874448C5F83600C5F8328065
:100E4000C5F82E004FF4C15085F82D90B1464FF0F3
:100E500000080126A5F82B00AFE73C4980088F4227
:100E60002DD03B4940F001008F423DD1002103E0ED
:100E7000421845F8212001310429F9D16FF0704062
:100E80002861052002E045F8208001308028FAD151
:100E900093E75868B84230D89968B9422DD9381AC2
:100EA0004FF4E03200F50071B1F5E03F28BF114684
:100EB0000A1A1E4901442846FFF764F922E0254931
:100EC00040F0010029604FF0FF3169606FF0704120
:100ED000C5E902112961052103E0421845F82120E6
:100EE00001318029F9D168E7002103E0421845F873
:100EF000212001318029F9D15FE728464FF40071A4
:100F0000FFF759F9084B58E7002001B0BDE8F08F12
:100F1000BE9803007272416152526141BC310008B7
:100F20000084CEFF0008DDFF000000200040000824
:100F3000594142204469736B2020200046313033F0
:100F40005F41505042494E0000009C5000F8220082
:100F500000182300F8FFFF0F2DE9F04F89B08A48F1
:100F6000DFF82C828A46994654020025002100EBC6
:100F7000422B002000E1CDE9061040F2FF11D8F825
:100F8000080020EA0101C20518BF01F50071B4F59F
:100F9000800FC0F0E68021D100271BE00AEB070696
:100FA00080A1032206F10800FFF7BCF888B9B08AD7
:100FB000718B41EA00407C4901EB4020C8F80400F5
:100FC000F169B1F5E03F28BF4FF4E0310844C8F8BB
:100FD00008002037B5EB572FE0D0C2E00025A14232
:100FE0001ED96B49D1F80480A04519D869494FF43E
:100FF00000520594654C0A6065490D702168090628
:1010000006D5654944F80C1C644944F80C1C216859
:10101000A0EB0801B1F5007F08D94FF4007108E09A
:101020005B4D01208DF82300A84699E0880718BF82
:1010300004310598804535D1594890F820000128A1
:1010400000F0858056480E46012180F82010FFF7F9
:10105000BFF8E8B94C4F012002E007F58067002097
:10106000494901F5E0318F4216D24D48456220686A
:1010700040F0020020606760206840F0400020607F
:10108000FFF7A6F82168002821F002012160E4D0D2
:10109000434880F820505AE04149002881F8205008
:1010A000314654D10598A0EB0800800B06284ED895
:1010B000ABEB080000220490CDE902B900912FE0CB
:1010C000DDF810904FF0FF38002208F10108B8F168
:1010D000010F1AD83248002102F1100609F1020B63
:1010E0004562206840F0010020603846FFF73AF87A
:1010F000A9F80000FFF76CF8216800283246D946AD
:1011000021F001012160E0D01CE02548019A80F81F
:1011100020500498043204300490DDE902B90099AB
:101120008A4214D21E4890F8200001280FD01C4893
:101130005AF802700121019280F82010FFF748F858
:101140000028BDD0164880F82050DDE902B920689B
:101150000F4D40F08000A8462060FF202870059CBD
:1011600000250699079814F500740BF5007B0AF525
:10117000007A40F10000013149457FF4FCAE0020C7
:1011800009B0BDE8F08F00BF004000081020024009
:10119000000000201010014023016745AB89EFCD0E
:1011A0002801002042494E0000FC3F00704700002B
:1011B0000248016801310160704700BF280100202A
:1011C000704713460A46002100F00EBB10B580217F
:1011D000044600F0C9FA20460021BDE8104000F0A6
:1011E000C3BA80B513460A460221C0E90733C0F8E6
:1011F0009412002100F0F8FA002080BD04210022A2
:101200000023C0F89412002100F0EEBA80B502A0CD
:1012100000F05EF8444880BD4D534320436F6E6636
:1012200069670000122008800048704750000020C5
:1012300080B502A000F04CF83B4880BD4D534320E0
:10124000496E746572666163650000000420088061
:10125000004870476400002080B502A000F038F814
:10126000314880BD53544D6963726F656C6563741A
:10127000726F6E696373000080B502A000F028F8F9
:10128000294880BD53544D3332204D617373205330
:10129000746F7261676500001A2008800A49086847
:1012A0008A6880180ED0B0B5084D4C680822A91C79
:1012B000FFF7B7F905F1120120460422FFF7B1F953
:1012C000BDE8B04001487047E8F7FF1F0C0100205F
:1012D00080B538B34FF0000C034602E001330CF147
:1012E000010C1A78002AF9D15FFA8CF30222DFF898
:1012F00038C04FF0030E02EB43030B8001218CF842
:1013000000300AE0D3B201304FF0000E0CF80310A9
:1013100042F00101931CC9B21A460CF801E00178B1
:101320000029EFD180BD00BF54010020D0F8C0C219
:1013300001F00702080609D402EB820000210CEB41
:10134000C00000F5B47380F8691108E002EB820078
:1013500001210CEBC00080F8291000F128031A705D
:101360009CF8A802012801D1102084E010B50120CA
:101370008CF8A802DCF800101C7B587831F8223079
:1013800001EB820E48F2800284B303F48043D0B3B1
:101390004BB1BEF8000040F60F71084002F58041E5
:1013A0000843AEF80000BEF80000400609D5BEF8BC
:1013B000000040F60F71084002F140010843AEF80A
:1013C0000000BEF8000040F60F71084002F58041B1
:1013D000084340F63F71AEF80000BEF80000084038
:1013E0001043AEF8000043F60F7339E0002847D0F1
:1013F000580633D5BEF8000040F60F71084002F1E0
:101400004001084328E04BB1BEF8000040F60F71E0
:10141000084002F580410843AEF80000BEF8000025
:10142000400609D5BEF8000040F60F71084002F1F1
:1014300040010843AEF80000BEF8000040F60F710E
:10144000084002F14001084343F60F71AEF8000076
:10145000BEF8000008401043AEF8000040F63F73AD
:10146000BEF8000018401043AEF8000000208CF8D1
:10147000A802BDE81040AD4921FA00F0C0B27047A3
:101480005804B0D5BEF8000040F60F71084002F5D0
:1014900080410843A5E700BFD0F8C01291F8A80228
:1014A00001281ABF002081F8A80210209F4921FAC4
:1014B00000F0C0B2704700BF2DE9F047D0F8C092ED
:1014C00001F0070E090609D40EEB8E01002709EB87
:1014D000C10101F5B47481F8697108E00EEB8E0169
:1014E000012709EBC10181F8297001F1280423616A
:1014F000E27084F800E094F801A0BAF1000F18BF80
:10150000A4F80EE0022A04BF0021217199F8A81264
:10151000012901D11021C3E0012147F27060032AA3
:1015200089F8A812D9F8006036F82E7006EB8E0103
:1015300027EA000705D0012A06D03AB947F4007718
:1015400004E047F4C06701E047F4806748F2800C8C
:1015500047EA0C0040F60F7708800888384040EAD8
:101560000E0040EA0C000880207B002849D0088843
:1015700040F60F63BAF1000F00EA03000CF5807328
:1015800040EA0300088006F58060B6F850702589AF
:1015900000EB0E1325F00105DD534FEA0E1303F1A6
:1015A00008031844B6F85030678927F00107C7527E
:1015B000088800F480434DD03BB1088840F60F7393
:1015C00018400CF58043184308800888400607D56A
:1015D000088840F60F7318400CF140031843088048
:1015E000088840F63F73012A43F60F7200EA0300B1
:1015F0000CF1200383EA000308BF40EA0C030B80D0
:1016000046E0B6F8500006F580674FEA0E1EBAF1C4
:10161000000F07EB000848D0E08820F0010028F810
:101620000E000888400607D5088840F60F7318405A
:101630000CF1400318430880088840F63F73012AE4
:1016400003EA00030EBF43EA0C020CF1200083EA18
:10165000000221E03BB1088840F60F7210400CF503
:101660008042104308800888400607D5088840F665
:101670000F7210400CF1400210430880088843F6B6
:101680000F7210400CF54052504040F63F720880F7
:101690000888104040EA0C020A80002189F8A8124C
:1016A0002248C840C0B2BDE8F087E2884EF008008A
:1016B000002B22F0010228F800204EF00C00B6F8B2
:1016C000506007EB000207D03E2B0DD803F001005D
:1016D00000EB5300830212E0B05A134B20F4F840A1
:1016E000B052B05A03430AE0DF064FF0FF304FEA32
:1016F000531708BF00EB53170B4840EA8723B35238
:101700000888400407D5088840F60F7210400CF591
:10171000804210430880088843F60F7210400CF591
:1017200040524240B8E700BF0080FFFF00020102C4
:1017300080B5D0F8C0C201F007014FF0000E01EBF8
:1017400081000CEBC00000F5BE77A7E80C4080F8E4
:1017500069E180F8681100F5B471DCF80000BDE8BB
:10176000804000F05FB90000D0F8C00201F007022D
:1017700043689A4234D80B0609D401EB8101002357
:1017800000EBC10181F8693101F5B47107E002EBAA
:101790008201012300EBC10181F8293028310123A6
:1017A0000A708B7090F8A832012B08BF704710B5F3
:1017B00049780C4C002940F63F7108BF04F57F645E
:1017C00008BF43F60F71D0F800C03CF82230194032
:1017D00061402CF82210002180F8A812BDE81040CA
:1017E000704700BF9080FFFF80B5D0F8C0C201F005
:1017F00007004FF0000E00EB80010CEBC10101F877
:10180000280F012001F1140781F82400A7E80C40FB
:101810000B624870DCF80000BDE8804000F002B9BF
:1018200080B5FEF755FF002080BD80B5FEF772FF42
:10183000002080BDB0B501210446FFF777FD0025EB
:1018400020468121C4F86C51FFF770FDE562D4F8A1
:10185000B8020028057201D0C4F8B8520020B0BD0B
:101860000A21018000487047E0000020202101800B
:1018700000487047A00000202021018000487047E8
:10188000C00000202021018000487047EC000020AB
:10189000B0B50446007C012560B12046012102223A
:1018A0004023FFF709FE2046812102224023C4F88D
:1018B0006C510DE02046012102224FF40073FFF726
:1018C000FBFDC4F86C512046812102224FF40073C5
:1018D000FFF7F2FD0448C4F8B8020120E062204698
:1018E000FEF786FF0020B0BD540300207CB50446FF
:1018F000D0F8B86200200D46ADF80600087810F068
:10190000600116D0202963D16978FF2923D0FE29F0
:101910005ED1698800295BD1000659D5E888012885
:1019200056D1D4F8BC0280698047306020463146E9
:101930004AE068780B2818D001281DD00A283DD02D
:10194000002845D194F89C02032841D10DF10601ED
:101950002046022239E06988D1BB000638D4E888E5
:10196000B0BB2046FEF762FF4CE094F89C020328CF
:101970002ED1A878706045E029792046FFF78CFDCC
:1019800029792046FFF7D2FCA98801F00F0009064B
:1019900000EB800004EB80001FD400210222C0F87D
:1019A00058110121207C0028204614BF40234FF409
:1019B0000073FFF781FD04F5B6701DE094F89C02FA
:1019C000032805D1311D20460122FFF70AFC19E04A
:1019D0002046FFF7FBFB022015E000210222816177
:1019E0008121207C0028204614BF40234FF400733F
:1019F000FFF762FD04F12C000121016020462979E6
:101A0000FEF74EFE002002B070BDD0F8B4223AB10D
:101A100080B512689047002818BF0120400080BDA3
:101A2000022070472DE9F041044648780D46012810
:101A30005DD12A69AF69974288BF1746287B002885
:101A400076D0E878022840F0A5802978286A40F608
:101A50000F6634F82130904206EA03064FEA41034C
:101A600040F2D180E84AC01B090148F2800802F523
:101A70008072324304F5806624F81320286234F81B
:101A80001320B4F850003044520600F1138141F0A5
:101A90000401BBB24752204669692A8901F024F942
:101AA00068690023C1196961286A2A69904288BF60
:101AB000C31B2B6288BF38466A78012A00F0A681D2
:101AC000002A40F0F981B4F850202B7800284FEA22
:101AD0000313324403F10C0300F0D1813E2800F2DD
:101AE000DE8100F0010707EB5007BF02E3E1297B2D
:101AF00071B3E97801295ED0022918BFBDE8F081F1
:101B0000002840F04381B4F850002A7804F5806141
:101B10000B1828691201171D002800F0FB803E28D1
:101B200000F20E8100F0010606EB5006B60212E14B
:101B3000EA886969BBB2204601F0D6F8B4F85000D3
:101B400029780901204404310844A0F8007488E091
:101B50002A69A9691046914288BF08469142A0EBC4
:101B60000200A861B4F8500088BF11462A78002905
:101B700020444FEA021202F10C0300F5806048F2A3
:101B8000800270D03E2976D801F0010707EB5101A1
:101B900089027CE0297834F82120B4F8500009014A
:101BA0002044520600F5806041D441F004014752C0
:101BB00005F1080040E02A69A9691346914288BFEF
:101BC0000B469142A3EB0203AB6188BF114600288C
:101BD00040F0E980B4F8500004F5806248F2800CCF
:101BE000002902EB000728784FEA001303F10406EE
:101BF00000F0F4803E2900F2198101F0010000EBB1
:101C0000510080021DE148F2800209013243043193
:101C100024F81320214483B2B4F850201144A1F8D1
:101C20000004204669692A8901F05EF819E041F054
:101C30000C01475205F10A0002886969BBB22046CF
:101C400001F052F8697848F28000012923D041B9A7
:101C5000297840F60F7334F821201A4000F1400330
:101C600021E0A14822E0195A21F4F8411952195AE9
:101C700041F400410BE0CE064FF0FF374FEA51161A
:101C800008BF07EB51164FF4004141EA8621195273
:101C900002F5405097E0297840F60F7334F8212080
:101CA0001A4000F580431A4324F82120303040F6D2
:101CB0003F718AE041F00C01BBB24752204669698E
:101CC0006A8901F011F868690023C1196961286AFD
:101CD0002A69904288BFC31B2B6288BF38466A7846
:101CE000012A00F09B80002A40F0F580B4F85020D3
:101CF0002B7800284FEA0313324403F1040300F069
:101D0000C6803E2800F2DA8000F0010707EB50079A
:101D1000BF02DFE0F85A20F4F840F852F85A40F4D5
:101D20000040F852B4F85000084442F00C01425A06
:101D300022F4F8424252425A42F40042425225E012
:101D4000C6064FEA501E4FF0FF3C684E08BF0CEB32
:101D5000501E46EA8E26FE5242F00C023E28B4F88F
:101D60005030194405D800F0010303EB5000800205
:101D70000BE0C7064FF0FF334FEA501708BF03EBE5
:101D800050174FF4004040EA87205052E86950B1A4
:101D9000297848F2800034F8213003F040025B04D7
:101DA00003D41AB10DE050480BE052B1490040F69F
:101DB0000F7334F811201A4000F140031A4324F83D
:101DC000112000F5405043F60F712A7834F8223084
:101DD0001940484024F82200BDE8F081F05B43F050
:101DE0000C0120F4F840F053F05B40F40040F05355
:101DF000B4F850001044425A22F4F8424252425A77
:101E000042F40042425237E08080FFFFB4F8502095
:101E10002B781B0132440C33D0524DE0B4F85020E3
:101E20002B781B0132440433D05254E0C8064FEAE9
:101E300051184FF0FF3E2D4808BF0EEB511840EAF5
:101E40008820F05343F00C033E29B4F850000244BC
:101E500005D801F0010000EB510080020BE0CF0635
:101E60004FF0FF304FEA511708BF00EB51174FF406
:101E7000004040EA872098520CF54050A3E79F5A53
:101E800027F4F8479F529F5A47F4004713E09F5AA0
:101E900027F4F8479F529F5A47F400471AE0C606B6
:101EA0004FF0FF374FEA501608BF07EB50164FF4BC
:101EB000004747EA86279F526A890DE0C6064FF021
:101EC000FF374FEA501608BF07EB50164FF4004794
:101ED00047EA86279F522A8983B2204600F004FFF2
:101EE00008F13000E3E600BF8080FFFF0080FFFFC5
:101EF0002DE9F04F85B0DFF8ACADDAF80000B0F9AD
:101F00004410B1F1FF3F00F3E18540F60F77B0F9DF
:101F10004410B1F1FF3F00F3D985B0F8442012F02E
:101F20000F0839D030F828904FEA480B5FEA094192
:101F300040F1988130F81B1054463940803120F828
:101F40001B1008EB88010AEBC10A9AF874110AF514
:101F5000B475002900F092809AF86B11022940F0C4
:101F60009E80B0F8502029785FEA494302EBC10215
:101F700000EB420200F10181B2F80C64DAF88071E2
:101F80000AF5C0736FF39F26B74280F00A810022E2
:101F900040F60F771A6009E10188D20630D4394043
:101FA00001F500410180B0F850109AF8282001EBAB
:101FB000C20100EB4100B0F804046FF39F20CAF89F
:101FC0004400DAF83C100844CAF83C000020FEF750
:101FD00075FADAF840009AF82410002900F06483BA
:101FE000002840F06183DAF800009AF8241041F0EC
:101FF0008001C9B2A0F84C1000208AF8240053E3F5
:102000000A0565D4090440F14F83018839408031C5
:102010000180B0F850109AF8682101EBC20100F27B
:102020000C4232F811306FF39F23002BCAF8843131
:1020300014D0DAF87C1189B1BAF86E2100F038FEBC
:10204000DAF87C01DAF884110844CAF87C0100202F
:10205000FEF79AFADAF8000000F20C42B0F85010DD
:10206000DAF87831002B00F00D823E2B00F212825C
:1020700003F0010707EB53039B0216E2B0F8501080
:102080002A7801EBC20100EB4101B1F80C646FF357
:102090009F26002E00F0CC80BAF86E21C2E029788D
:1020A00048F2A003203330F821203A401A4320F8A8
:1020B000212030F82120B0F8503003EBC101520448
:1020C00000EB410168D4B1F80C646FF39F2685E002
:1020D000B0F850109AF8682101EBC20100EB410101
:1020E000B1F80C340AF52C716FF39F23CAF88431D0
:1020F000BAF86E2100F0DCFDDAF800000126018854
:10210000394080310180DAF8E8829AF8B02288F804
:10211000A82208F52A7C9AF8B14288F8A9429AF8D0
:10212000B2929AF8B35249EA0520A8F8AA029AF89E
:10213000B4129AF8B53241EA0327A8F8AC72BAF89B
:10214000B632C8E9A56302F01F06A8F8AE32022E27
:1021500000F06881012E00F07181002E40F08C812A
:1021600012F0600100F0DD81402940F60F7700F0A9
:102170000082202940F0A981FBE1B2F80464DAF87A
:1021800080710AF5C0736FF39F26B7422AD20022EE
:1021900040F60F771A602AE0B1F804646FF39F26C7
:1021A0003DE0BA1B40F60F771A600BD130F82120C2
:1021B00043F60F731A4048F2A00303F5FF535A4049
:1021C00020F821205FEA496208D430F8212048F243
:1021D000A00320333A401A4320F8212046B3BAF82E
:1021E00072211FE0BA1B40F60F771A600BD130F84E
:1021F000212043F60F731A4048F2A00303F5FF5362
:102200005A4020F821205FEA496208D530F82120A1
:1022100048F2A00320333A401A4320F821203EB16F
:10222000BAF87021DAF87C11334600F041FD00E085
:1022300000260AF5BE7207CA002932443044CAF8A3
:102240008421CAF87C0103D0DAF87801B04204D9BD
:102250002878FEF799F9A24604E020682946A246AC
:10226000FFF7E0FB5FEA096040F11E82DAF8000048
:1022700030F81B10394001F5004120F81B1008EB25
:1022800088010AEBC1045FEAC95104F128051BD596
:1022900094F82B10022917D1B0F850102A785FEA71
:1022A000496301EBC20100EB41012AD42346B1F896
:1022B0000C6453F8407F6FF39F26B74263D200202F
:1022C00040F60F7718608FE0B0F850202978234649
:1022D00053F8407F02EBC10200EB4202B2F8042443
:1022E0006FF39F22974246D9BF1A1F6045D0E16B1A
:1022F000636C1144E163991861642946FFF792FB0E
:102300003EE02346B1F8046453F8407F6FF39F2604
:10231000B74270D9B91B40F60F7719606FD05FEAEA
:10232000494107D530F822104CF280033940194357
:1023300020F82210A14619F84C1F012940F0A6816F
:10234000274657F848CF57E9048157F804EC314441
:10235000C4450EEB060347F80C1C47F8043C80F01C
:10236000B8804FF0000EBCF1000F89F800E040F09B
:10237000B380B446B2E0002018600846FEF79EF82D
:1023800040F60F7790E1B91B40F60F7719602BD01C
:102390005FEA494107D430F822104CF280033940FB
:1023A000194320F82210A14619F84C1F012940F0CA
:1023B0006D81234653F848EF53E904C153F8048C68
:1023C0003144E64508EB060743F80C1C43F8047C4F
:1023D00080F0A380BEF1000F00F0F8800027F446E3
:1023E0001F6089F80070F5E01046FEF767F85FEAB5
:1023F00049400BD54AE1002040F60F77186010469F
:10240000FEF75CF85FEA494040F140812878DAF84D
:1024100000104CF2800331F820203A401A4321F892
:10242000202033E112F0600200F09F80402A40F645
:102430000F7700F09E80202A47D19AE012F06000CA
:1024400040F60F7718BF40283DD198F89C0201381C
:1024500002283AD811F0FE0F37D1D8F8B4026146FD
:10246000826840469047002840F01E81B8F8AE02CE
:10247000002800F02F8117E102F080014046FFF7AD
:1024800073F97DE78B5AD94C23F4F8438B528B5A5E
:1024900023430CE0DF064FF0FF364FEA531708BF27
:1024A00006EB5317D14B43EA872340F60F778B5245
:1024B00043F60F72018811404CF28002A2F580525F
:1024C00051400180F0E02028BFD04046FEF77EFE5C
:1024D000EAE0ACEB080EC446C7F800E094F82930F7
:1024E00040F60F77012B4BD0002B40F0B880120143
:1024F000B0F85070BCF1000F02F10402024402F582
:10250000806200F08C80BCF13E0F00F298800CF0ED
:10251000010303EB5C039B029EE0AEEB0C071F6024
:1025200058E0092C00F23481DFE814F00A00C20000
:102530003201CD003201D800080132011C012B010B
:1025400098F89C020138022800F22281022B40F602
:102550000F77BAD1D8F8A402414600284FF0030003
:1025600008BF012041F80C0F1BE2202A40F60F772C
:102570000FD1D8F8B402614682684046904793E094
:102580001201B0F85030043202441A44A2F800C4D8
:1025900065E0002C00F00081012C00F01381032C79
:1025A0007FF493AF98F89C22032A40F00F81002813
:1025B00040F0908041F08000802800F08B80002B5C
:1025C00040F088804046FFF7CFF883E00023B44610
:1025D00089F8003094F8293040F60F77012B15D098
:1025E000002B4ED11201B0F85070BCF1000F02F177
:1025F0000C02024402F5806219D0BCF13E0F30D8C3
:102600000CF0010303EB5C039B0237E01201B0F80E
:1026100050300C3202441A44A2F800C431E0BB5AD4
:1026200023F4F843BB52BB5A43F4004314E0BB5AB3
:1026300023F4F843BB52BB5A43F400431EE05FEA65
:10264000CC634FF0FF364FEA5C1308BF06EB5C1318
:102650004FF4004646EA8323BB5240F60F77228EA2
:1026600010E05FEACC634FF0FF364FEA5C1308BF1F
:1026700006EB5C134FF4004646EA8323BB5240F658
:102680000F77628E1FFA8CF300F02EFB2878DAF8B1
:10269000001040F63F7331F820201A4048F2A003A2
:1026A00010335A4021F82020DAF80000FFF72FBC41
:1026B00098F89C12013902296AD8012840F60F7750
:1026C000F2D1002004E0012840F60F77ECD1012080
:1026D000C8F8A4024046FEF791FDE5E747EA03018A
:1026E000090455D17F2853D898F89C0240F60F77FB
:1026F00003283FF4EAAE09F07F0488F89E42D8F838
:10270000C00290F8A81201290ED0002C4FF0010150
:1027100080F8244080F8A81203D101688022A1F833
:102720004C20002180F8A8124046FEF767FD002CDF
:102730000CBF0120022088F89C02B5E70020ADF80C
:102740000400681E062823D8DFE800F004A5B222A2
:1027500022C1CD00D8F8B01298F810000A6801A97B
:102760009047BEE0012B13D198F89C0240F60F77FA
:10277000411E022980F087804146002041F8080F61
:1027800086E0DFF82405B9F1020F80F800902FD31E
:102790004046FEF71BFDF3E598F89C0203283DD068
:1027A00002287FF492AE002900F0F18080297FF4A6
:1027B0008CAE01F07F0000EB800008EB800000F1A0
:1027C0001401ECE098F89C22032A3FD0022A7FF4FF
:1027D0007CAE41F0800080283FF477AE4046FEF7A3
:1027E000C3FF40468021FEF7BFFF5DE70080FFFF8B
:1027F00098F89C0240F60F77032800F09680022894
:1028000040F0AC80B9F1000F3FF464AF03204946BB
:1028100088F89C024046C8F8049099E001F00F0245
:1028200011F0800002EB820208EB820240F09E80F1
:10283000D2F85821002A3FF448AE01F07F0202EBA3
:10284000820208EB820202F5AA729AE000287FF465
:102850002BAF48063FF43EAFD8F8C00201F00F029C
:1028600043689A423FF636AF01F00703090600F1CC
:10287000DC8003EB8301002200EBC10181F86921B8
:1028800001F5B471DAE003287FF41FAE08F104010A
:10289000404601229DE098F81010D8F8B4020029B3
:1028A0000CBF816AC16A01A888470146022026E060
:1028B000B9F1050F3FF66CAF40F60F77DFE809F08E
:1028C00003999DA1A5A9D8F8B0024268A4E098F8A0
:1028D000100000287FF45CAFD8F8B402416B01A867
:1028E000884701460CE098F8100000287FF450AFAC
:1028F000D8F8B402016B01A8884701460720487048
:1029000040F60F77BDF8040000283FF4AFADB8F8EB
:10291000AE22002A3FF4DEAE904238BF0246404667
:10292000ADF80420FEF75DFCA0E5B9F1000F53D02F
:10293000D8F8040048453FF4CDAED8F8B4124A6840
:10294000C1B240469047D84801784046C8F80410C4
:10295000FFF75BF802283FF4B8ADBBE64046FEF750
:1029600035FCD8F8B4024946426806E69269002A66
:102970003FF4ABAD01F07F0202EB820208EB820272
:10298000143241F08003802B0DD100201DE001F0B6
:102990007F0000EB800008EB800000F5AA710020AA
:1029A0000860404614E001F07F01D8F8C0320028EA
:1029B00001EB810103EBC10101F12A0308BF01F51D
:1029C000B57318780028E0D0012010604046114609
:1029D0000222FEF706FC67E600204946C8F804001C
:1029E000022088F89C02D8F8B4024268404690471A
:1029F00070E6D8F8B00282680EE0D8F8B002C2687B
:102A00000AE0D8F8B002026906E0D8F8B0024269DC
:102A100002E0D8F8B0028269002A3FF456AD98F877
:102A2000100001A9904701466CE703EB83010122E6
:102A300000EBC10181F82920283100228A700B7037
:102A400090F8A822012A3FF445AE012280F8A8227E
:102A50000A7BBABB02684E7840F60F7532F82370D5
:102A60005B00BEB17F0608D532F8137048F2A006AD
:102A700020362F40374322F81370C97840F60F777D
:102A800001291FD032F8131040F63F77394048F241
:102A9000A00712E0790407D532F813104CF2800732
:102AA0002940394322F8131032F8131043F60F77F8
:102AB00039404CF28007A7F58057794040F60F77F0
:102AC00022F81310002180F8A81203E6B0F8441091
:102AD00049053ED5B0F844100125002240230026C8
:102AE000402721F48061A0F844100021DAF8E84280
:102AF00020462574FEF7E0FC20468021002240237A
:102B0000C4F86471C4F85851FEF7D6FC84F89C529E
:102B10006762A561C4F89462C4F8A4626660D4F8E0
:102B2000B80228B1D4F8B402002142682046904788
:102B30009AF8A802012802D1DAF8000009E0002181
:102B400080228AF82410DAF80000A0F84C208AF8D5
:102B5000A812B0F84410490442BFB0F8441021F460
:102B60008041A0F84410B0F84410890442BFB0F886
:102B7000441021F40051A0F84410B0F84410C904E6
:102B80001BD5B0F8401021F00401A0F84010B0F8B7
:102B9000401021F00801A0F84010DAF8E81291F88E
:102BA0009C22042A04BF91F89D2281F89C22B0F84F
:102BB000441021F48051A0F84410B0F844100905E5
:102BC0004BD5002201A904E030F8223021F8123060
:102BD0000132082AF8D1B0F8402042F00102A0F8F2
:102BE0004020B0F8402022F00102A0F84020B0F8C8
:102BF00044205205FBD5B0F8442022F48062A0F8AE
:102C00004420002204E031F8123020F82230013252
:102C1000082AF8D1B0F8401041F00801A0F840109F
:102C2000B0F8441021F40061A0F84410B0F840104E
:102C300041F00401A0F84010DAF8E81291F89C2263
:102C400081F89D22042281F89C22DAF8181021B123
:102C500016490A6842F006020A60B0F84410890575
:102C600013D5B0F8441021F40071A0F84410DAF83C
:102C7000E81291F89C22032A07D1D1F8B422D26934
:102C80001AB108469047DAF80000B0F84410C905B8
:102C900042BFB0F8441021F48071A0F8441005B090
:102CA000BDE8F08F880800205001002010ED00E002
:102CB0004FF0000C00EB420000F58062ACEB530CCF
:102CC000481C08E032F8041B0CF1010C00F8011C50
:102CD000090A01700230BCF1000FF3D1D9071CBF03
:102CE000118800F8011C704700EB420003F1010C51
:102CF0000023A3EB5C0300F5806004E031F8022BB5
:102D0000013320F8042B002BF8D17047FEE70000B8
:102D100084B0CB4CCB4A4FF6FF012068904640F080
:102D20001000206050680840C749084350600020E8
:102D3000FDF776FBC54D0222686940F0010068612D
:102D4000686900F0010000900098A86940F0805088
:102D5000A861A86900F0805000900098BC48016804
:102D600062F31A610160286800F00C00042802D1A7
:102D700055F8040C19E0286800F00C00082802D16E
:102D80002868C003F4D455F8040C40F4803045F8AA
:102D9000040CDFF8B403016855F8042C920304D442
:102DA0000268521A642AF7D929E0286800F00C005A
:102DB000082801D1286822E0E44900200860E248A0
:102DC000026855F8043C9B0104D503689B1A022B4A
:102DD000F7D914E02A6822F400322A602A6822F423
:102DE000741202F5E8122A6001220A60016855F89F
:102DF000042C920103D40268521A022AF7D92068DF
:102E000010F0060F09D12068022161F30200206052
:102E1000206800F0070002285CD1286840F4E060D8
:102E20002860286840F460502860286820F0F0008E
:102E3000286055F8040C80014CD52868022141F225
:102E4000883261F301002860BF4801682B6803F0F5
:102E50000C03082B04D003685B1A9342F6D939E0BF
:102E6000206800F00700032809D32068022161F3DD
:102E700002002060206800F0070002282AD128689C
:102E8000042161F30A202860286820F4605028603B
:102E9000AF48296801F00C02082A10D1C1F383421F
:102EA000ACA3C9039A5C02D4AF48504307E0296839
:102EB0005043ACA2C1F34041515CB0FBF1F0296832
:102EC000AAA2C1F30311515CC840AC490861C868AB
:102ED000FDF7A6FA2868AA4CAA460226012720F484
:102EE00080002860686940F010006861686900F03F
:102EF000100000900098686940F0200068616869DF
:102F000000F0200000900098686940F004006861BB
:102F100068696D46294600F00400009000984FF063
:102F20000050C4F810084FF400500396CDE9017723
:102F3000009004F50060FDF7A3F90020CDE90276CA
:102F40002946CDE900702046FDF79AF98D4D286895
:102F5000013001280BD868680130012807D8A8681B
:102F60000130012803D8E868013002280AD3A0689C
:102F7000C00740F0D680C820FDF776F9A068C007EA
:102F800040F0CF80DFF80082D8F8B40210B1002002
:102F9000C8F8B4027D4F7E48784D4FF001090026F5
:102FA0000222082188F89C9288F80060C7F8E8821D
:102FB000C8F8C072C7E906663E6287E8070005F1F7
:102FC0001402C8F8B02297F8A922BAB987F8A86203
:102FD0000021DAF8180040F40000CAF81800DAF806
:102FE000180000F40000009000981420FDF73EFA4D
:102FF00068484FF480110160D7E90001032244F2D0
:10300000FF03844687F8A922B0F840201A40A0F8B0
:10301000402000220EE003EB830007EBC000C386D4
:1030200080F8282080F82990C0E90E66066480F8B0
:103030002B600132D3B29942EDD80022002318E070
:103040000020024008ED00E00003FA0504100240F1
:103050000400014006EB860007EBC000C0E95E22D9
:10306000C0F8802180F86B2180F8683180F86921F0
:103070000133DEB2B142EDD8012000211822ACF8B4
:103080004000ACF84010ACF84410ACF8501087F891
:10309000241087F8A902D8F8C002A0F86E2158229F
:1030A00080F8741180F8341080F85C10C285982282
:1030B00080F89C11A0F85620D822A0F8962105F19E
:1030C0003002C8F8BC22344AC8F8B42290F8A822CA
:1030D000012A08D002684FF43F43A2F84410A2F836
:1030E000403080F8A8124FF000564FF4005728786F
:1030F000FF2806D0FA2807D00028F8D1C4F81078A5
:10310000F5E7C4F81068F2E7C4F810682878FDF70E
:10311000ABF8C4F81078287800EB4000FDF7A4F86D
:10312000E5E768684FF0FF310022CAF80810CAF8D6
:103130000C20CAF80810CAF80820296881F308880A
:10314000C8F800508047FEE7280100206000424296
:1031500000127A0002030405060708090A0B0C0D89
:103160000E0F10100102000000093D0000000000D9
:103170000000000001020304060708090000002007
:103180000008014000400008C40500208808002015
:10319000005C004000E100E06800002002E008C898
:1031A000121F08C1002AFAD170477047002001E0C1
:1031B00001C1121F002AFBD170470000EBFE904DA9
:1031C00053444F53352E300002017C1102000000A1
:1031D00000F800003F00FF003F000000C1C00300F6
:1031E000420700000000000002000000010006008D
:1031F000000000000000000000000000800029B076
:103200004990024E4F204E414D45202020204641FE
:10321000543332202020008002021F00000053544B
:103220004D202020202050726F6475637420202070
:10323000202020202020302E303100006032000875
:1032400000000020280100009C310008883300089D
:1032500028010020500E0000AC31000800000000E2
:10326000FA0000000006400000C641001000000007
:103270000024F400251200084D120008591200081D
:1032800079120008991200080D1200083112000886
:10329000190D0008050D00081D0D0008210D00087E
:1032A000250D0008590F0008150D000816320008FA
:1032B0001201000200000040830445570002010291
:1032C00003010000040309049118000835180008E0
:1032D000ED180008000000000000000021180008A0
:1032E0002B18000800000000000000000000000093
:1032F000791800086D180008851800086118000882
:1033000009022000010104C032090400000208067D
:10331000500507058102400000070501024000003A
:1033200009022000010104C032090400000208065D
:103330005005070581020002000705010200020096
:103340000A060002000000400100000009072000FA
:10335000010104C0320904000002080650050705F7
:103360008102400000070501024000001A0300002E
:10337000000000000000000000000000000000004D
:08338000000000000000000045
:04000005080000ED02
:00000001FF
