:020000040800F2
:10000000782E0020F5010008BB0F0008390D00080C
:10001000B90F000895030008F32F00080000000046
:100020000000000000000000000000004D23000858
:100030009703000800000000691800085123000819
:100040000F0200080F0200080F0200080F0200084C
:100050000F0200080F0200080F0200080F0200083C
:100060000F0200080F0200080F0200080F0200082C
:100070000F0200080F0200080F0200080F0200081C
:100080000F0200080F0200080F0200080F0200080C
:100090000F0200080F0200080F0200080F020008FC
:1000A0000F0200080F0200080F0200080F020008EC
:1000B0000F0200080F0200080F0200080F020008DC
:1000C0000F0200080F0200080F0200080F020008CC
:1000D0000F0200080F0200080F0200080F020008BC
:1000E0000F0200080F0200080F0200080F020008AC
:1000F0000F0200080F0200080F0200080F0200089C
:100100000F0200080F0200080F0200080F0200088B
:100110000F0200080F0200080F0200080F0200087B
:100120000F0200080F0200080F0200080F0200086B
:100130000F020008000000000000000000000000A6
:100140000000000000000000000000000F02000896
:100150000F0200080F0200080F0200080F0200083B
:100160000F0200080F0200080F0200080F0200082B
:100170000F020008BD0F0008000000000000000092
:100180000F0200080F0200080F0200080F0200080B
:100190000F0200080F020008000000000F02000814
:1001A0000000000000000000000000000F02000836
:1001B0000F0200080F02000800000000000000000D
:1001C000000000000000000000000000000000002F
:1001D0000000000000000000000000000F02000806
:1001E000DFF80CD000F068F800480047F52F000851
:1001F000782E00200648804706480047FEE7FEE7C5
:10020000FEE7FEE7FEE7FEE7FEE7FEE7FEE7FEE7C6
:1002100089250008E101000830B5044600200346A6
:1002200000E05B1C934203D2E05CCD5C401BF8D045
:1002300030BD2DE9F05F0546002092469B4688467A
:100240000646814640241BE0284641464746224652
:1002500000F053F853465A46C01A914110D3114644
:100260001846224600F03AF82D1A67EB01084F466F
:1002700022460120002100F031F817EB00094E4121
:10028000201EA4F10104DFDC484631462A464346DD
:10029000BDE8F09F40EA01039B0703D009E008C9CD
:1002A000121F08C0042AFAD203E011F8013B00F83B
:1002B000013B521EF9D27047064C074D06E0E0683C
:1002C00040F0010394E8070098471034AC42F6D39D
:1002D000FFF78AFFA8370008C8370008202A04DB88
:1002E000203A00FA02F1002070479140C2F1200349
:1002F00020FA03F3194390407047202A04DB203A88
:1003000021FA02F00021704721FA02F3D040C2F135
:1003100020029140084319467047D2B201E000F82C
:10032000012B491EFBD270470022F6E710B5134699
:100330000A4604461946FFF7F0FF204610BD70B587
:100340008C1810F8015B15F0070301D110F8013B80
:100350002A1106D110F8012B03E010F8016B01F807
:10036000016B5B1EF9D12B0705D40023521E0DD45F
:1003700001F8013BFAE710F8013BCB1A921C03E0AD
:1003800013F8015B01F8015B521EF9D5A142D8D3E5
:10039000002070BDFEE7704710B52A4900224CF2DC
:1003A0005033224CCA610A682068C00305D508682A
:1003B000801A9842F8D9032010BD2068226810F4F2
:1003C000F97F2DD0900703D5C86940F02000C8619F
:1003D0002068C00603D5C86940F01000C8612068D5
:1003E000800603D5C86940F00800C861206840064F
:1003F00003D5C86940F00400C8612068000603D531
:10040000C86940F00200C8612068C00503D5C8690A
:1004100040F04000C8614FF4F9702060012010BD29
:10042000D00701D001202060002010BD0C3C02400C
:100430000449421C0B6808BF02460868C01A904273
:10044000FBD37047800100202DE9FC4F614A08274B
:10045000614CA0424FF0000B4FF0010A4FF0000C2E
:100460004FF00005024408BF07274FEAB223072BCD
:1004700038BF4FEAB2270097A0E00AFA05F70A68EA
:100480003A4200F096804A68122A1CD80AFA02F30F
:1004900013F0061F17D0032683684FEA450906FAB2
:1004A0000CF8CE6823EA080306FA0CF6334383609F
:1004B0004368C2F3001EBB430EFA05F46FEA080E50
:1004C0001C43446005E00323E14603FA0CF36FEAA2
:1004D000030EC4688E6804EA0E0406FA09F6264381
:1004E00042F01004122CC66010D16FF003020BF022
:1004F0001C060F2302EA5502B3400244146A24EAA0
:1005000003030C69B440234313624A6802F00306F4
:100510000368D20003EA0E0306FA09F643EA06036B
:10052000036046D5284A13462C4CA046126842F474
:1005300080421A601A6825F0030302F48042019297
:10054000234A96461A44019B16590BF00C030F24BC
:100550009C40A643009C04FA03F3334342F808305E
:10056000DEF800204B6842EA0706DC0358BF22EAA7
:100570000706CEF800609C03DEF8042042EA070676
:1005800058BF22EA0706CEF80460DC02DEF8082035
:1005900042EA070658BF22EA07060C4ACEF808606E
:1005A00014469B02126842EA070658BF22EA070671
:1005B000266001350CF1020C0BF1040B102D7FF4B9
:1005C0005CAFBDE8FC8F00BF443802400C3C0140EA
:1005D000003C01400000FEBF001C024008FCFFFF81
:1005E000B0B50F4D4FF47A722969B1FBF2F14A1E92
:1005F0000021B1EB126F11D104460A4842600A4A49
:10060000F02313700F2C4FF007028160026005D8B1
:100610004FF0FF30214600F009F8EC60B0BD00BF9C
:100620000800002010E000E023ED00E0B0B5124D1E
:100630002B684FF0FF34C3F3022383F00702042A30
:1006400028BF042204FA02F2033B21EA020100F06F
:100650000F0238BF0023B0F1FF3FA2F1040201FAFC
:1006600003F1064B2A444FEA011102F10C02C8BF04
:10067000C2181170B0BD00BF0CED00E000E400E056
:1006800001281FD0B8BB10B54E4C206A30B101F024
:1006900065FE1948016821F0060101602068D0F864
:1006A000001E21F00101C0F8001ED4F8000490F8EB
:1006B0009C120429BDE810401DD190F89D1280F8CD
:1006C0009C1270473F4804230168D1F8002E42F085
:1006D0000102C1F8002ED0F80014006A91F89C22A3
:1006E000002881F89C3281F89D2204D002480168DC
:1006F00041F006010160704710ED00E0314A00282A
:10070000D2F800C0DCF8242019D080B5DCF82830FD
:10071000A0F1010E02EB1343002206E00CEB800077
:100720000132D0F8040103EB1043D0B28645F5D86E
:1007300043EA01400CEB8E01C1F8040180BD42EA9E
:100740000140CCF82800704710B501461D4800292B
:10075000D0F800440BD0D4F8B80282690AB394F8F8
:100760009C0203281DD12046BDE810401047D4F854
:100770009422032A15D1D4E957239A4212D9C1EB06
:10078000C10100EB8101D01A984238BF0346D1F86D
:100790000822C4F85C0100212046BDE8104002F0A8
:1007A000EFB810BDD4F8B802016929B194F89C02E1
:1007B000032801D1204688472046BDE8104001F0BB
:1007C0000FBF00BF740600202DE9FC47DFF860254D
:1007D000012092F8C473D2F800A40AF2AA288AF879
:1007E000AA7207F01F0492F8C533022C8AF8AB32C4
:1007F00092F8C69392F8C76349EA062CAAF8ACC2ED
:1008000092F8C81392F8C95341EA0525AAF8AE52E6
:10081000B2F8CA23CAF89402AAF8B022CAF89822F9
:100820000AD0012C19D0B4BB17F060013DD040298B
:1008300018BF202908D074E117F0600758D0402F66
:1008400002D0202F40F06D81DAF8B802414682686C
:10085000504602B0BDE8F047104717F0600018BFDF
:1008600040281FD19AF89C020138022800F25981D1
:1008700011F0FE0F40F05581DAF8B8024146826867
:1008800050469047002840F0DC81BAF8B0020028BA
:1008900000F00882D5E107F080015046BDE8FC4732
:1008A00002F096B82028DDD03BE1092B00F2398117
:1008B000DFE813F00A0055003701610037016900D5
:1008C0009E003701BC00C8009AF89C02013802283B
:1008D00000F22781022A40F02481DAF8A4020322E0
:1008E0005146002808BF012241F80C2F022228E1BE
:1008F00063B1012B21D0032B40F013819AF89C3275
:10090000032B00F0C480022B1FD00AE19AF89C024E
:10091000032800F0CC80022840F00381002900F079
:100920000581802940F0FD8001F07F0000EB800010
:100930000AEB800000F1140100E19AF89C22032ADE
:1009400000F0CA80022A40F0EC8041F0800080284C
:1009500000F0E780504602F03BF880219DE79AF8CE
:100960009C020138022800F2DC80BCF1010F40F04B
:100970006881002004E0BCF1010F40F06281012099
:10098000CAF8A4028EE145EA0200000440F0C980E2
:10099000BCF17F0F00F2C5809AF89C02032800F09A
:1009A000C080DAF8C40209F07F0590F8BC138AF819
:1009B0009E52012911D080F838500168D1F80028E2
:1009C00022F4FE62C1F80028D1F8002842EA05129C
:1009D000C1F80028002180F8BC13504601F000FE49
:1009E000002D00F04C8102208AF89C02BDE8FC87B3
:1009F000701E00210E28ADF8061000F21A81DFE803
:100A000010F00F00CE00DB0018011801E700F10024
:100A10001801180118011801180118011801FE0029
:100A2000DAF8B4129AF810000A68EEE0012A78D1D8
:100A30009AF89C02411E02296DD20020514641F8CD
:100A4000080F6CE0AC4DB9F1020F85F8009068D248
:100A50009AF89C02032876D0022840F09580B9F1DC
:100A6000000F00F01F81DAF8B802CAF804900028DD
:100A700057D00268504649469047002851D1504609
:100A800001F0AEFD03208AF89C02BDE8FC87BCF1B2
:100A9000000F40F0078141F08000802800F00281C3
:100AA000002A40F0FF80504601F092FFFAE001F08A
:100AB0000F0211F0800002EB82020AEB820219D1D0
:100AC000B2F864216AB301F07F0202EB82020AEB02
:100AD000820202F5AA7317E0BCF1000F18BFBDE84F
:100AE000FC87480602D0504601F016FE504601F041
:100AF00077FDA9E6928CA2B101F07F0202EB82029F
:100B00000AEB820202F1140341F08002802A40F0D5
:100B10009A800020AAE0032803D10AF104010122EF
:100B20000FE05046BDE8FC4701F042BD01F07F00F8
:100B300000EB80000AEB800000F5AA710020022281
:100B40000860504696E0B9F1000F00F09D80DAF899
:100B50000400484500F0A680DAF8B812002900F039
:100B6000A6804A68C1B2504690472978DAF8B802A0
:100B70000028CAF8041000F09C8002685046904794
:100B8000002840F096808DE0504601F011FDDAF823
:100B9000B802002855D042685046494659E69AF8AE
:100BA00010000028DAF8B8020CBF816AC16A0DF1A2
:100BB0000600884702221FE0B9F1050F39D8DFE8A7
:100BC00009F003868A8E9296DAF8B402426819E038
:100BD0009AF8100068BBDAF8B802416B0DF1060014
:100BE000884715E09AF8100018BBDAF8B802016BD4
:100BF0000DF10600884707220146427009E0DAF845
:100C0000B402C269AAB19AF810000DF1060190472A
:100C10000146BAF8B0228AB1BDF8060048B1904248
:100C200038BF02465046ADF8062001F0CCFCBDE8C6
:100C3000FC87504601F0BCFCBDE8FC87504601F043
:100C4000CFFCBDE8FC8701F07F01DAF8C422002860
:100C5000C1EBC10102EB810101F13E0208BF01F5C8
:100C6000FF72107800283FF454AF01201860022270
:100C70005046194602B0BDE8F04701F0A4BC01207F
:100C80008AF89C02BDE8FC87DAF8B802022100224B
:100C900000288AF89C12CAF8042003D04268504603
:100CA000494690475046BDE8FC4701F099BCCAF858
:100CB0000490504601F07CFCDAF8B80200283FF4BA
:100CC00092AE9AF804104268504690478BE6DAF8E4
:100CD000B402826896E7DAF8B402C26892E7DAF8FA
:100CE000B40202698EE7DAF8B40242698AE7DAF8F8
:100CF000B402826986E700BFA00100200C48D0F84A
:100D0000001491F89C2281F89D22042281F89C22F3
:100D10000168D1F8002E42F00102C1F8002E006AED
:100D200020B10448016841F006010160704700BF2E
:100D30007406002010ED00E0FEE710B501314FF021
:100D4000370C4FF0000E10E00CEB1074030FB0F1F5
:100D5000204F4FEA0010A2F1010238BF03F1300426
:100D600001F8014C81F800E00231002AECD110BDFD
:100D7000B0B5D0F8BC52044695F81C0288B1812168
:100D8000204601F025FE687A022809D181212046FB
:100D900001F01EFE01212046BDE8B04001F018BE62
:100DA000B0BDD5F818020028E9D0687A0028E6D14D
:100DB0000121204601F00CFEE1E710B50446D0F811
:100DC000BC02407A022809D18121204601F000FEB0
:100DD00001212046BDE8104001F0FABD49B2B1F151
:100DE000FF3F07DC012805D001212046BDE8104067
:100DF00000F0C4B810BD10B50446D0F8BC02017AAA
:100E0000CA1E022A01D200210DE0022910D190F859
:100E10001D1200F21F22204600F03AFDB0F1FF3F04
:100E2000C8BF10BD01212046BDE8104000F0A6B8A3
:100E300010BD0000B0B5D0F8BC520446287A012895
:100E400026D078BBD5E98501D4F8C422C5F838127C
:100E5000D2F83022C5F834021F2A0DD1D5F810027D
:100E60002A49884208D195F81D12012904D895F81D
:100E70001E020138102816D305212022204600F03A
:100E8000F7FF022068722046BDE8B040FFF770BF50
:100E900095F81D1205F21F22204600F0F9FCB0F172
:100EA000FF3F2ADDB0BD05F21F22204600F0F0FC16
:100EB000297AB0F1FF3F1EDD481E0328F2D3E8680F
:100EC00008B3D4F8BCC205F11002DCF81832DCF823
:100ED0003812834228BF0346081A0021CCF8380292
:100EE00004208CF83C1281218CF808002046BDE8D3
:100EF000B04001F0C5BD0529C5D101212046BDE89E
:100F0000B04000F03BB80021F8E700BF5553424322
:100F1000B0B50446D0E9AF5000212981A5F8601290
:100F200085F862120168002088470121204601F0FF
:100F3000A3FC8121204601F09FFC05F504720121EC
:100F40001F232046BDE8B04001F01ABDB0B50446ED
:100F5000D0F8BC524FF4807081212881204601F0E6
:100F6000DBFB0121204601F0D7FB05F504720121CE
:100F70001F232046BDE8B04001F002BDB0B5D0F857
:100F8000BC5204460B480D23C5F83002002085F8FA
:100F90003C1205F50C7281212872204601F070FD8B
:100FA00005F5047201211F232046BDE8B04001F081
:100FB000E7BC00BF55534253FEE770472DE9F04FA1
:100FC00087B0DFF84CC8DCF80090D9F81400C007EF
:100FD00040F0D783D9F81400D9F81810014200F076
:100FE000D083D9F81400D9F818100840800705D527
:100FF000D9F8140000F00200C9F81400D9F8140060
:10100000D9F818100840C006484645D5D9F8180048
:1010100020F01000C9F81800D9F82050C5F343405B
:1010200005F00F0406281ED002282FD147F6F070D5
:1010300005402BD0C4EBC4002A090CEB80044846C1
:10104000D4F8081201F0B4FFD4F80802D4F814124E
:10105000DFF8BCC700EB1510C4F8080201EB15104F
:10106000C4F8140212E00CF571710822484601F030
:101070009FFFDFF89CC7C4EBC401C5F30A100CEB5B
:101080008101D1F814221044C1F81402DCF80000E8
:10109000816941F010018161416982691140090350
:1010A00040F1BA80D0F81818D0F81C080CF5057873
:1010B0004FF0000A4FF430640840050CDD488346C9
:1010C000A5E0E80700F09D80DCF8000021188A68A0
:1010D000D0F8143803EA0206F20756D009EB0402EE
:1010E00001239360036C8A68DCF81070012F22D111
:1010F00017072CD4970646D412F0280F45D15B452C
:101100005F4602D312F4004227D1096958E904234B
:101110006FF3DF41511AC8F80010991848F80C1CF9
:10112000DCF8101251EA0A0126D1DFF8E41601F5C5
:10113000717201211EE05F460BF1FF07BB420FD128
:1011400010040AD4900617D52020886014E05B456F
:1011500058461AD312F4004017D04FF4004013E061
:10116000DCF8101251EA0A0106D1DFF8A41601F5E5
:101170007172002101F016FE5FFA8AF0FFF7E4FABF
:10118000DFF88CC601E020208860300726D509EB07
:10119000040008215A468160ABF10102DCF800101E
:1011A0006018096C9142816814D9090402D54FF482
:1011B00000418160FFF708FBDFF854C6DCF810003F
:1011C00001280BD1DCF800000CF57172012101F04F
:1011D000E9FD01E0FFF7F8FADFF834C6F00603D5C1
:1011E00009EB040010218160B00603D509EB04006F
:1011F00020218160B00404D509EB04004FF40051B4
:1012000081600AF1010A6D08203408F11C08002DE4
:101210007FF457AFDCF8000041698269114049034F
:1012200040F14181D0F81818D0F81C0809F5106A6F
:101230004FF0000E0840CDE902A987B2002F00F060
:101240003081F80700F0C380DCF800000EF00F04D6
:101250004FEA4E16D0F81018D0F8342800EB4E1391
:10126000E240D201D2B21143D3F80829CDF818E0F8
:1012700001EA02085FEAC8713ED15FEA087003D54F
:101280000AEB0600082181605FEAC86003D50AEB1B
:101290000600102181605FEA4860059403D50AEBDF
:1012A0000600402181605FEA887003D50AEB0600E2
:1012B000022181605FEA086040F18980CEEBCE00B8
:1012C00033460CEB800B5C4654F8501F264656F80C
:1012D000040F81427BD35BF8442FA1EB000ADCF8BA
:1012E000008004970BF10409924588BF924603EBF6
:1012F000080202F5106551E00123D9F8342803FAF9
:1013000004F122EA0101C9F834180AEB06018B60E6
:10131000DCF8101001290AD1CEEBCE01BEF1000F8E
:101320000CEB8101D1E911231A448A6459D05FEA98
:101330000E60DCF800544ED0D5F8B8024269002A9D
:101340009BD095F89C02032897D15FFA8EF128462E
:101350009047DDF818E0DFF8B8C48EE7A1EB000A8B
:10136000DBF80000DFF8A8145FFA8EF282450F7CEC
:1013700088BF82461FFA8AF3D9F8001040460097CA
:1013800001F023FED9F800003168DDF818E0504480
:10139000C9F8000001EB0A0021683060AA690AF16F
:1013A000030392B2B2EB930F28BF8142D6D8049FB9
:1013B0008142DFF85CC4DDE902A908D80120059963
:1013C0008840D8F8341821EA0000C8F834080EF133
:1013D000010E7F0832E7CEEBCE000CEB80004830E8
:1013E0000FE0DCF8501041B90CF57172012101F0E9
:1013F000D9FCDDF818E0DFF818C40CF14800DCF87F
:101400000054D5F89412022942D1D5E907239A4213
:1014100012D90168D21A2846EA6101F0C3F8002106
:1014200000220023284601F0ABFADDF818E0DFF8CF
:10143000E0C32DE00B30544F0FD1A86990420CD37C
:10144000D5F89812884208D200210022284601F0DF
:10145000A9F80020C5F89802E1E7D5F8B802C168FC
:1014600029B195F89C02032801D12846884780219C
:10147000284601F0ADFA0520002100220023C5F81E
:101480009402284601F07CFADFF884C3DDF818E006
:1014900095F8A00201287FF4F0AE002085F8A002A4
:1014A000EBE6DCF80000416982691140B1F1FF3FD1
:1014B00022DCD9F8041821F00101C9F804189CF8BD
:1014C000F41301290AD100208CF8F4030020FFF75F
:1014D000D7F8DFF83CC3DCF8000009E0DCF80014C2
:1014E00091F89C22042A03D191F89D2281F89C2234
:1014F000416901F00041416141698269114009057A
:101500000DD5D9F80818C90705D0FFF7F7FBDFF8A4
:1015100000C3DCF80000416901F4006141614169E8
:1015200082691140090116D5416901F000614161EC
:101530009CF8F41311B1FFF7E1FB0AE001218CF8EC
:10154000F413406DC0F38300CCF8F8030120FFF7DB
:1015500097F8DFF8BCC2DCF80000416982691140ED
:10156000C90455D5D9F8041809F5006421F0010122
:10157000C9F80418102101F009FDA54E09F53060E5
:101580004FF67F33A34AA44D716813E083500139AD
:10159000475927F400174751475947F0006747510B
:1015A0008360076827F400170760076847F0006743
:1015B000076020300029E9D1E06940F00110E061C6
:1015C000306B40B1D4F8840040F00B00C4F88400C4
:1015D00004F1440006E0606942F22B0108436061B7
:1015E00004F11000016806F5717241F00B01016011
:1015F000206820F4FE602060317C306801F0D2FB6E
:10160000DFF80CC2DCF80000416901F4805141614F
:10161000416982691140890466D5D0F8001940F209
:10162000FF729143C0F80019D0F8041841F480719A
:10163000C0F80418D0F8081811F0060111D041F0D4
:10164000040106290FD1754A754B0221754C1269A8
:10165000CCF80C101344A34280F096804FF47052E3
:1016600006E0002100E00F21CCF80C104FF41052DE
:10167000C36800294FF0010523F47053C360C368A9
:1016800042EA0302C26018BF0121DCF800440020D6
:101690002174D4F8BC1284F89C52C4F8940260609F
:1016A000C4F8A40229B1D4F8B80200214268204647
:1016B00090470021002240232046402601F0FAF8FE
:1016C0008021002240232046A4F86451C4F86061C0
:1016D00001F0F0F8DFF838C1A5842662DCF80000DC
:1016E000416901F400514161416982691140090772
:1016F00013D5DCF8001491F89C22032A09D1D1F803
:10170000B822D2692AB108469047DFF804C1DCF854
:101710000000416901F0080141614169826911409D
:10172000C90203D5416901F48011416141698269AF
:101730001140890203D5416901F4001141614169F9
:1017400082691140490003D5416901F0804141613E
:10175000416982691140490713D5446861070DD575
:10176000DCF800240121D2F8B83282F89C122BB1A7
:1017700011795B681046654698472868416821439F
:10178000416007B0BDE8F08F2749284B11449942CA
:1017900002D24FF4605238E02549264B1144994259
:1017A00002D24FF4505230E02349244B1144994265
:1017B00002D24FF4405228E02149224B1144994271
:1017C00002D24FF4305220E01F49204B114499427D
:1017D00002D24FF4205218E01D491E4B1144994289
:1017E00002D24FF4105210E01B491C4B1144994295
:1017F00002D24FF4005208E019491A4B11444FF439
:10180000C052994238BF4FF4E052022130E700BF86
:101810007406002008FEFFFF00FEFFFF0800002006
:10182000405327FF00350C00401E1BFF40420F00B5
:1018300000DC0BFF804F1200808CF9FE20D61300D5
:1018400060B6E5FE60E3160000D3CEFE40771B00D5
:10185000C05BB3FEC091210000CA91FE2075380024
:10186000E05459FEE09C41007047D0F8BC3211446E
:10187000D3F86822914208D980B50521212200F0D1
:10188000F7FAFF20BDE8804000E0002040B270473A
:10189000FEB5154612780E460446A2F11A03102B27
:1018A00031D9AA2A00F00781032A00F01181122AF7
:1018B00000F03E812F2A00F054815A2A00F0618105
:1018C0009E2A00F06A81A82A00F09981002A2FD16F
:1018D000D4F8BC52D5F81802002840F0B38195F82E
:1018E0006202022807D0D4F8C002816830468847D7
:1018F000002800F0438102213A22204600F0B8FA85
:1019000005202872BBE1DFE803F0091D131334132F
:101910001313133F136D13139213B4002A79DFF8D6
:10192000641CD4F8BC022231172A28BF172230E1E8
:10193000052120222046D4F8BC5200F099FA02205A
:1019400068729CE1D4F8BC12287991F86222012ACD
:1019500004D100F00302022A00F07F8100F00302AC
:101960000020012A18BF032A09D0022A09D1022027
:1019700005E02879D4F8BC12002818BF012081F8AE
:1019800062020020C8607BE1D4E9AF50436801A93E
:101990000DF10A0230469847002840F06B8195F817
:1019A0006202022800F0668105F110000021002289
:1019B00001E0815401320C2AFBD101990820013940
:1019C000E874080EE9752875080C6875080A022184
:1019D000A875BDF80A002983010AE8760C20A976CB
:1019E000E860D8E0D4E9AF50436805F51A7105F511
:1019F000197230469847002840F03C8195F8620201
:101A0000022800F03781D5F868020138010EE87429
:101A10002974010C6974010A0020A974B5F86412D4
:101A2000A8820A0AE9750821AA75E96028E1D4F8B4
:101A3000BC72387A002840F0E68097F91C02002832
:101A400080F2008197F86202022800F01381D4F836
:101A5000C002816830468847002840F00B81D5F8E5
:101A6000020001BAC7F86C12E8792A7A42EA002229
:101A700023E1D4F8BC72387A18BBD7F818020028D2
:101A800000F0E08097F91C02B0F1FF3F40F3DA80EC
:101A9000D4F8C002816830468847002840F0EA80C8
:101AA000D4F8C002C16830468847002800F0188189
:101AB00002212722E0E0D4F8BC72387A002800F036
:101AC000AC802046314603B0BDE8F04000F082B95A
:101AD000D4F8BC02D0F81812002900F0B38000F14D
:101AE00010010022002301E0CA540133122BFBD164
:101AF00090F8601290F8613270220C270274C7755A
:101B000099420ED000EBC102013192F84032CFB2BF
:101B1000B2F8442283743B1F828318BF0B4680F8BF
:101B200060321221C1602979122934D8C16032E0B3
:101B3000D4F8BC02D0F81812002900F0838069782C
:101B4000C90740F08280D4F8C01206EBC602C9690A
:101B500001EB82012A790B7905339A4288BF1A4634
:101B600017E06878800778D4D4F8BC522046D5E9CD
:101B70009B12FFF77AFE0028C0F281800020E86007
:101B80007EE02A7A6F49D4F8BC0239311B2A28BF7B
:101B90001B2200F086F9002072E0D4E9AF704368A0
:101BA00007F51A7107F5197230469847002861D178
:101BB00097F8620202285DD0D5F80A0000210022C1
:101BC00000BAF86002E03B4401321974D3B2984283
:101BD000F9D8D7F868020138010EF8753975010C8B
:101BE0007975010A0020B975B7F8641238830A0ABA
:101BF000F976BA76D5F80A1009BAF96040E0D4F857
:101C0000BC72387AD0B14FF400703146F86020468B
:101C100003B0BDE8F04000F097B8D7F8180288B1DB
:101C200097F91C02B0F1FF3F0CDDD4F8C0028168C7
:101C30003046884758B302213A2230E097F91C0217
:101C400000280DDB0521202216E0A97880291AD072
:101C500019B93C49062214319BE7052124220BE0E7
:101C600097F86202022805D0D4F8C0028168304695
:101C70008847D0B102213A22204600F0F9F8FF202F
:101C800040B203B0F0BD2F4908221A3181E7D4F8E1
:101C9000C002C1683046884760B30221272220462F
:101CA00000F0E6F805203872E9E7D5F8020001BA3D
:101CB000C7F86C12D5F8060002BA2046C7F87022A1
:101CC000FFF7D3FD0028DADBB7F86402D7F870120B
:101CD0004843D7F818128142B4D10220387292E7F3
:101CE000D5F8020001BAC7F86C12E8792A7A42EAFC
:101CF000002207E0D5F8020001BAC7F86C12D5F847
:101D0000060002BA2046C7F87022FFF7AEFD002891
:101D1000B5DBB7F86402D7F8701201FB00F3D7F80F
:101D2000180298427FF48EAF0120B3F5007F28BFE0
:101D30004FF4007307F1100201213872204600F0C1
:101D40001FFE28E7080000202DE9F843D0F8BC72F8
:101D50008146B7F86402D7F8702202FB00F4B4F5AC
:101D6000007F28BF4FF400741FFA84F8D9F8C062CE
:101D7000D7F86C22356907F11006B8FBF0F3084676
:101D80003146A847B0F1FF3F1ADD8121484632466F
:101D9000234600F075FEB7F86402D7F83812D7E989
:101DA0009B23B8FBF0F00244181AC7E99B20A1EB73
:101DB0000400C7F8380204BF03203872002005E091
:101DC00004211122484600F053F8FF2040B201B030
:101DD000BDE8F0832DE9F843D0F8BC628146B6F83F
:101DE0006402D6F8702206F1100802FB00F7B7F57E
:101DF000007F28BF4FF40077BDB2D9F8C042D6F8B3
:101E00006C226469B5FBF0F308464146A047B0F187
:101E1000FF3F1DDDB6F86402D6F83822D21BB5FBB1
:101E2000F0F1D6E99B350B44691AC6E99B31C6F837
:101E3000382214D001FB00F3012148464246B3F595
:101E4000007F28BF4FF4007300F09AFD00250BE0DF
:101E500004210322484600F00BF8FF2504E000218E
:101E600048460025FFF78AF868B201B0BDE8F08364
:101E700080B5D0F8BC0290F861C200EBCC030CF145
:101E8000010C5FFA8CFE83F84012002183F8442293
:101E900083F84512BEF1040218BF624680F8612241
:101EA00080BDC26007E0013A93B211F803C010FA96
:101EB00082F383F810C0002AF5D170474FF48030C8
:101EC0004FF40073086000201380704700207047B3
:101ED0000020704700207047002070472DE9F84F20
:101EE0001E4655024FF0000801244AF655290F46B8
:101EF0007A4B4FF0000B4FF0000AB24500F0DE8045
:101F0000680A08283AD804FA00F010F0410F1ED1F0
:101F100010F0820F06D110F4827F2FD04FF4FF71A2
:101F200038461DE0381D4FF4FD71FEF7FDF9654898
:101F300038606A4BA7F8FE916348C7F8E40163482C
:101F4000C7F8E80140F60500C7F8EC010DE05A2299
:101F500038465F49FEF79EF907F15A004FF4D271F7
:101F6000FEF7E2F95D4BA7F8FE9115F5007507F550
:101F700000770AF1010A4BF1000BBEE755482844EF
:101F8000B0F5085F42D354492944490A10293DD984
:101F9000B5F5800F57D107F140004FF4E071FEF71F
:101FA000C3F90B2238464FA1FEF774F908204FF011
:101FB00000090B224EA1F87245F29C00C7F814905C
:101FC000C7F81090C7F80C90C7F81C90B86107F1DB
:101FD0002000FEF75FF94FF4C15045F29C0187F8ED
:101FE0002D903E4B4FF000084AF655290124A7F8E2
:101FF0002B004248C7F82E00C7F83600C7F8321049
:10200000052078874FF4F820F863AEE73C498D420D
:102010004FEA90002DD03B4940F001008D423DD168
:10202000002103E0421847F8212001310429F9D1A9
:102030006FF070403861052002E047F820800130E1
:102040008028FAD191E75868A84230D89968A94207
:102050002DD9281A4FF4F82200F50071B1F5F82FA8
:1020600028BF11460A1A1E4901443846FEF712F9E4
:1020700022E02549396040F001004FF0FF317960DE
:102080006FF07041C7E902113961052103E0421880
:1020900047F8212001318029F9D166E7002103E0CA
:1020A000421847F8212001318029F9D15DE74FF42A
:1020B00000713846FEF738F9084B56E7002001B0AA
:1020C000BDE8F08F5252614172724161BE980300C7
:1020D000283700080008DDFF0084CEFF080000203C
:1020E00000400008594142204469736B20202000C1
:1020F000463732335F41505042494E0000009C50F9
:1021000000F8220000182300F8FFFF0F2DE9F04F20
:1021100087B086480E46550200EB42294FF0000A70
:102120000FF22028DFF808B2002100220393F3E029
:10213000CDE9042140F2FF11DBF8080020EA01019B
:10214000C20518BF01F50071B5F5800FC0F0D98048
:1021500020D100271AE0F4190322414604F10800B7
:10216000FEF75AF888B9A08A618B41EA00407649A7
:1021700001EB4020E169B1F5F82F28BF4FF4F821B9
:10218000CBF804000844CBF808002037BAEB572FEF
:10219000E1D0B6E0A94220D9DBF80430AB421CD82C
:1021A0004FF48061634A11608BF800A05E490968B2
:1021B000B1F1FF3F07DC604A5B4941F80C2C5F4AF4
:1021C00041F80C2C0968C41A5D49CDF80490B4F5A7
:1021D000007F06D94FF4007406E001208DF81B0043
:1021E0008FE0A00718BF0434AB4200953BD1087EB6
:1021F0004D4D01287CD0012002930876FEF7CCF8E3
:1022000048BB4FF00109082702E009F1010908372E
:102210004B49B9F1080F22D2286820F44070286099
:10222000286840F400702860286820F0F8002860D2
:102230002868384340F002002860286840F4803065
:102240002860BFF34F8FFEF7A7F82968002821F018
:102250007A012960D9D03A4880F818A048E0009D5A
:10226000029B81F818A0E81A2F4D800B1E283FD83A
:1022700001984FF00009C01A0290A14538D2087E9B
:10228000012835D00120C246D846A34656F8097029
:102290000C460876FEF780F820BB286820F44070D2
:1022A0002860286840F400702860286840F0010029
:1022B0002860029849F80070BFF34F8FFEF76CF862
:1022C000296800284FF0000009F1040921F00101FC
:1022D0002960207621465C46C346D0464FF0000A6E
:1022E000CBD005E00020C346D0464FF0000A207650
:1022F000286840F000402860FF208BF80000DDE9EE
:102300000059049A15F50075059906F5007609F54A
:10231000007941F100010132039882427FF408AF55
:10232000002007B0BDE8F08F103C024000400008DC
:10233000080000201800024023016745AB89EFCD5B
:102340008001002042494E0000FC3F007047000021
:102350008448016801310160704700BF1FB57F4CA0
:10236000206C40F080502064206C00F0805002907F
:1023700002987B48016841F440410160016801F422
:10238000404101910199A16801F00C01042915D087
:10239000A16801F00C01082902D1616849020DD43D
:1023A000216841F4803121606E490A6823689B03EB
:1023B00005D40B689B1A642BF8D923E02168A16827
:1023C00001F00C01082901D161681BE0216821F0AE
:1023D0008071216063490A6823689B0104D50B68FA
:1023E0009B1A022BF8D90DE05F4A6260226842F026
:1023F000807222600A6823689B0103D40B689B1AD1
:10240000022BF8D9216C41F080512164216C01F03C
:10241000805103910399016841F480310160514971
:102420000A684368DB0305D40B689B1AB3F57A7F0F
:10243000F7D90CE0026842F4003202600A6843688F
:102440009B0304D40B689B1AB3F57A7FF7D9D4F8B1
:10245000000400F00F0006280CD8D4F8000407226E
:1024600062F30300C4F80004D4F8000400F00F0085
:1024700007286CD1A06840F4E050A060A06840F448
:102480006040A060A06820F0F000A060206880019B
:102490005DD5A068022262F3010041F28832A0609B
:1024A0000868A36803F00C03082B04D00B681B1A00
:1024B0009342F6D94BE0D4F8000400070CD5D4F8C9
:1024C0000004072161F30300C4F80004D4F80004F9
:1024D00000F00F0007283AD1A068052161F38C2095
:1024E0000421A060A06861F34F30A060A06800F0F4
:1024F0000C00082803D004281DD11D481CE0626888
:102500006068616800234002C1F3881102F03F0255
:1025100017485CBF42F20040C0F2F400A0FB01018A
:10252000FDF787FE61680222C1F3014102EB410120
:10253000B0FBF1F000E00D48A1680EA2C1F3031159
:10254000515CC8400F490861C868FEF749F8D4F8E3
:10255000900020F00060C4F890001FBD00380240D9
:102560000070004080010020196C40290024F40014
:1025700040787D010000000000000000010203041B
:1025800006070809080000200548D0F8801041F42B
:102590007001C0F880104FF000610160704700BF0B
:1025A00008ED00E08C4613460021624600F068BA50
:1025B00010B58021044600F00BFA00212046BDE84A
:1025C000104000F005BA80B502238261C0F8943251
:1025D00013460A460021C36100F052FA002080BD74
:1025E0004FF0040C002100220023C0F894C200F038
:1025F00047BA000080B5002825D04FF0000C0346F4
:1026000002E00CF1010C01331A78002AF9D15FFACB
:102610008CF30222DFF8BCE04FF0000C02EB430326
:102620000B808EF8003003238EF8013008E0D1B221
:10263000013002320EF8013041F001010EF801C004
:102640000378002BF3D180BD80B502A0FFF7D2FF45
:10265000204880BD4D534320436F6E66696700007C
:10266000122201480A807047E000002080B502A0D5
:10267000FFF7C0FF174880BD4D534320496E746576
:102680007266616365000000042201480A80704799
:10269000F400002080B502A0FFF7ACFF0D4880BD1C
:1026A00053544D6963726F656C656374726F6E69C4
:1026B0006373000080B502A0FFF79CFF054880BD52
:1026C00053544D3332204D6173732053746F7261D4
:1026D00067650000A4010020B0B50A4A106894683C
:1026E0001A2300190B800BD0074D54680822A91C2F
:1026F000FEF723FB05F1120104222046FEF71DFB25
:102700000148B0BD107AF01F640100200C2201487E
:102710000A807047D400002080B5D0F8C40201F0D0
:102720000F0243689A423ED809060AD4C2EBC2019E
:102730004FF0000C00EB810303F5FE7E83F8FDC132
:1027400009E0C2EBC2014FF0010C00EB810303F181
:102750003C0E83F83DC090F8BC3300218EF8002079
:102760008EF80210012B1ED09EF80110012380F874
:10277000BC330368012902D103F5106301E003F5BE
:1027800030635201995821F4001199509EF80310BA
:1027900001F0FE01022903D1D15841F08051D150FE
:1027A000002180F8BC1380BDB0B50A0601F00F010E
:1027B000D0F8C402C1EBC10200EB820305D40024AF
:1027C00003F5FE7283F8FD4104E0012403F13C02AD
:1027D00083F83D4090F8BC331170012B01D11021DA
:1027E00043E052780123234D80F8BC330368012A6B
:1027F00003EB411213D1D2F8004902F51062B4F193
:10280000FF3F07DC146844F000641460146844F06F
:1028100080441460012404FA01F189B214E0D2F872
:10282000004B02F53062B4F1FF3F07DC146844F05E
:1028300000641460146844F0804414604FF48034E1
:1028400005F1707504FA01F1D3F83C488C43C3F8E4
:102850003C48D3F81C4824EA0101C3F81C1811684D
:1028600029401160002180F8BC138448C840C0B2E0
:10287000B0BD00BF007833EC10B5D0F8C44294F876
:10288000BC03012801D110200FE0012084F8BC0313
:102890000806206802D400F069FB03E001F00F0194
:1028A00000F074FB002084F8BC03744921FA00F0A6
:1028B000C0B210BD10B55FEA016C01F00F0ED0F888
:1028C000C4C2CEEBCE000CEB800105D4002401F590
:1028D000FE7081F8FD4104E0012401F13C0081F823
:1028E0003D40417880F800E08360C270002918BF45
:1028F000A0F806E0022A04BF002404719CF8BC037F
:10290000012801D1102033E001200129DCF800105A
:102910008CF8BC0300FA0EF011D1D1F81C48044326
:1029200001F51060C1F81C484FEA4E1144582404C8
:102930001BD46FF3DF230C5843EA8E530FE0D1F81A
:102940001C4844EA004401F53060C1F81C484FEAD5
:102950004E114458240408D46FF3DF230C5823434A
:1029600043EA8242054B1A430A5000208CF8BC030C
:10297000424921FA00F0C0B210BD00BF0080001033
:1029800080B501F00F0CD0F8C4E20021CCEBCC00F4
:102990000EEB8000C0F80822C0E9843180F8FD11F8
:1029A00000F5FE7180F8FCC1DEF81030012B01D17A
:1029B000C0F80C22DAB2BCF1000FDEF8000003D040
:1029C000BDE8804000F01ABABDE8804000F072B95E
:1029D00010B5D0F8C44201F00F026068824201D9FC
:1029E000082046E0080609D4C1EBC100002304EB2F
:1029F000800101F5FE7081F8FD3108E0C2EBC200F4
:102A0000012304EB800101F13C0081F83D3094F892
:102A1000BC33012102708170012B01D1102028E00C
:102A2000407884F8BC130128206800EB421306D1DB
:102A300003F51061002AD3F8003906D10BE003F545
:102A40003061002AD3F8003B05D0002B03DB0B6874
:102A500023F080430B600B68002A43F400130B60E3
:102A600004D1217C04F5717200F09CF9002084F8F7
:102A7000BC03024921FA00F0C0B210BD00030103FB
:102A800010B501F00F0CD0F8C4020024CCEBCC013F
:102A900000EB810E714601F83CCFC1E905340124F9
:102AA000CA6003694C70012B01D1CEF84C20DAB218
:102AB000BCF1000F006803D0BDE8104000F09EB9E3
:102AC000BDE8104000F0F6B880B5FEF794F900209C
:102AD00080BD80B5FEF7AEF9002080BDB0B5012104
:102AE0000446FFF761FE002581212046A4F87851B5
:102AF000FFF75AFED4F8BC0225870028057203D0E0
:102B000000F0B4FDC4F8BC520020B0BD0A22024956
:102B100002800846704700BF380100202022024989
:102B200002800846704700BFF800002020220249BA
:102B300002800846704700BF180100202022024989
:102B400002800846704700BF44010020B0B504462B
:102B50004FF41D7000F0B2FD90B1217C0222C4F848
:102B6000BC0200294FF001010FD04023204601256F
:102B7000FFF7A0FE812102224023A4F8785110E043
:102B80000020C4F8BC020220B0BD4FF40073204600
:102B90000125FFF78FFEA4F87851812102224FF41E
:102BA00000732046FFF786FE012020872046FEF7AF
:102BB000AFF90020B0BD7CB50D460978002204466F
:102BC000D0F8BC62ADF8062011F0600017D02028C4
:102BD00050D16878FF2822D0FE284BD16888002881
:102BE00048D1080646D5E888012843D1D4F8C00268
:102BF00080698047306001222046314636E068789F
:102C00000B2816D001281BD00A2828D090BB94F896
:102C10009C0203282ED10DF10601022225E06888CE
:102C200040BB080626D4E88820BB2046FEF78EF974
:102C30001EE094F89C0203281CD1A878706017E06D
:102C400094F89C02032813D1688888B92979204612
:102C5000FFF712FE29792046FEF7AFF808E094F856
:102C60009C02032806D1311D01222046FFF7ABFC50
:102C7000002003E02046FFF79BFC032002B070BD5C
:102C80004FF0FF32C94901328A4211D80369B3F1CA
:102C9000FF3FF8DC026942F0010202614FF0FF32AF
:102CA00001328A4204D80369DB07F9D1002070475A
:102CB0000320704770B54B7891F800C0012B21D1EB
:102CC000D1F814E000EB4C16354D344C06F510638A
:102CD000BEF1000FD6F810693AD035401D611D696C
:102CE00025401D618D68AE4501D9AE464D611D6917
:102CF00004F1005445F4002504EA0E041D611D6929
:102D00002C4330E000EB4C10244CD0F8103B6FF318
:102D10001203C0F8103BD0F8103B6FF3DC43C0F84F
:102D2000103B4B69002B00F53063886818BF486181
:102D30001E69012A46F400261E6104F1005600EACD
:102D400006001E6940EA0600186112D1C8680EE04C
:102D500026404FF0000E1E611E6946F400261E61DB
:102D60001E6906EA0504012A1C6108D1086900B140
:102D700058614FF0044118680843186070BD196825
:102D8000BEF1000F41F004411960F7D00CF00F01C3
:102D9000012200F6340302FA01F1ECE7FFFF07E03D
:102DA0000000F8FF10B5036C134CA34203D3D0F816
:102DB000003B002B1EDB00230129C0F8103BD0F89C
:102DC000103B43F40023C0F8103BD0F8103B43F015
:102DD0001803C0F8103BD0F8103B43F0C043C0F8D4
:102DE000103B07D1C0F8142BD0F8001B41F0802114
:102DF000C0F8001B10BD00BF0B30544F7CB54B78A2
:102E000091F800C0012B2ED1D1F814E000EB4C1446
:102E100004F51063BEF1000FD4F8104948D06FF3E9
:102E200012041C611C696FF3DC441C618C680EEB9E
:102E30000405013DB5FBF4F44B4D05EAC4441D699E
:102E40002C4375461C616FF3DF451C692C431C61E4
:102E5000CC78012C37D11C6924F0C0441C611C695A
:102E600044F000542EE000EB4C13D3F8105B6FF3EA
:102E70001205C3F8105BD3F8105B6FF3DC45C3F8A1
:102E8000105B03F530634C69D1F808C0CCB304EB98
:102E90000C05354E013DB5FBFCF5ACB206EAC54666
:102EA0001D692E4304FB0CFC1E616FF3DF4C30E008
:102EB0006FF3DC441C611C6944F400241C611C6930
:102EC0006FF312041C61012A01D10A6928E01C6811
:102ED00044F004441C60CC78012C36D1D0F808486A
:102EE0001D68E4054FF0805458BF4FF000542C4348
:102EF0001C601FFA8EF3C9680092624600F065F804
:102F00007CBD6FF3DF4C1D6945EA0C054FF4002CC6
:102F10001D611E69012A46EA0C061E6102D1CA68BB
:102F200002B15A61C97801290AD1D0F80808196894
:102F3000C0054FF0805058BF4FF000500843186054
:102F4000186840F0044018607CBDBEF1000FFBD053
:102F50000CF00F01012202FA01F1D0F834281143DC
:102F6000C0F834187CBD00BF0000F81F10210F4AC4
:102F700001614FF0FF310131914204D80369DB0652
:102F8000F9D4002070470320704700BF8901074A29
:102F9000203101614FF0FF310131914204D80369C2
:102FA0009B06F9D400207047032070473F0D0300B3
:102FB00003324FF4805C920804E050F80C30013A80
:102FC00041F8043B002AF8D17047DDF800C0BCF19D
:102FD000000F18BF7047033300F5805C12039B0895
:102FE00004E051F8040B013B42F80C00002BF8D12F
:102FF0007047FEE78AB0E84801684FF6FF02E74DE8
:10300000E74EE84C4FF000081140E74A1143E74A09
:10301000924601600020FDF7E3FA286B40F08050F3
:103020002863286B00F0805005900598686B40F489
:1030300080406863686B00F4804005900598FFF756
:103040008DF9CDF824800DF1140904F5044401270D
:10305000286A494640F001002862286A00F0010011
:1030600004900498286A40F080002862286A00F0E2
:10307000800004900498286A40F002002862286AC0
:1030800000F00200049004984FF08060B0604FF4AC
:10309000806005902046CDE90677CDF82080FDF7C9
:1030A000D3F980204946CDE905082046CDE90778C7
:1030B0005446FDF7C9F9DAF80000013001280BD8B1
:1030C00060680130012807D8A0680130012803D8C2
:1030D000E068013002280AD33068000600F1B380AE
:1030E000C820FDF7A5F93068000600F1AC80DFF8D4
:1030F0004015D1F8B80210B10020C1F8B802D1F8DB
:10310000CC02A84B10B10020C1F8CC02DFF8247526
:10311000DFF824A500244FF0030BA54A07F1540063
:10312000CAF80014C1F8C4A2C1F8B402012081F8A1
:103130009C0208700920CAE90020CAF81040CAE9B8
:1031400006B4CAE90844CAE90B44CAF834409AF8FC
:10315000BD03002844D10DF1140914218AF8BC43A1
:1031600090464846FDF7E0F8286A06A940F00200BC
:103170002862286A00F00200049004984FF440404E
:103180000590022081E811080C204946099006F5B7
:103190007C70FDF759F9686B002140F000406863CE
:1031A000686B00F0004004900498286A40F00050DA
:1031B0002862286A00F0005004900498286A40F0C1
:1031C00080402862286A00F08040049004984D20D6
:1031D000FDF72CFA42464FF40050724B75490860D7
:1031E0008AF8BDB3D06BC00502D40020CAF8100025
:1031F000DAF80040A06820F00100A060DAF81800BA
:10320000DAF81090DAF83450032832D0012853D17C
:10321000A06B6949012D20F48030A063E06800EACA
:103220000100E060E06840F01000E060E06820F439
:103230004010E06003D1E06840F48010E060204678
:10324000FFF71EFD43E04FF0FF3100226068296167
:103250002A6169616A6129602A6069606A60A9609F
:10326000AA60216881F308885249C1F8004C804760
:10327000FEE7A06B504920F48030A063E06808406E
:103280004E49E060E06820F44010E060E06820F023
:103290001000E060A06B40F40000A063986940F06B
:1032A000040098614FF0FF309A69920700F188801E
:1032B00001308842F8D93CE1E06840F04000E0602D
:1032C0002046FFF7DDFCA16B41F48031A163B9F129
:1032D000010F07D1A16841F00601A160A16841F08A
:1032E0002001A160002840F02481DAF80000C168C4
:1032F00021F0C041C160C16841F08041C16032200D
:10330000FDF796F800200121DAF8045000220FE0C2
:10331000C3EBC3040AEB840484F83C2084F83D101A
:10332000A4F8423084F83F00C4E91100206501325E
:10333000D3B29D42ECD8002000210EE0C2EBC202C5
:103340000AEB820282F8FC1182F8FD0182F8FF018B
:10335000C2E98100C2F810020131CAB29542EDD82B
:10336000DAF80080DAE9030101910023DAE90612B4
:103370000292DAF82C40412202E048F82230013271
:10338000502AFAD174B3D8F8382008F5006B42F40B
:103390000012C8F838203FE00CED00E01038024081
:1033A00010000240007C01400003FA0500400008C4
:1033B0000000044008E100E0BFFFBDFF3F0D030037
:1033C0000A2040F613711860D8680843D86018685E
:1033D00040F0010018600220FDF72AF8012D3FF4AB
:1033E0002AAF2CE7D8F8042808F5006B42F0020257
:1033F000C8F80428D8F8382022F40012C8F8382079
:10340000D8F8002042F04002C8F80020D8F8002088
:1034100042F08002C8F8002000220329C8F8002EDC
:10342000DBF80020CBF80020039418BF012906D157
:10343000DBF80010002818BF41F0010103E0DBF8C1
:10344000000040F00301CBF8001010214046FFF7C8
:103450009DFD81464046FFF789FD40EA090C4FF08B
:10346000000E08F510624FF67F330020CBF810E015
:10347000CBF814E0CBF81CE00FE04FF0904411685B
:10348000002800F1010008BF4FF0006404EAE17178
:103490001160C2F810E0936020328542EDD108F54A
:1034A00030614FF0000E4FF67F3300200FE04FF0F9
:1034B00090440A68002800F1010008BF4FF0006442
:1034C00004EAE2720A60C1F810E08B6020318542A4
:1034D000EDD1DBF81000002120F48070CBF8100053
:1034E000C8F818106FF080400199C8F8140029B985
:1034F000D8F8180040F01000C8F81800D8F81800E4
:103500004E49084302990029C8F8180005D0D8F898
:10351000180040F00800C8F818000398012805D1E9
:10352000D8F8180046490843C8F81800BCF1000F45
:1035300059D002208AF8BD03DAF800004FF4007178
:103540004FF00008416200208021FDF7D7F80120EC
:103550004FF4BA714FF00109FDF7D0F8DFF8E8A099
:103560003349ADF814800AF120000C46C1F8B802C6
:10357000DAF8481005A88847D4F8C452C4F8CC0239
:10358000C4F8C0A295F8BC13012912D085F8BC93E9
:103590002868D0F8041821F00201C0F804180320AC
:1035A000FCF746FF2868816841F00101816085F8D9
:1035B000BC834FF080644FF480653878FF2805D0D5
:1035C000FA2805D00028F8D1B560F6E7B460F4E732
:1035D000B4603878FCF72CFFB560387800EB400019
:1035E000FCF726FFE9E7002001218AF838008AF875
:1035F000BD13DAF82420012A0DD1CAF8FC13DAF839
:1036000000208AF8F4030F49906940F0006090614F
:10361000506D08435065DAF80000D0F8041841F006
:103620000201C0F804180320FCF702FF84E700BF82
:10363000A4030020080000207406002000383C800D
:1036400004000040030000107C00002002E008C8D5
:10365000121F08C1002AFAD170477047002001E00C
:1036600001C1121F002AFBD17047000010B50028CD
:1036700021D0114B0022001F196803E0814203D8BA
:103680000A4649680029F9D152B11368841A9C424C
:1036900004D1006818441060104602E0506000E059
:1036A000186039B102680B1A934203D10B681A44AF
:1036B00002604968416010BD00000020F0B50B3089
:1036C000154D20F007010024144A0FE003688B42D7
:1036D0000BD38B4205D95E1A43184768C3E90067CC
:1036E00000E04368136002C004E0021D1068002877
:1036F000ECD12046002802D1286808B10020F0BD96
:10370000064A07481060074A121A22F00702C0E969
:10371000002401202860D7E70400002000000020DA
:103720007C0A0020782A0020EBFE904D53444F5332
:10373000352E300002017C110200000000F800006C
:103740003F00FF003F000000C1C00300420700002F
:103750000000000002000000010006000000000060
:103760000000000000000000800029B04990024ED7
:103770004F204E414D4520202020464154333220D9
:103780002020008002021F00000053544D20202002
:10379000202050726F647563742020202020202028
:1037A0002020302E30310000C837000800000020F3
:1037B000800100003E0300089838000880010020C6
:1037C000F82C00005C3600088142FA23064013C63C
:1037D0004742104324F412021A80021B08200132CF
:1037E0002203120812622609111B1361261B088985
:1037F000041A95041AB5041AD9041A49041A6D0456
:10380000130D271408D11E1B08BD041AD5041AD99C
:10381000041ADD04130D211B08CD081382371C0880
:103820004D2B14122A1B08B708811AC9101AD30489
:10383000C11A2D201A1D041A3D041A0D0414050F77
:103840000C3601071002022C1201010716408304F6
:103850004B57260201020301100804030904090260
:10386000201808010104C0320904E6200A080650A5
:103870000507058102402C07050107091420113AAC
:10388000022019071B0A06051958194F110B1C09AC
:08389000074C031A1A030000A3
:04000005080001E10D
:00000001FF
