:020000040800F2
:10000000A0A30020A9020008B1020008B302000862
:10001000B5020008B7020008B9020008000000009D
:10002000000000000000000000000000E9020008DD
:10003000BD020008000000008103000891030008D1
:10004000C3020008C3020008C3020008C30200087C
:10005000C3020008C3020008C3020008C30200086C
:10006000C3020008C3020008C3020008C30200085C
:10007000C3020008C3020008C3020008C30200084C
:10008000C3020008C3020008C3020008C30200083C
:10009000C3020008C3020008C3020008C30200082C
:1000A000C3020008C3020008C3020008C30200081C
:1000B000C3020008C3020008C3020008C30200080C
:1000C000C3020008C3020008C3020008C3020008FC
:1000D000C3020008C3020008C3020008C3020008EC
:1000E000C3020008C3020008C3020008C3020008DC
:1000F000C3020008C3020008C3020008C3020008CC
:10010000C3020008C3020008C3020008C3020008BB
:10011000C3020008C3020008C3020008C3020008AB
:10012000C3020008C3020008C3020008C30200089B
:10013000C3020008000000000000000000000000F2
:10014000000000000000000000000000C3020008E2
:10015000C3020008C3020008C3020008D92B00082C
:10016000C3020008C3020008C3020008C30200085B
:10017000C30200089D2000080000000000000000ED
:10018000C3020008C3020008C3020008C30200083B
:10019000C3020008C302000800000000C3020008F8
:1001A000000000000000000000000000C302000882
:1001B000C3020008C30200080000000000000000A5
:1001C000000000000000000000000000000000002F
:1001D000000000000000000000000000C302000852
:1001E00000F002F800F04CF80AA090E8000C8244FD
:1001F0008344AAF10107DA4501D100F041F8AFF2DA
:10020000090EBAE80F0013F0010F18BFFB1A43F0F4
:1002100001031847B4AB0000E4AB00000A4410F837
:10022000014B14F00F0508BF10F8015B240908BF4B
:1002300010F8014B6D1E05D010F8013B6D1E01F842
:10024000013BF9D1641E03D0641E01F8015BFBD1B0
:100250009142E4D37047FFFF0023002400250026CD
:10026000103A28BF78C1FBD8520728BF30C148BF19
:100270000B6070471FB509F0B9FF1FBD10B510BD69
:1002800000F006FA114603B404F07FFB03BCFFF74D
:10029000F1FF04F02DFC00F020FA03B4FFF7EEFFAD
:1002A00003BC00F023FAFFFF0948804709480047D4
:1002B000FEE7FEE7FEE7FEE7FEE7FEE7FEE7FEE716
:1002C000FEE7FEE704480549054A064B7047000073
:1002D00005220008E1010008A0970020A0A300204B
:1002E000A09B0020A09B00201EF0040F0CBFEFF38A
:1002F0000880EFF30980816911F8021C91BB01B5F8
:1003000090E80F10E047BDE800508CE80300244B54
:1003100093E80600914208BF704741B91EF0100FE4
:1003200010D12049086820F0010008600AE02CE99B
:10033000F00F1EF0100F08BF2CED108AC1F838C066
:1003400081F822E01A6092F82210906B61F0FF0EA3
:100350001EF0100F08BFB0EC108AB0E8F00F80F369
:1003600009887047104A13689942FAD801B552F8C3
:1003700021C00FC8E047BDE80050CCF8000070472E
:1003800001B504F087FFBDE80140EFF3098CBEE73B
:1003900001B505F0D3F9BDE80140EFF3098CB6E7EC
:1003A0006000002034EF00E020A9000853EA020CAE
:1003B00000F069802DE9F04B4FF00006002B1FBFC5
:1003C000B3FA83F503FA05F424FA05F65E4012BF8A
:1003D0001643B2FA82F502FA05F4C5F120051EBFF4
:1003E00022FA05FC44EA0C04203556EA044C4FEA94
:1003F000144418BF641C4FF000084FF000099042ED
:1004000071EB030C39D3002919BFB1FA81F701FA56
:1004100007F6B0FA80F700FA07F6C7F120071EBF0B
:1004200020FA07FC46EA0C062037B6FBF4FCA7EBE3
:100430000507103F07F01F0BCBF120062CFA06F63C
:100440000CFA0BFB44BFB3460026202FA4BF5E4628
:100450004FF0000B5BEA060C08BF4FF0010B19EBE5
:100460000B0948EB0608ABFB027C06FB02CC0BFB3E
:1004700003CCC01B71EB0C01C1E70B4602464146A1
:100480004846BDE8F08B13B54FF000004FF0000177
:10049000AFF30080BDE81C40704740EA010310B58F
:1004A0009B070FD1042A0DD310C808C9121F9C4204
:1004B000F8D020BA19BA884201D9012010BD4FF0F6
:1004C000FF3010BD1AB1D30703D0521C07E0002043
:1004D00010BD10F8013B11F8014B1B1B07D110F8A0
:1004E000013B11F8014B1B1B01D1921EF1D11846A3
:1004F00010BD032A40F2308010F0030C00F015808C
:1005000011F8013BBCF1020F624498BF11F801CB16
:1005100000F8013B38BF11F8013BA2F1040298BF7B
:1005200000F801CB38BF00F8013B11F0030300F0E5
:100530002580083AC0F0088051F8043B083A51F889
:1005400004CBA0E80810F5E7121D5CBF51F8043B8E
:1005500040F8043BAFF30080D20724BF11F8013B01
:1005600011F801CB48BF11F8012B24BF00F8013B63
:1005700000F801CB48BF00F8012B704710B5203AB6
:10058000C0F00B80B1E81850A0E81850B1E818503E
:10059000A0E81850203ABFF4F5AF5FEA027C24BF10
:1005A000B1E81850A0E8185044BF18C918C0BDE8F9
:1005B00010405FEA827C24BF51F8043B40F8043BC2
:1005C00008BF7047D20728BF31F8023B48BF11F877
:1005D000012B28BF20F8023B48BF00F8012B7047D1
:1005E00002F0FF0343EA032242EA024200F002B8AB
:1005F0004FF000020429C0F0128010F0030C00F04C
:100600001B80CCF1040CBCF1020F18BF00F8012BC9
:10061000A8BF20F8022BA1EB0C0100F00DB85FEA97
:10062000C17C24BF00F8012B00F8012B48BF00F863
:10063000012B70474FF0000200B5134694469646D2
:10064000203922BFA0E80C50A0E80C50B1F12001E5
:10065000BFF4F7AF090728BFA0E80C5048BF0CC093
:100660005DF804EB890028BF40F8042B08BF7047F1
:1006700048BF20F8022B11F0804F18BF00F8012B63
:1006800070477047704770470048704780010020EE
:100690007546FFF7F9FFAE4605006946534620F060
:1006A0000700854618B020B5FFF70CFEBDE82040D6
:1006B0004FF000064FF000074FF000084FF0000B1E
:1006C000AC46ACE8C009ACE8C009ACE8C009ACE88D
:1006D000C00921F007018D46704710B50446AFF3FD
:1006E00000802046BDE81040FFF7D7BD0149182023
:1006F000ABBEFEE7260002007047FFFF82B000207D
:10070000DFF870815EA688F800005B4D0FF27C195F
:1007100000200190012000214FF0FF3205F034F954
:100720004FF47A7004F0F6FA286800284FF00000C1
:1007300088F8000040F088804FF0FF374F4D0137B8
:10074000132F15D8A5F11C040B2230462146AA46CA
:10075000FFF7A3FE70B10B22484621460AF120059F
:10076000FFF79BFE0028EAD1414800F5403B03E03B
:10077000414D64E03E4883463AF8020C4649DAF8B7
:10078000005001EB40284046294604F089F9434ACD
:1007900043492A400C46096802EB0806D4F804C015
:1007A000D4F808E004F10C0746F8101F8ACF46F091
:1007B0000C04216046F00801C1F800E046F0040195
:1007C000C1F800C002F13004C6E90437C6E906509A
:1007D00034484BEA0001584600F00AFA0028019D0F
:1007E0004FF0010018BF0546A2085846414600F0E8
:1007F00009FB002818BF01351E4E002D0195B0469B
:100800001FA61D4D18D1042088F8000026488345F6
:100810004FF001002860164806D0834517D11448D0
:1008200004F0B6F830B117E000F54034204604F08B
:10083000AFF8B8B900200190052088F800002868BA
:1008400001287FF467AF02E0052088F800004FF030
:10085000FF3004F05FFAFEE7012004F0C1F804481D
:1008600001F0DCFA022004F0BBF8204601F0D6FAD1
:1008700000000108E0010020485F00201C1001205A
:10088000463732334150503142494E0046373233B9
:100890004150503242494E00004C0120F0FF03000D
:1008A0000CAA0008FFFF0200000004082DE9F04F29
:1008B00089B00020784ECDE90700CC48016804AC2F
:1008C00041F00101754D0160002201684FF0030AFB
:1008D00001F0010103914FF000080399016841F014
:1008E00002010160016801F00201039103990168AE
:1008F00041F004010160016801F0040103910399D2
:10090000016841F008010160016801F008010391EC
:100910000399016841F010010160016801F01001C4
:1009200003910399016841F020010160016801F021
:10093000200103910399016841F0400101600168C1
:1009400001F0400103910399016841F080010160C9
:10095000016801F0800103910399016841F48071FD
:1009600001602146006800F480700390039849F606
:100970003D3004902846CDE905A2B04743F63B70D0
:10098000049005F5806021460290B0474EF6FF7056
:10099000049005F500602146B0474FF69B70049027
:1009A00005F5406021460190B0474FF6FF70049076
:1009B00005F580502146B0474FF6FF4005F5A0579A
:1009C000049038462146B0474BF63F50049005F559
:1009D000C0502146B0474FF63C7005F5E05B0490EF
:1009E00058462146B04740F6FF70049005F5005088
:1009F0002146B0474FF4806004904FF0010928462B
:100A00002146CDE90598CDF81CA0B0474FF040082D
:100A10004FF0110ACDF8108028462146CDE905A9EE
:100A2000B0478020C5F81880CDE9040A2846CDF8E3
:100A300018902146B0478020A8614FF40070CDE99E
:100A4000040900200690384621464FF0800AB0473E
:100A50004FF48070049038462146B0475846CDF890
:100A600010802146B047042700200497CDE90500F7
:100A700002982146B047019821460497B04758464E
:100A8000CDF810A02146B047022004902846214608
:100A9000B04709B0BDE8F08FA9100008000002407F
:100AA0001648446AC56A164EDFF85880A847800782
:100AB00020D53768A04738447168421AB2F5006FF4
:100AC00002DB7068104414E0012A13DB70686FF3D6
:100AD000DF2071686FF3DF21C0F500608242C8BF7C
:100AE00002464144002005F095FF012802DB7168B1
:100AF000084470600A2004F00DF9D7E7E4A200086A
:100B0000EC0100204C5F002081B03848016841F0C2
:100B100002010160006800F002000090009801B03E
:100B2000704700BF81B0304908444FEAB020082820
:100B300058D8DFE800F0050E172029323B444D005D
:100B40002A48016841F001010160006800F00100DD
:100B500046E02648016841F002010160006800F0AB
:100B600002003DE02148016841F004010160006895
:100B700000F0040034E01D48016841F00801016004
:100B8000006800F008002BE01848016841F01001EF
:100B90000160006800F0100022E01448016841F094
:100BA00020010160006800F0200019E00F48016892
:100BB00041F040010160006800F0400010E00B4887
:100BC000016841F080010160006800F0800007E0EA
:100BD0000648016841F480710160006800F480708B
:100BE0000090009801B070470000FEBF303802400E
:100BF00010B586B00022144C0592C0F38730202334
:100C00002028C1F3873128BF184634F81000202966
:100C100038BF0B4634F81310C0F1010301920222D1
:100C200019440492CDE9020100F0BAF901A805A91E
:100C300000F022F9044600F067F9002C18BF4FF0CD
:100C4000FF34204606B010BD7CA3000880B5D34B0E
:100C5000D3F800C04FF4407E2CF440721A60032990
:100C600038BF4FEA012E196841EA0E011960196870
:100C700021F0F8011960196841EAC00040F0020053
:100C80001860186840F480301860BFF34F8F80BD43
:100C9000C2490A6822F440720A600A6842F00402FB
:100CA0000A600A6842EA002040F480300860BFF31E
:100CB0004F8F7047B94A136823F440731360136869
:100CC0001360136843F0010313600170BFF34F8F8B
:100CD000704700BF10B5B14C216821F4407121600C
:100CE000216841F440712160216841F001012160D7
:100CF00002604360BFF34F8F10BD00BFA74A136867
:100D000023F440731360136843F480731360136813
:100D100043F0010313600180BFF34F8F704700BFA2
:100D20009E4A136823F440731360136843F40073FE
:100D30001360136843F0010313600160BFF34F8F2A
:100D4000704700BF2E480168890704D592498A6917
:100D500042F020028A610168C90604D58E498A6979
:100D600042F010028A610168890604D58A498A69BD
:100D700042F008028A610168490604D586498A69F9
:100D800042F004028A610168090604D582498A6931
:100D900042F002028A610168C90504D57E498A6968
:100DA00042F040028A614FF4F9710160704700BF60
:100DB000F8B5794900220446114E8A6100F03CFAE8
:100DC0000546671C3068C00309D5002FFAD024B14E
:100DD00000F032FA401BA042F4D903200DE0306845
:100DE00010F4F97F03D0FFF7ADFF012005E0306874
:100DF000C00701D001203060002001B0F0BD00BF6D
:100E00000C3C0240F8B50446B0F1006F4FF0FF30E3
:100E10001DD30E4614F0030119D1154600F0C0F899
:100E20000027AF4210D256F8272002200023214687
:100E300000F072F80137002804F10404F1D000F04A
:100E400063F84FF0FF3002E000F05EF8002001B0E0
:100E5000F0BDFFFFB0B5044600F0EEF905490546C8
:100E60000978621C18BF0C4400F0E6F9401BA04250
:100E7000FAD3B0BD400000202DE9F041DFF8188121
:100E800098F81420012A02D10220BDE8F08105461D
:100E9000012088F814004CF250300C46FFF788FF10
:100EA00060BB4FF0FF303D4F2060286801280BD118
:100EB000287BFFF7EDFE4CF25030FFF779FF3968E1
:100EC00021F00401396019E0686806460FE0297BCB
:100ED0003046FFF7BBFE4CF25030FFF769FF396830
:100EE000002821F07A01396007D101366868A968C5
:100EF00008448642EBD3002000E02660002188F8F9
:100F00001410BDE8F08100BF2449086840F0004299
:100F100000200A60704700BF2DE9F041DFF87880BB
:100F200098F81470012F02D10220BDE8F081074625
:100F3000012088F814004CF250301E4614460D462D
:100F4000FFF736FF10BB032F17D8DFE807F00207C3
:100F50000C11E1B22846FFF7ADFE0EE0A1B2284623
:100F6000FFF7CCFE09E028462146FFF7D9FE04E052
:100F7000284622463346FFF7ADFE4CF25030FFF7CD
:100F800017FF06490A6822F001020A60002188F86A
:100F90001410BDE8F08100BF2C5F0020103C02401F
:100FA0000648C168B1F1FF3FC4BF00207047044943
:100FB000016004490160C068C00F7047043C0240F2
:100FC00023016745AB89EFCD2DE9F04F944A4FF0EF
:100FD000080E944C02444FEAB223A04208BF4FF0DF
:100FE000070E072B38BF4FEAB22E4FF0000A8B4A8C
:100FF0004FF00108A2F57E7B4FF0000C00274FE078
:1010000008FA07F50D4246D0BC080AF00C085BF858
:1010100024900F2202FA08F209EA02060EFA08F3F7
:101020009E4217D15BF8243023EA02024BF82420B9
:101030007A4A13461268AA431A605A68AA435A6049
:101040009A68AA439A60744A13461268AA43ED4309
:101050001A6000E0ED430322036802FA0CF26FF01D
:101060000306934306EA570603600AF01C0483193B
:101070000F2606FA04F41E6A26EA04041C624FF0E6
:10108000010883689343836043682B404360C368CF
:1010900023EA0202C26001370CF1020C0AF1040AD1
:1010A000102FADD1BDE8F08F2DE9F84F5C4A4FF01D
:1010B000080C5C4C02444FEAB223A04208BF4FF038
:1010C000070C4FF000084FF0010A4FF0000B00240E
:1010D000072B38BF4FEAB22C96E00AFA04F70A68E9
:1010E0003A4200F08C804A6842F01005122D13D16C
:1010F0006FF0030202EA540202440BF01C05166A68
:101100000F2303FA05FE26EA0E0E0E6906FA05F510
:1011100045EA0E0616624A680323066803FA08F5D4
:1011200002F00303AE4303FA08F33343122A0360C9
:101130006FEA050512D80AFA02F313F0061F0DD064
:101140008368CE682B4006FA08F633438360436811
:10115000C2F30016BB43A64033434360C368D200CA
:101160008E6803EA050306FA08F643EA0603C3603D
:1011700045D5284A13462C4D1268A94642F48042B0
:101180001A601A6824F0030302F480420092234A92
:1011900096461A44009B0BF00C0356590F259D40B0
:1011A000AE430CFA03F3334342F80930DEF8002073
:1011B0004B6842EA0706DD0358BF22EA0706CEF86D
:1011C00000609D03DEF8042042EA070658BF22EAC9
:1011D0000706CEF80460DEF80820DD0242EA0706C2
:1011E00058BF22EA0706CEF808600B4A1546126877
:1011F0009B0242EA070658BF22EA07062E60013426
:101200000BF1040B08F10208102C7FF466AFBDE867
:10121000F88F00BF443802400C3C0140003C0140C4
:101220000000FEBF001C024008FCFFFF00690840F0
:1012300018BF01207047FFFF80B503F07DFD022835
:1012400003D1BDE8804003F08DBD2848002100682F
:10125000A1EB90300CE000BF00BF00BF00BF00BF9B
:1012600000BF00BF00BF00BF00BF00BF00BF013014
:101270000028F0D1024908680130086080BD00BF35
:101280006402002080B50948016841F400710160E2
:10129000016841F480710160032000F0AFF80F2075
:1012A00000F006F800F068F8002080BD003C024025
:1012B00070B50F4E4FF47A7231780446B2FBF1F1FB
:1012C0000A4A1268B2FBF1F1084600F04BFD0F2C00
:1012D0004FF0010508D838B94FF0FF300022214601
:1012E000002500F06BF87460284670BD48000020AF
:1012F00040000020B0B50278114D4378002A2B60E1
:101300001AD043686B60037BC17A847A42EA037225
:10131000437B42EA0161827B41EAC441C47B41EAEA
:101320008341437A41EA4241007A41EA044141EA79
:10133000032141EA400001E000206860A860B0BDE0
:1013400098ED00E0BFF35F8F0A48016821F4803117
:10135000016000210167704740F0010005490867FE
:10136000086840F480300860BFF34F8FBFF36F8F81
:10137000704700BF24ED00E07047FFFF00280CDB42
:1013800000F01F01012202FA01F1044A400942F86B
:101390002010BFF34F8FBFF36F8F704780E100E0E5
:1013A000002808DB00F01F01012202FA01F1024AC5
:1013B000400942F82010704700E100E080B5154B6D
:1013C0001B68C3F3022C8CF0070EBEF1040F28BF7C
:1013D0004FF0040EBCF103034FF0FF3C38BF002375
:1013E0000CFA0EFE21EA0E0199400CFA03F39A431F
:1013F0001143BDE8804003F08FBA00BF05490A6879
:101400004FF6FF031A4060F30A22034810430860B6
:10141000704700BF0CED00E00000FA05BCB51948AC
:101420000168174D41F080510160006800F0805064
:1014300001900198286840F480302860FFF7FCFE96
:1014400004466868C00306D4FFF7F6FE001BB0F53B
:101450007A7FF6D90FE0286840F400302860FFF763
:10146000EBFE04466868800307D4FFF7E5FE001B27
:10147000B0F57A7FF6D9032000E0002002B0B0BDBD
:1014800000700040403802402DE9F84304460068EF
:10149000C107DB4E02D14FF000090BE0B16821F427
:1014A0000001B160E16AB2680A43B1FA81F1B26049
:1014B0004FEA5119010302D44FF0000813E0D6F8A7
:1014C0008C1021F44012616B0A43B1F5801FC6F8FD
:1014D0008C2004D14FF000084FF0010903E0B1FA6D
:1014E00081F14FEA5118C10211D5D6F88C1021F4C0
:1014F0004002A16B0A43B1F5800FC6F88C2002D1DF
:101500004FF0010903E0002908BF4FF001088106F0
:1015100055D5306CDF4F40F080503064306C00F0B7
:10152000805000900098386840F480703860FFF771
:1015300083FE05463868C00505D4FFF77DFE401BD5
:101540006428F7D9A0E1306F10F4407023D0A16A6D
:1015500001F4407188421ED0306F316F20F440702A
:1015600041F480313167316F21F480313167306768
:10157000306FC0070FD0FFF75FFE054641F2883796
:10158000306F800707D4FFF757FE401BB8424FF07B
:101590000300F5D97BE12068BF4DA16AB36801F46F
:1015A000407223F4F81301EA0507B2F5407F08BF43
:1015B0003B43B3606FF31F31326F11433167C10694
:1015C0000BD5D6F88C1021F08071C6F88C10216BE9
:1015D000D6F88C201143C6F88C10410407D5D6F8F4
:1015E000901021F44031E26D1143C6F890100104CF
:1015F00007D5D6F8901021F44021226E1143C6F889
:101600009010C10307D5D6F8901021F44011626EF6
:101610001143C6F89010410607D5D6F8901021F076
:101620000301E26B1143C6F89010010607D5D6F806
:10163000901021F00C01226C1143C6F89010C105E6
:1016400007D5D6F8901021F03001626C1143C6F82E
:101650009010810507D5D6F8901021F0C001A26C3A
:101660001143C6F89010410507D5D6F8901021F423
:101670004071E26C1143C6F89010010507D5D6F809
:10168000901021F44061226D1143C6F89010C104FE
:1016900007D5D6F8901021F44051626D1143C6F879
:1016A0009010810407D5D6F8901021F44041A26D26
:1016B0001143C6F8901081020CD5D6F8901021F095
:1016C0000061626F1143B2F1006F08BF4FF0010873
:1016D000C6F89010410307D5D6F8901021F040715C
:1016E000E26E1143C6F89010010207D5D6F89010AB
:1016F00021F08051A26F1143C6F89010410107D527
:10170000D6F8901021F00051E26F1143C6F8901006
:10171000B9F1000F02D1B0F1007F5DD1306820F047
:1017200080603060FFF788FD05463068000105D510
:10173000FFF782FD401B6428F7D9A5E02068C107A8
:101740000DD0E16A59B9D6F8841001F07061D4E97E
:10175000012341EA821141EA0371C6F884100103B2
:1017600003D5616BB1F5801F05D0C10218D5A16BFF
:10177000B1F5800F14D1D6F8841001F0E041626811
:10178000E36841EA821141EA0361E269C6F8841024
:10179000013AD6F88C1021F01F011143C6F88C10C5
:1017A000800109D5E06861680006A26840EA8110FE
:1017B00040EA0270C6F88400306840F08060306013
:1017C000FFF73AFD05463068000105D4FFF734FD08
:1017D000401B6428F7D957E0B8F1000F56D03068A5
:1017E00020F080503060FFF727FD0546306880000C
:1017F00008D5FFF721FD401B6428F7D944E000BF5E
:10180000003802402068010301D5616B19B1C102A3
:1018100019D5A16BB9B9D6F8881001F44031D4E9D3
:10182000042341EA8211226A41EA0361C6F8881062
:101830006FF0FF03D6F88C1003EB022221F4F8516D
:101840001143C6F88C1080020FD5606FB0F1006FA5
:101850000BD1D6F8880000F070602169A26940EAD7
:10186000811040EA0240C6F88800306840F080509D
:101870003060FFF7E1FC04463068800006D4FFF7D3
:10188000DBFC001B6528F7D3032000E0002001B03B
:10189000BDE8F08300700040FFFCFF0F2DE9F04130
:1018A000002800F08C800446464FD7F8000400F072
:1018B0000F00884688420DD2D7F8000420F00F00B0
:1018C00040EA0800C7F80004D7F8000400F00F0051
:1018D000404574D12068810711D5410703D5B96807
:1018E00041F4E051B960010703D5B96841F46041A2
:1018F000B960B96821F0F001A2681143B960C0076E
:1019000027D06068012803D13968890308D456E0DC
:101910000228396802D1890102D450E089074ED5E6
:10192000B96821F003010843B860FFF785FC06465B
:1019300041F28835B86800F00C006168B0EB810FA7
:1019400007D0FFF779FC801BA842F3D90320BDE83C
:10195000F081D7F8000400F00F0040450DD9D7F80A
:10196000000420F00F0040EA0800C7F80004D7F890
:10197000000400F00F00404521D12068410705D543
:10198000B96821F4E051E2681143B960000706D557
:10199000B86820F46040216940EAC100B86000F0F6
:1019A0002FF8B968C1F30311074A515CC8401149C7
:1019B00008600F20FFF77CFC0020BDE8F0810120CB
:1019C000BDE8F08100380240A8A2000809480A4991
:1019D00000680968C1F38221084A515CC840704719
:1019E0000448054900680968C1F34231034A515C63
:1019F000C84070474800002008380240B8A20008DC
:101A000010B5134C606800F00C00082804D00428BE
:101A100014BF1048104810BD22680023206802F04F
:101A20003F0221684002C1F388110B485CBF42F2BB
:101A30000040C0F2F400A0FB0101FEF7B7FC2168F2
:101A40000222C1F3014102EB4101B0FBF1F010BDF4
:101A5000043802400024F40040787D012DE9FC4167
:101A6000002800F0B38004460078BC4EC0074BD07D
:101A7000B06800F00C00042817D0B06800F00C002B
:101A8000082802D1706840020FD4606898B1B0F5A0
:101A9000803F06D0B0F5A02F306822D140F48020DE
:101AA0003060306840F4803021E0306880032BD50E
:101AB000606848BB8AE0306820F48030306030686D
:101AC00020F480203060FFF7B7FB054630688003C4
:101AD0001AD5FFF7B1FB401B64284FF00300F5D97E
:101AE00038E120F480303060306820F480203060AD
:101AF000FFF7A2FB05463068800305D4FFF79CFB87
:101B0000401B6428F7D9F3E0207880072DD5B06812
:101B100010F00C0F07D0B06800F00C00082809D1B5
:101B20007068400206D43068800717D5E068012845
:101B300014D04BE0E0680028306800F09B8040F053
:101B400001003060FFF778FB05463068800705D458
:101B5000FFF772FB401B0228F7D9C9E0306820F07C
:101B6000F800216940EAC10030602078000721D5E3
:101B700060690028706F0ED040F001007067FFF7B9
:101B80005BFB0546706F800714D4FFF755FB401BC5
:101B90000228F7D9ACE020F001007067FFF74CFB9A
:101BA0000546706F800705D5FFF746FB401B0228EE
:101BB000F7D99DE0207840070AD4A569002D00F0F0
:101BC000C880B06800F00C00082834D10120C1E0C2
:101BD000306CC0000BD4306C4FF0010840F08050E6
:101BE0003064306C00F080500190019801E04FF0BB
:101BF00000085B4F3868C0050FD4386840F4807027
:101C00003860FFF719FB05463868C00505D4FFF7B3
:101C100013FB401B6428F7D96AE0A068E0B30128F1
:101C200005D00528306F4FD140F004003067306F89
:101C300040F001004EE0306820F080703060FFF727
:101C4000FBFA022D05460AD1306880015BD5FFF70B
:101C5000F3FA401B02284FF00300F5D97AE0306810
:101C6000800176D5FFF7E8FA401B03284FF0030008
:101C7000F5D36FE020F001003060FFF7DDFA054694
:101C8000306880077FF571AFFFF7D6FA401B022856
:101C90004FF00300F4D95DE0306F20F001003067B1
:101CA000306F20F004003067FFF7C6FA054641F2B6
:101CB0008837306F80071DD5FFF7BEFA401BB8424A
:101CC0004FF00300F5D945E020F001003067306F98
:101CD00020F004003067FFF7AFFA054641F288377D
:101CE000306F800706D4FFF7A7FA401BB842F7D938
:101CF00003202FE0B8F1000F3FF45FAF306C20F00D
:101D00008050306459E7A06A4FF6FF71C003E26962
:101D10008843216A636A1143E26A41EA8311A0F5AC
:101D2000803041EA0261084340F000507060306842
:101D300040F080703060FFF77FFA04463068800121
:101D400007D4FFF779FA001B02284FF00300F5D9FA
:101D500000E0002002B0BDE8F08100BF0038024082
:101D600000700040411E0020B0EB116F01D0012037
:101D70007047C84A5160F021C54B19700721906027
:101D80001160704710B5A0B10446406F28B900201B
:101D900084F87000204600F025F824206067206851
:101DA000016821F001010160204600F073FB012869
:101DB00001D1012010BD606A10B1204600F0B6FAD2
:101DC0002068416821F490414160816821F02A0136
:101DD0008160016841F0010101602046BDE81040CA
:101DE00000F038BB7047FFFF10B53D4C022044F8AF
:101DF000040F012108480023224603F0FBFD0028C0
:101E0000606006D03F2103F007FE10B14FF0FF30B5
:101E100010BD002010BD00BF651E000800210F4C42
:101E20004FF0010C0EE04AB2002A0ADB02F01F0359
:101E30000CFA03F3520944F82230BFF34F8FBFF37B
:101E40006F8F0131CAB2FF2AEDD1054908600168E0
:101E500081F3088840688047FEE700BF80E100E02A
:101E600008ED00E01E48417802780131013A01F0A6
:101E70000F03042A437007D8DFE802F00310192C7F
:101E800003004FF4806027E04FF08061154A002B7B
:101E900008BF4FF480611160002119E088074CBF32
:101EA0004FF080614FF480610E4801607047C907B0
:101EB0000C4A4FF0806108BF4FF480611160817857
:101EC0000131CAB28170032A38BF70470021817086
:101ED000017070474FF0806002490860704700BF92
:101EE000E00100201800024010B51D484FF40072B8
:101EF00004681C492046FEF741FB6FF007006FF0B5
:101F00007041C4F80008C4F804188022C4F8000C1A
:101F100004F58050C4F8041C1349FEF72FFB04F5A8
:101F2000A04012494FF48072FEF728FB104845F29A
:101F30000C21D0E900C2D0E90230605045F20820FF
:101F4000235045F2042022504FF4A44044F800C02E
:101F500004F5A84007495022FEF710FB10BD00BF52
:101F600020010020BCA30008BCA500083CA6000876
:101F70003CA700084CA7000810B500F1280151E863
:101F8000002F12B9BFF32F8F04E0531E41E8003435
:101F900004B1F4E772B12C300121006850B1821C09
:101FA000D2E84F3FC2E8441F04B1F9E71A0602D055
:101FB0000830F2E7002010BD70B5024652F8305FDD
:101FC0004DB1CC7800235DB12E46ED78A5420DD2FF
:101FD00075683346F7E70023C1E90133C1620DE0BC
:101FE0000024C1E9014300F12C0403E0C1E90163CD
:101FF00006F108042160002B18BF1A1D116028305B
:1020000050E8001F4A1C40E8002303B1F8E770BD08
:10201000D1E90123002A0EBFC36293608B68191DAA
:10202000002B08BF00F130010A60704719480068B2
:10203000704700BF18480178012905D105494FF0C4
:1020400080620A60002101701248016841F00101BC
:102050000160704704ED00E04FF0FF307047FFFF74
:1020600040B166490968B1FBF0F0411E0020B0EBB9
:10207000116F02D04FF0FF307047054AFF231370F5
:10208000044A06231360516003490870906070474A
:1020900023ED00E010E000E0680200200248016843
:1020A0004068084001F056BD1400044070B586B089
:1020B00005462C4C860723D0E8070FD0FEF724FDF9
:1020C0004FF400400190022002900020CDE903006F
:1020D0000C20059001A92046FEF7E6FF002E0FD543
:1020E000FEF712FD4FF48040019002200290002084
:1020F000CDE903000C20059001A92046FEF7D4FF8E
:10210000E8060FD5FEF700FD4FF480500190022045
:1021100002900020CDE903000C20059001A9204683
:10212000FEF7C2FF06B070BD70B505460D4C8607C0
:102130000DD0E80704D04FF400412046FEF744FFDD
:10214000002E04D54FF480412046FEF73DFFE806FF
:1021500000D470BD4FF480512046BDE87040FEF7BA
:1021600033BF00BF00040240B0B500F10C01C289CA
:10217000D1E85F3F9A4202D8BFF32F8F04E05C1C86
:10218000C1E8554F05B1F3E7C28999B200209142E9
:1021900038BF0120B0BDFFFF1548416801F00C02B7
:1021A0001449082A03D0042A17D1134915E00268FC
:1021B0000368520203F03F030F4A58BF0A46B2FBBE
:1021C000F3F10268C2F38812022351430268C2F39A
:1021D000014203EB4202B1FBF2F1084A1160406890
:1021E000C0F30310064B185C21FA00F01060704732
:1021F000043802400024F40040787D0148000020AB
:10220000A8A2000810B50E48D0F880100E4C41F47A
:102210007001C0F880100B490A6842F001020A60A0
:1022200000228A600B6823400B60084B4B600B68F0
:1022300023F480230B60CA604FF00061016010BD81
:1022400008ED00E000380240FFFFF6FE10300024E9
:1022500010B5930712D400F12803D0071ED153E81C
:10226000000F084203D1BFF32F8F002005E020EAC2
:10227000010243E8002404B1F1E710BD806A00EADE
:1022800001038B42014618BF002112F0010208BF72
:10229000014653EA020018BF084610BD53E8000F7C
:1022A00000EA01028A4203D0BFF32F8F002005E02D
:1022B00020EA010243E8002404B1EFE710BDFFFF6C
:1022C000B0B5194A0023443215462C683CB1256943
:1022D000A94209D3491B04F10C052346F5E7002464
:1022E000C0E90234016106E0C0E902340161A06086
:1022F0002569691A2161002B18BF03F10C021060D7
:10230000B0BD00BFC16829B1826803698A600A69EB
:102310001A440A618068044A00F10C03002808BFCF
:1023200002F14403196070474C000020416ACA075B
:1023300008D00268D0F828C0536823F4003343EA79
:102340000C0353608A0708D50268D0F82CC0536884
:1023500023F4803343EA0C0353604A0708D502682C
:10236000D0F830C0536823F4802343EA0C03536051
:102370000A0708D50268D0F834C0536823F4004334
:1023800043EA0C035360CA0608D50268D0F838C087
:10239000936823F4805343EA0C0393608A0608D5BC
:1023A0000268D0F83CC0936823F4005343EA0C035E
:1023B00093604A0612D50268D0F840C05368BCF555
:1023C000801F23F4801343EA0C03536006D1536843
:1023D00023F4C00C436C43EA0C035360090658BF56
:1023E00070470168806C4A6822F4002210434860FC
:1023F0007047FFFF10B50446C0070CD000201049FD
:102400004FF4006204F086FA012804DB01460D480F
:1024100042690B489047A0070AD50B48016801F5AF
:10242000006101604FF400610648826907489047E7
:102430000748017801B110BD0321017010BD00BF34
:102440004C670020E4A20008EC0100204C5F002053
:10245000E0010020BCB500240546C467FEF7ECFE91
:102460002968096809070CD503466FF07E404FF4D0
:10247000001100900022284600F0D8F808B103248B
:1024800004E020206867A86785F87040204602B005
:10249000B0BDFFFFB0B5044601688068554DD4E972
:1024A0000323184363690343D4F81CC0086843EA54
:1024B0000C03284018430860486820F4405010433B
:1024C0004860A069226A10438A6822F4306210438F
:1024D000494A9142886018D04848814219D04848FA
:1024E00081421AD0474881421BD0474881421CD0C4
:1024F000464881421DD04648814243D045488142EA
:1025000045D145480168464A17E0434800688108BC
:1025100012E04148006801090EE03F480068810967
:102520000AE03D480068010A06E03B480068010BEC
:1025300002E039480068810B384A01F0030052F884
:102540002020BCF5004F0ED1082A4FF001004CD8D6
:102550003549DFE802F0051E274A214A4A4A25008C
:10256000FFF734FA1AE0082A4FF001003DD82D4950
:10257000DFE802F005252E3B283B3B3B2C00FFF714
:1025800025FA21E02448264A0068810AD5E710226E
:10259000D7E7FFF725FA01E0FFF732FA410001E043
:1025A0004FF48031606801EB5001B1FBF0F04FF661
:1025B000F071014018D0C0F34200084310E0FFF76B
:1025C0000FFA01E0FFF71CFA014601E04FF4004169
:1025D000606801EB5001B1FBF0F080B2102803D32A
:1025E0002168C860002000E001200021C4E9181122
:1025F000B0BD00BFF369FFEF004400400048004059
:10260000004C00400050004000780040007C00403A
:1026100000140140001001409038024020A800083A
:1026200010A800080024F4000048E8012DE9F84350
:10263000DDF82080994616460F46044608F101054C
:102640002068C0693840C01BB0FA80F04009B04231
:102650001BD1002DF4D0FEF7EFFDB8F1000F03D031
:10266000A0EB09004045EBD92068016821F4D07146
:102670000160816821F00101816020206067A0670E
:10268000002084F87000032000E0002001B0BDE8C5
:10269000F083FFFF2DE9F04F89B0DFF8445AEA7A62
:1026A000930702D44FF0FF31AEE00C466FF01401F7
:1026B00051FA80F1052922D8DFE801F00353848D17
:1026C000959D002C00F0A480E868CD4C06280FD022
:1026D0004FF480400490022005900020CDE90600D0
:1026E0000820089004F5823004A9FEF7DDFCEA7AA0
:1026F00042F00800E872206840F008005FE0697965
:1027000095F83520114363D1BD4E3168090702D5D4
:10271000F16949065CD54FF0FF3151FA80F2132A76
:1027200000F2CE806FF006014FF0000A0127DFE8CB
:1027300012F0B2006B006B001400AB00AF00C700DA
:10274000C700C700C700C700C700C700C700C70051
:10275000CA00CC00EA00F8001D014FF0080A042767
:1027600099E0002C64D0E868A54C40F002000628EF
:102770000FD04FF400700490022005900020CDE9A6
:1027800006000820089004F5823004A9FEF78CFCAE
:10279000EA7A42F01000E872A06840F00100A06000
:1027A000606840F040006060206840F08060206019
:1027B000206840F020002060206840F00400206085
:1027C000002121E0002C47D095F8350000284ED09C
:1027D0006FF0010118E08A48016821F0C001016032
:1027E0000021A98610E08648016821F020010160DF
:1027F0000021697108E0D848016821F0E00101601A
:102800000021697185F83510084609B0BDE8F08FE0
:10281000D148016821F00801016002F0F701EA687F
:10282000062AE972CCD000F582304FF4804110E0E6
:10283000C948016821F00401016002F0EF01EA6873
:1028400042F00202E972062ABAD000F582304FF453
:102850000071FEF7B9FBB3E795F8340000210028BA
:10286000D2D0BD48026822F080020260B9E740F28F
:102870000110A886B848016841F0800101608169B3
:1028800041F0020181619BE74FF0020A052702E057
:102890004FF0200A0627C0F302226FF00801072A32
:1028A000B2D8DFE802F0056F04040404767DABE7DC
:1028B00010F440510A4618BF01221303520176E07A
:1028C0006FF00301A0E7EC857AE7E86805287FF45C
:1028D000E9AE002C3FF474AFB06840F00400B06083
:1028E000FFF77EF89D49B1FBF0F1012004E000FB09
:1028F00001F2A24234D80130FF28F8D9B0F5807F28
:102900003FF4D0AE2CE0FF2C4FF0FF313FF67CAF10
:10291000E86806287FF478AF306920F47F402043D0
:1029200022E0E86806287FF4BDAEFFF759F88B492E
:10293000B1FBF0F0C8214143662004FB00F26220A5
:1029400004FB00F3012006E001FB00F7974201D2EF
:102950009F4205D801303F28F6D940283FF4A2AE67
:10296000316921F0FF010843306129E7E868062852
:102970007FF498AE002C3FF423AFB06840F0100015
:10298000B0601DE710F4405F1BD14FF4805320224C
:102990001CE010F4405114D000224FF0805306E0A8
:1029A00000F44051B1FA81F252091307002269B1D3
:1029B000B1F5005F08D0B1F5805F12D143F48063B8
:1029C00004E06FF008011FE743F4C063C0F38131F6
:1029D00003290CD0022907D001290AD102F500529F
:1029E00007E06FF009010FE702F5405201E002F540
:1029F000805210F4403F05D06FF00B0104E700BF98
:102A000000140140DFF85881CDE90123C0471921A6
:102A100048434FEA8409B0FBF9F04FF0640BB0FB78
:102A2000FBF00390C04719214843B0FBF9F84C482C
:102A3000804719214843B0FBF9F0B0FBFBF101FBE3
:102A40001B01A8EB00000844322101EB00100399A0
:102A5000B0FBFBF000F00F0040EA0118404880474F
:102A60001FFA88F10001B0FBF1F066216143000913
:102A700000FB0BF088426FF00701BFF4C5AE622285
:102A8000624390427FF6C0AE3068062F20F001000E
:102A900030604FF00000C6F80C80EF60286110D164
:102AA0004FF4804104910221CDE9051007900820E0
:102AB000089006F5823004A9FEF7F6FADDE9017404
:102AC0001AE0E87ADDE90174000706D406F58230E1
:102AD0004FF48041FEF778FA0EE04FF48040049006
:102AE000022005900020CDE906000820089006F598
:102AF000823004A9FEF7D8FAE86840F00200062800
:102B000016D106F582304FF40071FEF75DFA07F535
:102B10000000346070601E20C6F808A07061306844
:102B200040F001003060E87A40F00400E87247E6C7
:102B3000E87AC006E5D54FF40070049002200590B5
:102B40000020CDE906000820089006F5823004A98F
:102B5000FEF7AAFADBE700BF0014014000CA9A3B67
:102B6000E119000840F23960704700207047FFFF0C
:102B7000A348406A704700BFA1484FF0010C90F88D
:102B8000351019B9114A12682CEA921CB0B5427975
:102B90008379C17902F0010E027A03F0010301F09A
:102BA0000105447A4CEA4E01807A41EA830102F041
:102BB000010241EAC50104F0010441EA021100F0FA
:102BC000010041EA441141EA8010B0BD1C140140EB
:102BD0008B48806A704700BF014800F013B900BFFE
:102BE0009CA70008B0B5864DE97AC90713D12860C3
:102BF0000020E8602421C5F80700686005F1140092
:102C0000FDF718FD7D4C2046FDF78CFF2046FDF7B3
:102C100089FF0120E8720020B0BD00BFE0B50228A6
:102C200019D0012814D0E8B94720FEF7A7FB2548A2
:102C3000016A21F02001016200207149C1F80700FA
:102C4000CA7A486002F0FD0281F83500CA7236E0A7
:102C50006FF0030033E06A49C87AC20705D14FF02C
:102C6000FF302CE06FF0040029E080074FF00000F7
:102C700025D40322C1F807004860134BC1F8320085
:102C8000C1F82E00C1E90300CA720E490A6A42F077
:102C900020020A620A6A02F020020192019A80224E
:102CA000C3F880211A600A6842F020020A6000BF5F
:102CB00000BF00BF00BF0A6822F020020A6002B015
:102CC00080BD00BF2438024008E100E000F09CB95C
:102CD00000F0D4B9811E02290ED3012818BF0028A4
:102CE0000DD1E448006940F40030B0F5003F14BF56
:102CF0004FF0FF30002070476FF0030070476FF017
:102D000004007047B0B5044600286FF0040018BFF7
:102D1000002900D1B0BD1546002AFBD0F04AD07A78
:102D200040074FF0FF30F5D5D368022BF2D10320D6
:102D300010630846294600F067F90028EAD12046CA
:102D40002946BDE8B04000F099B900BFB0B586B0E3
:102D50001F4800254FF4E1310562E24C4562C0E9AD
:102D600000410C21C0E90255C0E90451C0E90655F3
:102D7000FFF708F800B1FEE71648416941F020016D
:102D80004161416901F0200101910199016841F01F
:102D90004001016001A9006800F040000190019825
:102DA0004FF4844001900220CDE9020503200490F5
:102DB0000820059004F58230FEF776F947200021BF
:102DC0000022FEF7FBFA4720FEF7EAFA06B0B0BD94
:102DD000F00500203038024010B54FF48041074C18
:102DE0002046FEF7F1F84FF400712046FEF7ECF8AC
:102DF0000021BB4A0020D17210BD00BF0018024064
:102E0000FC0100202DE9F0414168CA690B681340BC
:102E10009B060ED5036B5F79002F42D0DB68022B37
:102E2000436B0AD1DF69012F07D1496A4FF0000CCB
:102E300005E000214FF0000C3BE0D1F824C0996878
:102E40004F1C9F6081F800C0416809684B0509D498
:102E500011F0102106D0416B4FEA1C268B685F1CD5
:102E60008F601E70436B19691F680131B942196187
:102E70004FF000011DD14768066B3D6825F0806565
:102E80003D60F768022F717112D1D96900270329BB
:102E9000DF6100F0B780022918BF012909D00021A5
:102EA00007E00127496A4FF0000CDF71202100E0A4
:102EB00002211305436844BF1F685FEA47171ED409
:102EC0001F6817403F0659D5D0F834E09EF82040DF
:102ED00024B19F6947F002079F614FE0DEF804408C
:102EE000DEF81450AC4225D0076BFF68022F0CD1DE
:102EF000DEF81C70022F08D1BEF81AC01AE04FF499
:102F0000006741F040011F62DAE7DEF80C60771CD1
:102F1000CEF80C7096F800C0D3F800805FEA4857EE
:102F200008D418F0102705D0B71CCEF80C707678AE
:102F30004CEA062C01351FFA8CF7CEF81450AC423F
:102F40009F621BD11F6827F080071F601F6847F032
:102F500040071F60066BF768022F4FF000078EF8DE
:102F6000217009D1DEF81C70012F07D1F77A0126F4
:102F700026EA1717394301E041F001011F681740A5
:102F80007F0605D51F6841F0080127F040071F6044
:102F9000170706D508271F620126076B41F020019D
:102FA000FE71970706D502271F620126076B41F4C1
:102FB00080717E72D70705D001271F6241F400712E
:102FC000066BB772570701D504271F62D70507D5CF
:102FD0004FF480771F620126076B41F080013E723B
:102FE000920501D429B90BE04FF400721A6241F442
:102FF0008061006B02681AB10846BDE8F0411047D5
:10300000BDE8F081042154E710B500286FF00402F8
:1030100018BF002901D1104610BD314AD37A5B0791
:1030200002D44FF0FF32F6E75379012B1DD02D4C1F
:10303000236823F02003236000235161C2F8073086
:10304000D061012053620C4B5071206818432060FE
:10305000D06802280CD1106B50B90220106302F125
:103060002E0000F00BF8023002D16FF00102D2E71F
:103070000022D0E7FC0100202000000402460028C6
:103080006FF0040018BF002900D170471448C37ABC
:103090005B0702D44FF0FF30704790F8353013B122
:1030A0006FF001007047012380F835300262002282
:1030B000C368022B816182620BD1026B4AB980B571
:1030C000012202632C30FFF79FFF0230BDE88040F1
:1030D000E6D00448016841F080010160002070479B
:1030E000FC010020001401400048704704020D015B
:1030F0000146002007F024B802460B460020114686
:103100001A4607F025B8FFFF10B5624CE06A804709
:10311000C0070DD1002007494FF4006203F0FAFB0D
:10312000012805DB014662690248BDE810401047EE
:1031300010BD00BF4C670020704700207047FFFFA4
:10314000464A0146D2F80B009368C1F803000120FB
:103150000B60704710B54F4906488A680C69904764
:103160000220A04704480021044A02F01FFC4849FD
:10317000086010BDF5230008A10A0008ECA70008AC
:1031800010B544480021846A1820A0471920002166
:103190002246BDE8104010470020704701207047CC
:1031A000F8B5264E0446B76A182000210025B84716
:1031B00019200021B84715200021B847162000210A
:1031C000B8472179481EB0FA80F04009022994F9E5
:1031D00005104FEAC03008BF4FF4804002292AD8BA
:1031E000A279053AD3B2032B24D815A352B253F8CF
:1031F000211016A353F82220084310432168B84732
:1032000000284FF0000516D12068D4F80310134AA7
:10321000C2F80B1001219060152015605560012542
:10322000B84716200121B847B2694FF400610C4835
:10323000904700E00025284601B0F0BDE4A2000858
:103240000000000000200000001000000105000048
:10325000010600000107000001000000EC01002051
:103260004C5F0020B0B50A4C206802F0B1FB08B9F1
:103270000020206007480021D0E90354826A192009
:1032800090470020A0472846BDE8B040004700BF57
:103290006C040020E4A20008002070470020704762
:1032A00000207047002070470020704700207047C2
:1032B0000020704700207047704770477047704784
:1032C00000207047002070470020704700207047A2
:1032D0000020704700207047002070470020704792
:1032E00070477047704770B500250446012607E017
:1032F00044B90020002603F08BFE002818BF0546C5
:10330000F007F5D1012607E044B90020002605F0BA
:10331000DFFD002818BF0546F007F5D1E8B270BD03
:1033200070B500250446012607E044B900200026B8
:1033300004F0A2F8002818BF0546F007F5D10126D1
:1033400007E044B90020002606F0B6FA002818BFAE
:103350000546F007F5D1E8B270BD002070470020A7
:10336000704770470020704780B500F057FFBDE8F8
:10337000804001F0CFBC7047704770470020704715
:1033800000207047704700207047704770477047B3
:10339000FFF7FBBF7047704770477047ED484078B4
:1033A000012806D1ED48016821F0020101600020EA
:1033B00070474FF0FF307047E6484078012806D14B
:1033C000E648016841F002010160002070474FF0BB
:1033D000FF307047DF480069704700BFDD48407824
:1033E00001280ED110B5DD4C206840F001002060AE
:1033F0000520FDF72FFD206820F00100206000204F
:1034000010BD4FF0FF307047D2494978012906D1ED
:1034100004490A6860F30A1200200A6070474FF0FE
:10342000FF307047000804400020704700207047BC
:103430000020704700207047002070470020704730
:1034400000207047002070472DE9F84300F00F0777
:10345000072F0FD815466FF3DF2516460C4610F0E0
:10346000800903D043A131F8171001E040F20C416C
:103470008D4204D96FF0040001B0BDE8F083B54976
:10348000497801290DD1790041EAD010B24900EB09
:10349000400001EBC008D8F8100028B16FF001001F
:1034A000EAE74FF0FF30E7E718214046FDF7C2F8A2
:1034B0000121A8F80E504046012C00F8141F04D139
:1034C000C6F3C121027811440170B9F1000F2D48F3
:1034D00026D0B90541EA844100224B1988F815200D
:1034E00004F0FE0500F1E4017E01022D8B514FEA4C
:1034F000C70205D151F8223043F0805341F8223001
:1035000051F8223043F4004341F8223051F8223080
:10351000B3F1FF3F1FDC51F8223043F0804318E045
:1035200045EA844104F0FE0201F1006300F53971BF
:103530007E01022A8B514FEAC70205D151F8223091
:1035400043F0805341F8223051F82230103743F4D1
:10355000004341F8223001210268B9401143012C97
:10356000016004D10848016841F400410160002075
:1035700082E700BF0002000200020002E000E0005B
:10358000E000E0001C08044018000440B0B500F062
:103590000F02274D510041EAD010E84900EB4000EE
:1035A00001EBC0045001E189285800F44020B0F537
:1035B000802F06D1204610F8143F012B01D000784F
:1035C0004143234688B253F8041F81424FEAC201A7
:1035D00001D8186880B2237D002A40EAC34003D096
:1035E00005EB8102106102E000F1C040286155F84E
:1035F000210000F44020B0F5802F11D1C54840785B
:1036000040B10C482858C00555F8210004D540F0B9
:10361000805003E055F8210040F0005045F82100AB
:1036200055F8210040F0044045F82100B0BD00BF2E
:10363000000B044008FDFFFF10B5024600F00F002C
:10364000072802D96FF0040162E0B24B5B78012BCE
:103650000CD14300B94C43EAD21303EB430304EB10
:10366000C3031C692CB16FF0010151E04FF0FF3131
:103670004EE0002902F0800211D022B34201A64997
:103680008A58B2F1FF3F4FEAC00259DD51F82230AB
:1036900043F4001341F8223000F022FA37E000240E
:1036A0009D49002A5C754FEAC0009C751DD051F8F9
:1036B0002020B2F1FF3F1ADC51F8202042F0804276
:1036C00041F8202013E0254A1168264C41F400718E
:1036D0001160234909686FEA91131159090619D439
:1036E00001334FF0FF31F8D112E001F5007151F8CC
:1036F0002020120305D551F8202042F0805241F8D5
:10370000202051F8202022F4001241F8202000212E
:10371000084610BD804901EB4010D0F800124FF46C
:1037200000130029D0F80012BCBF0023C4F220030C
:103730001943C0F80012106840F480601060E6E79A
:103740000120D875084B51F82200184341F8220097
:10375000DDE700BF380200207004002004080440A8
:103760004800002010F8FFFF00002040B0B560B90D
:103770000546A1F181000C46022801D3022C03D199
:103780000020214603F0F2F905B1B0BD44F08000FD
:103790008328FAD100202146BDE8B04005F0DEB90B
:1037A000002818BF7047A1F18100022801D3022927
:1037B00002D1002003F026BA7047FFFF70B500F079
:1037C0000F03072B02D96FF0040070BDDD4D6D783B
:1037D000012D0ED15D00BF4C45EAD01505EB450E1D
:1037E00004EBCE0C654655F8106F2EB16FF001005A
:1037F00070BD4FF0FF3070BD01262E60060644F804
:103800003E104FF00001CCF80420CCF80810ACF8C2
:103810000C104FEAC3010CD4174A02EB8101D1F816
:10382000F01201F44021B1F5802F23D0FFF7AEFE56
:1038300020E0114800F1F00353F8216006F440261F
:10384000B6F5802F16D012B901228CF8162001226D
:103850008CF8152053F8212042F0806243F8212093
:1038600053F8212042F0006243F82120016841F022
:1038700040010160002070BD10080440014600F0C6
:103880000F00072802D96FF004007047AD4A527844
:10389000012A1ED110B542008E4B42EAD11202EB32
:1038A0004202090603EBC2041B4A4FF000034FEA31
:1038B000C00163606375A3750ED402F5007050F803
:1038C0002120B2F1FF3F50F8212013DD42F00062C9
:1038D00012E04FF0FF30704752F82130B3F1FF3F54
:1038E0000DDD52F8213043F0006342F8213000F042
:1038F000F7F80CE042F0904240F8212007E0012068
:10390000E07552F8210040F0904042F8210000207C
:10391000206110BD380200200009044000F00F01B2
:10392000072901D900207047490041EAD0106949B0
:1039300000EB400001EBC00080687047700400207D
:10394000F8B500F00F04072C02D96FF00400BEE0B8
:103950007C49497801290CD161005E4A41EAD011C5
:1039600001EB410102EBC102116929B16FF00100C5
:10397000ADE04FF0FF30AAE0C109574D44EA011114
:1039800081F01001012303FA01F12B6823EA010100
:1039900000F08006296018211046FCF74BFE05F563
:1039A000397260011058E10000F44020B0F5802F1A
:1039B00008D005EB8100D0F8E40000F44020B0F519
:1039C000802F25D100202023AC46E43514E0D758C1
:1039D0003F0406D5D75807F44027B7F5802F08BF16
:1039E0000130EF583F0406D5EF5807F44027B7F5EC
:1039F000802F08BF01302033B3F5807FE7D1C0B2FC
:103A00006546012804D13548436823F400434360E8
:103A10009EB9324BD3F8F0072F4640F40070414E68
:103A2000C3F8F00730686FEA90151868000620D4D4
:103A300001354FF0FF30F8D149E005F1E40050F8CE
:103A40002120B2F1FF3F05DC50F8212042F08042F6
:103A500040F8212050F82120002C42F0006240F86C
:103A6000212033D050F8212022F4004240F82120B8
:103A70002CE052F82100002C40F0006042F82100B8
:103A80001ED052F82100B0F1FF3F13DC52F82100A4
:103A900007F53B7740F0804042F8210030686FEA3C
:103AA000901657F82100800704D401364FF0FF30FC
:103AB000F7D10CE052F8210020F4004042F8210038
:103AC000D3F8F00740F48060C3F8F007002001B09D
:103AD000F0BD00BF700400201C0804401400044026
:103AE000DFF840C00E49DCF800306FEA93130A6833
:103AF000920602D50133FAD110E00A6860F38A1207
:103B00000A60086840F020000860DCF800006FEAF6
:103B100090100A68920601D50130FAD1704700BFB3
:103B200010000440480000200020704705484078FD
:103B3000012804D104480068C0F30D20704700201C
:103B4000704700BF38020020080804400048704752
:103B500003020E012DE9F04F85B08046C74DC00429
:103B600012D54FF480502860686840F00800686003
:103B700000F0C6FCDFF89C0D0122016962F34301ED
:103B800082680161042090475FEA08500BD54FF42A
:103B900000602860DFF87C0D016921F008010161F7
:103BA000816810208847B8F1FF3F0BDC4FF00040E0
:103BB0002860DFF8600D016941F00801016181684A
:103BC000202088475FEA8840AD4B27D54FF400504E
:103BD00028601868C0F3410003280CD090B9DFF8C2
:103BE000340D0222016962F34201826801610820FA
:103BF0009047A34B06E0DFF81C0D0122016962F338
:103C000042010161D5F8F00740F48070C5F8F00773
:103C1000D5F8F00740F48060C5F8F0075FEA087057
:103C2000DFF8F04C11D5206910F008000DD168685C
:103C300020F00800686008202860206940F0080033
:103C400020612020A16888478D4B5FEAC86040F161
:103C50009480E868C0F34341022914D0062940F05B
:103C60008C80D3F8F80781B2A061D3F8F827B1F5BA
:103C7000A06FE26104D1C0F30740FFF7C5FB804BA2
:103C80000120207079E000F00F0103F53E734F0131
:103C9000C0F30A12D85900046ED54800DFF8707CD2
:103CA00000EB400057F83060002E65D007EBC000F5
:103CB000064656F8047FC900974238BF326853F869
:103CC000213003F44023B3F5802F28D16C4C04EB52
:103CD0008101037DD1F80873C7F3C945D1F80813F2
:103CE000C1F34177032BA3EB05010CD0022B04D0C9
:103CF000012B40F02182002F0FE002294FF000033A
:103D000008D1022F1BE203294FF0000300F01682B6
:103D1000022901D0012903D1032F18BF0022134625
:103D20000146026851F8087F554C17449AB20023A7
:103D3000A3EB920304E0D4F8F857013347F8045B8F
:103D4000002BF8D10B689D1812F003030D600BD007
:103D50004B49D1F8F8570021049504AD02E06C5CA2
:103D60007C5401318B42FAD1C089824202D1306841
:103D7000801A00E000203060414B5FEA0830CDF847
:103D8000048040F1908018690122596903F540765A
:103D90000840040C03F53E774FF0000A5FFA8AF5FD
:103DA00002FA05F0204276D0680130584FEAD51962
:103DB000D96865F3440901EA000B5FEA8B704FEAAA
:103DC000C5082ED557F8280000F44020B0F5802F04
:103DD00024D109EB4900DFF8381B01EBC000017D5D
:103DE000406840EAC14003EB8801C1F80803E1489C
:103DF000407838B11868C00557F8280004D540F05D
:103E0000805003E057F8280040F0005047F82800A1
:103E100057F8280040F0044047F82800022046F8F0
:103E200028005FEA0B7010D509EB4900C74901EB88
:103E3000C00000214160082046F828000121CD483B
:103E4000C268284690470122BF4B5FEACB7022D060
:103E500009EB4900BD4946F8282001EBC000416844
:103E600081B103EB8800D0F8F80200F44020B0F5EF
:103E7000802F10D02846FFF789FB0AE01400044089
:103E800008080440002101610221BA48C26828469E
:103E900090470122AC4B0AF1010A5FFA8AF034FA2A
:103EA00000F07FF47BAF0198400340F1BD801869BA
:103EB0004FF0010C596903F58077084085B24FF047
:103EC0000008CDE902575FFA88F00CFA00F42C42A2
:103ED00000F0A280410179584FEAC0099A6840F089
:103EE000800602EA010B012160F344015FEA8B7254
:103EF00001EB4101954A02EBC10A37D5022147F88F
:103F00002910514611F8172F012A09D100220A70F1
:103F1000FFF7E6FDDDE902574FF0010C8A4B25E083
:103F200003EB8901D1F8F81001F44021B1F5802F9D
:103F30001CD190494968214218D0FFF7D1FDDAF829
:103F4000000048B1BAF80C00DAF804100844CAF8C6
:103F50000400304600F060FC86484FF0010C01463A
:103F60004068A043784B4860DDE902575FEA4B6048
:103F700027D5524612F8150F00B3002073491531AA
:103F80001070002203E011F8303B01321843062A7A
:103F9000F9D900286C4B03D1986820F04000986054
:103FA000DAF8040010B99AF8160038B1304600F07B
:103FB00033FCDDE902574FF0010C634B402047F81A
:103FC00029005FEACB7027D047F829C0BAF80C0067
:103FD000DAF808100844CAF80800DAF8040060B1FA
:103FE00003EB8900D0F8F80000F44020B0F5802FF2
:103FF00012D0304600F010FC09E00020CAF80000A2
:104000000421CAF810005B48C26830469047DDE9D9
:1040100002574FF0010C4C4B08F101085FFA88F091
:1040200035FA00F07FF44FAFDDF804905FEA094005
:10403000DFF8E0A87DD54FF44210DFF8D48809F40A
:1040400000144049086003F54675012602272FE059
:10405000286800F44020B0F5802F26D1286800049D
:1040600023D564B947EAD61000EB400008EBC00046
:104070004068D0B1F0B2FFF789FA334B15E09AF8F7
:104080000100012803D11868C0F30D2000E00020D2
:10409000296880EA1140C00707D12868B0F1FF3FC6
:1040A00003DC286840F08040286001360237203564
:1040B000102FCDD109F4801403F58C7508F14C064E
:1040C0004FF00108012732E0286800F44020B0F5E5
:1040D000802F29D12868000426D544B9306818B348
:1040E00047F08000C0B200F097FB174B1CE0286837
:1040F000B0F1FF3F18DC9AF80100012803D11868DD
:10410000C0F30D2000E00020296880EA1140C007BC
:104110000AD108FA07F0DAF804100843CAF80400D4
:10412000286840F090402860013720353036082F4D
:10413000CAD105B0BDE8F08F0023F1E5012F08BF1B
:104140001346EDE514000440080804407004002004
:1041500010B5EA4CA278002A09D1C4E90201064848
:10416000022101700320FDF7A1FF0120A0700020B3
:1041700010BD00BF38020020295F002001207047D9
:10418000034A4FF40073026001200B60704700BFC8
:104190006C020020002070474FF4C0724FF400738F
:1041A000026001200B607047FDF79EBEFFF7E6BF7F
:1041B00008461146FFF7F0BF084611461A4600F0C0
:1041C00009B8084600F012B8084611461A4600F031
:1041D00011B8FFFF80B50F4B03EB402310464A0296
:1041E0001946FCF786F9012080BD00BF002070470A
:1041F0007047FFFF80B5074B03EB402013464A0290
:104200001946FCF776F904480121006801F090FB9B
:10421000012080BD0000012060020020B0B5114DDA
:104220000446296859B900F0B1FD80024FF47A7153
:10423000B0FBF1F10C48B0FBF1F0C5E90010601CD7
:1042400002280DD3B1F5806F0AD06868A04202D26F
:104250006FF0010404E001FB04F000F2FF30840A77
:104260002046B0BD5802002000FCFFFFF8B5022830
:1042700045D001284BD000284CD1904D2868924958
:10428000002440F080408B4E2860286800F0804079
:10429000009000984FF40050C1F88000BFF34F8F9A
:1042A000BFF36F8FC1F880018549C54844700A6823
:1042B00042F002020A60B16821F00101B16055F8D4
:1042C000201C41F0005145F8201C4FF4C0710470CF
:1042D0000461BC48FCF7AEF9286820F080402860F3
:1042E000686920F0004068617848016841F0010188
:1042F0000160B463286820F000502860D6E0B04C1C
:10430000A078012809D1607850B10024CEE06FF088
:104310000304CBE06FF00404C8E04FF0FF34C5E0C5
:10432000664F3868634D644E40F00050386038681E
:1043300000F0005000900098786940F000407861EB
:10434000786900F0004000900098386840F08040A4
:104350003860386800F080400090009857F8200CD2
:1043600040F0005047F8200C0220FCF773FD57F88E
:10437000200C20F0005047F8200C0220FCF76AFDCA
:10438000A86B6FF0630720F48030A863E86820F022
:104390004010E860E86820F01000E860A86B40F486
:1043A0000000A863B06940F00400B06105E0002F90
:1043B0007AD00120FCF74EFD0137B0698007F6D5B1
:1043C0000A20306040F61371F0680843F0603068EE
:1043D00040F0010030600220FCF73CFD6FF0630606
:1043E00005E0002E60D00120FCF734FD013628697D
:1043F0000028F6DA28696FF0630640F001002861B2
:1044000005E0002E50D00120FCF724FD013628697C
:10441000C007F6D10120FCF71DFD6FF0630605E033
:10442000002E41D00120FCF715FD01362869002837
:10443000F6DA2348016841F002010160E86840F4BF
:104440007050E860E868400002D5E86880000AD54E
:10445000E86820F00050E860E86840F08040E860DC
:104460006420FCF7F7FC00F04BF8A86B164920F429
:104470000010A863286840F040002860286840F0D9
:1044800080002860D5F8000820F00300C5F8000877
:104490000C48A861A86840F08100A8600120607005
:1044A0004FF40050086030E76FF00204204601B07E
:1044B000F0BD00BF00000440007C014030380240E5
:1044C0000408044010380C8008E100E0000E0440AD
:1044D000D0494A78012A0DD10A785AB100220A70CF
:1044E000D1E90623436002600878002818BF4FF026
:1044F000FF3070474FF0FF30704700BF3802002098
:10450000B0B5C4480025C0E9065505704FF4C07128
:104510002C482A4CFCF78EF820206561DB212561B0
:104520005B2219E02318D3F800532030002D4FF000
:104530000065B8BF4FF09045C3F80053D3F8005161
:10454000002D4FF00065B8BF4FF09045C3F8005103
:10455000C3F80811C3F80823B0F5807FE2D110201A
:10456000FFF7BEFA2068184920F4FE6020604FF083
:104570000110E0610B206061032020614FF4907016
:104580000860124800F180024860C1F8E02000F5A0
:10459000807200F5C070C1F8E420C1F8E8000C4852
:1045A00000F13802C1F8EC00C1F8F02000F170020F
:1045B000A830C1F8F420C1F8F800B0BD00080440EC
:1045C00038020020700400202400044020018000F4
:1045D0002003380000B1704780B5002002F0E2FEF1
:1045E0000020BDE8804005F015B800280AD010B5BD
:1045F00004460846FFF712FE01462046BDE810407B
:1046000001F01CB94FF0FF307047FFFFF8B50023F1
:1046100001280393CDE90133009303D0B0B959B118
:10462000002313E000294FF000030FD1072A0DD813
:10463000084800EB021000E00748029010200390A9
:104640006A460120012101F035F90346184604B0FD
:1046500080BD00BF3C2C00202C2C002008B101F0B4
:1046600017B94FF0FF30704708B101F035B94FF07E
:10467000FF3070477047FFFFB0B58AB00C46054663
:1046800001A82421FBF7D6FF062D4FF0000000F211
:104690007980DFE805F00477770A32775A00002C3A
:1046A00054D143480021434A6AE0002C4ED1364899
:1046B00004EB041150F83400344A019002EBC100BD
:1046C00003904421600004910021314A034603E035
:1046D00052F8085B013B2944002BF9D121F0070176
:1046E0002C4A114405912A4951F8302001EBC000B1
:1046F000406806920790284840E03CBB6000224991
:104700000130224B51F8201000EB0012019103EB15
:10471000820103914421049100211D4A034603E0D4
:1047200052F8085B013B2944002BF9D121F0070125
:10473000184A11440591164951F8302001EBC00088
:10474000406806920790154818E00CB1002019E067
:10475000134804EB041150F82400124A019002EBB4
:104760008100039044201049049001EB44200590FF
:104770004FF400700690202007900C4801AA2146B3
:1047800001F014F90AB0B0BD80AD0008202F002060
:1047900030A800082859002081700008F16A00083C
:1047A000C4AD0008A82F0020285D00202198000833
:1047B00039770008FCAA0008002801D001F0B8B839
:1047C0000020704780B5FFF729FD02464FF6FF70C5
:1047D000002101F0D9F8B0F1FF3FC8BF80BD6FF0F4
:1047E0000101401A18BF0120C00780BD08B101F0C7
:1047F000EFB84FF0FF30704780B50320FDF794FC11
:104800000348002101700020424A917080BD00BF22
:10481000295F0020380200202DE9F04300F00F0945
:10482000DFF8ECE04FEA490242EAD010374A00EBE9
:10483000400C0EEBCC004FEA4914B0F80E8014592E
:1048400004F44024B4F5802F07D1044614F8145F13
:10485000012D02D0247808FB04F804461FFA88F5DD
:1048600054F8046FAE424FEAC90603D8D4F800806A
:104870001FFA88F502EB8607BB69B5EB830F42D8B8
:10488000037D1146027D45EAC34343EA42723A6121
:104890000F4651F8262002F44022B2F5802F14D1A1
:1048A0001C4A52784AB157F8F82CD2053A4657F8C4
:1048B000267005D547F0805704E03A4657F8267031
:1048C00047F0005742F82670174657F826204FEA5F
:1048D000093142F0044247F826205EF83C20836804
:1048E000A0F80C809E18236807F5E0625B1B002788
:1048F0002360EB1C8775980803E056F8043B0138E9
:104900008B500304F9D1BDE8F08300BF00090440D7
:10491000700400203802002000F00F02F64B09015D
:104920001A44034BB0F1FF3FC8BFC2181170704763
:1049300000E400E010B5044601F080F830B12068D2
:104940004FF0FF31BDE8104000F0E0BA10BD006844
:1049500000F0EEBA10B50446002000F0FBFA002883
:10496000206001D0012010BD0520214600F016FB7B
:10497000002010BD10B5044601F060F820B1206899
:10498000BDE8104000F0F8BA10BD00F013BAFFFF08
:104990002DE9F0410446DFF8448000F540370E4D24
:1049A000064610E03068A8420CD118224046314635
:1049B000FBF773FD30B9B169204600F071F8F16979
:1049C000884205D01036BE42ECD30020BDE8F0810D
:1049D0000120BDE8F08100BF415050490CAA0008F9
:1049E0002DE9FE431D4C04F5405805460DF1040920
:1049F00000271BE020680028029016D0002612E055
:104A0000029820FA06F101F00301A94212D003290D
:104A100012D01E2E06D10122019720464946FCF7EE
:104A2000F1F9B0B902361F2EEAD904344445E1D376
:104A300000270EE001270CE065F00301B1400840BB
:104A4000029002A901222046FCF7DCF9B0FA80F0BE
:104A50004709384603B0BDE8F08300BF00D0000826
:104A6000002003F099FE002002F064FD002002F017
:104A70004FFD0028FAD0FDF7B7F906480021064A95
:104A800000F094FF054908604FF0FF3000F042F954
:104A9000FEE700BFFD060008C0A20008600200207B
:104AA0002DE9F8434FF0FF35104E89468046002728
:104AB00012E018F807000821082400F0D1FF85EA69
:104AC000006506E06800002DB8BF86EA4500013C9D
:104AD00005462006F6D101374F45EADB202128465E
:104AE00000F0BEFFC04301B0BDE8F083B71DC104B4
:104AF000B2B0814DFCF726FC0120ADF804004FF068
:104B00000050029012208DF80C0003208DF80F0049
:104B100000264FF48030ADF80D600DF104080490CC
:104B20004046FCF7E7FB0420FCF716FC28688003EE
:104B300011D4BFF34F8FBFF36F8FC5F83C62BFF343
:104B40004F8FBFF36F8F286840F400302860BFF3A9
:104B50004F8FBFF36F8F2868C00326D400202867CB
:104B600043F6E07CBFF34F8FE96EC1F34E30C1F3E3
:104B7000C901CF438C070CEA40162246394642EA67
:104B800006030131C5F84C3202F14042F7D100284A
:104B9000A0F10100EFD1BFF34F8F286840F48030BF
:104BA0002860BFF34F8FBFF36F8F544DFCF76AFB44
:104BB000002608F104007C21CDE92A66CDE92866AB
:104BC000FBF738FD4E480168022441F08051016036
:104BD000006800F08050219021984A48295841F4FB
:104BE00040412950285800F440402190219801204C
:104BF00026904FF4803027904FF480002C942D9015
:104C000019202E904FF4D870CDE92F04092031904F
:104C100026A8FCF723FFFCF701FC0F2021A951C1B6
:104C20004FF4A05024904FF48050259021A80721E4
:104C3000FCF734FE34480190404615961E96FCF76A
:104C400023FCFDF7A9FAFBF731FEFEF77FF84021C0
:104C50002846FCF7EBFAD0B3C820FCF7FBF840215C
:104C60002846FCF7E3FA90B380212846FCF7DEFAE9
:104C700038B101F081FD022822D0012827D1234C30
:104C800021E0C820FCF7E6F880212846FCF7CEFAA0
:104C9000E8B91E4C2046FFF77BFEC0B104F5403555
:104CA0002846FFF775FE90B101F066FD02281CD082
:104CB00001280CD10220FFF793FE2846FDF7AEF83D
:104CC000124800F540342046FFF762FE80B900F03C
:104CD00071F800210E48002200F068FE00F02CF868
:104CE000012801D100F07CF8FEE70120FFF778FEF3
:104CF0002046FDF793F800BF14ED00E000000240ED
:104D0000403802400070FEFFC00C20000000010887
:104D1000614A0008EFF3058129B9EFF3108111B959
:104D2000EFF3118111B16FF005007047DFF804C097
:104D300000DF7047815A0008EFF3058048B9EFF3B0
:104D4000108030B9EFF3118018B9EFF31480C00769
:104D500002D10C48007A7047DFF804C000DF7047CA
:104D6000955A0008EFF3058028B9EFF3108010B9C9
:104D7000EFF3118010B10348C0687047DFF808C036
:104D800000DF70474C0000209D5A0008EFF30580BB
:104D900028B9EFF3108010B9EFF3118010B1034878
:104DA00040687047DFF808C000DF704708A20008BD
:104DB000A95A000880B500F0F3F8EFF3058028B990
:104DC000EFF3108010B9EFF3118010B16FF0050010
:104DD00080BDDFF808C000DF80BD00BFB55A000805
:104DE000EFF3058028B9EFF3108010B9EFF31180CD
:104DF00010B16FF005007047DFF804C000DF7047A6
:104E0000FD5B0008F8B514460E460546EFF3058035
:104E100028B9EFF3108010B9EFF31180F0B16FF003
:104E200003000DB303BBFEB12978FA291CD1284633
:104E3000FDF7A2F878B16A6A074600F10C01304626
:104E4000FBF757FB0CB1F87820703846FD6000F096
:104E500065FA0020F8BD6FF00200F8BD2846DFF8C3
:104E60000CC03146224600DFF8BD00BF815C00085F
:104E7000EFF305832BB9EFF3108313B9EFF311832D
:104E80000BB100207047DFF808C000DF704700BF9B
:104E9000615D00082DE9F04190460D460646EFF3AE
:104EA000058028B9EFF3108010B9EFF3118018B323
:104EB0006FF00307EEB1E3B9DDB13078FA2818D10D
:104EC00006F10C0000F0E6F888B1726A04460C3076
:104ED0002946FBF70EFB0027F920C4E9015684F8A8
:104EE0000380A7702070204600F018FA01E06FF0F0
:104EF00002073846BDE8F0813046DFF80CC029468D
:104F0000424600DFBDE8F081915E0008EFF30582C4
:104F10002AB9EFF3108212B9EFF3118212B16FF0D8
:104F200005007047DFF804C000DF70474D5F0008E0
:104F3000EFF3058129B9EFF3108111B9EFF3118176
:104F400011B16FF005007047DFF804C000DF704753
:104F5000E15F0008EFF3058129B9EFF3108111B982
:104F6000EFF3118109B100207047DFF808C000DFBE
:104F7000704700BF8D600008EFF3058129B9EFF39A
:104F8000108111B9EFF3118111B16FF00500704775
:104F9000DFF804C000DF7047F5600008FEE7FEE7B9
:104FA0007047F0B5002390B389B3032A2FD8034686
:104FB00053F8084F0F3121F007012546E61A5C68C7
:104FC00024F00307F61B8E4205D22C682B46002CDA
:104FD000F3D100231BE0D0E900650D444560304467
:104FE00050F8046CAE4202D2083845605C6854B197
:104FF000186824F00304E05041EA0200E118486018
:1050000019600B4602E041EA020058600833184676
:10501000F0BDB0B50022E8B1E1B100F10804A1F1A2
:1050200008020023944206D0254624682B46002C13
:10503000F8D100220EE051F8045C446825F0030525
:10504000641B446013B11068186002E0002041F84E
:10505000040C01221046B0BD08B1420702D0002264
:105060001046704700221829FAD311F00703F7D130
:1050700010B50A18A2F108038360002342F8083C27
:105080008268102454600122C0E90014C360BDE8A6
:105090001040E5E710B5002817D0014600F11402D2
:1050A00052E8000F10B9BFF32F8F04E0036842E805
:1050B000003404B1F4E740B1043151E8002F531C2F
:1050C00041E8003404B1F8E710BD002010BDB0B5D0
:1050D00000281ED0C2688A421BD802698A4218D9A9
:1050E00000F1140213680B60BFF35F8F52E8003FBA
:1050F0000C689C42F6D142E8001505B1F2E7043095
:1051000050E8001F4A1E40E8002303B1F8E70020E2
:10511000B0BD6FF00300B0BDB0B504460020ACB127
:10512000A1B19AB193B10020C4E9001004F10800C4
:1051300002FB01352CC0481E636120B1991819602B
:1051400001380B46F9E7002018600120B0BDF8B522
:105150000446807868B3E56821462846FCF758FF86
:10516000002005F10C06207030462146FFF7AFFF06
:10517000A868E8B13046FFF78DFFC8B1044628465D
:1051800000F006FA002100220646002700F0BCFAD3
:10519000304600F05DFA81686A6A064604F10C0048
:1051A000FBF7A7F9F920A7702070F068E07025E000
:1051B000F8BDA568A86808B3407883281ED12846A2
:1051C00000F0E6F9002100220646002700F09CFAD4
:1051D000304600F03DFA064680686A6A04F10C0128
:1051E000FBF787F9F06808B1E1780170277005F1E5
:1051F0000C002146BDE8F840FFF769BF284621466C
:10520000BDE8F840FCF7D8BE2DE9F0410446002780
:105210004FF00108D4B12546E87864690007F9D554
:105220002F76A8680028F5D0284600F0B1F90021B3
:105230000022064600F068FAC5E90367F06A686173
:1052400000B1056185F81880F562E3E7BDE8F081FB
:10525000B0B5C278920715D5C068C36A90F821200E
:105260009C688C4208BF8C682CB194F9204055B2E0
:10527000AC42C8BFE2B25B69002BF1D190F82010BC
:10528000914200D1B0BD80F82020BDE8B04000F0D0
:10529000AEB9FFFF70B5ED4C04F1560504F15A06A6
:1052A000B4F85400D5E85F1F11B9BFF32F8F04E0A5
:1052B0004A1EC5E8532F03B1F4E7090429D0D6E804
:1052C0005F1F4A1C904200D80022C6E8532F03B14A
:1052D000F5E788B2E16D51F82000D0B10178F139DD
:1052E0000829DDD8DFE801F006050905050C0F05E2
:1052F0001200D5E7216E8847D2E7616E8847CFE775
:10530000A16E8847CCE7E16E8847C9E7216F8847DF
:10531000C6E70020BDE8704000F0E6B870B5014671
:10532000EA4800F15603B0F85420D3E85F4FA24298
:1053300002D8BFF32F8F04E0651CC3E8565F06B1A7
:10534000F3E7A3B2934214D200F15803D3E85F4FBE
:10535000651CAA4200D80025C3E8565F06B1F5E7F0
:10536000C36DA2B243F82210417A39B10121817292
:1053700070BD0220BDE87040FFF710BE02484FF03C
:105380008051016070BD00BF04ED00E010B5816880
:10539000B1B100F10C01D1E85F2F12B9BFF32F8F2B
:1053A00004E0531EC1E8543F04B1F4E7110407D0F0
:1053B00000F0EEF800210022BDE8104000F0A4B992
:1053C00010BDFFFF10B501214170CE4990F920308A
:1053D0001C310A46896841B191F920409C42F8DCB1
:1053E000C0E9021290600C3104E00021C0E9021211
:1053F00002F10801086010BDB0B54A1C0DD0EA4AA0
:1054000000242C3215462B68DBB1DD69A9421AD382
:10541000491B03F110051C46F5E7F1490023303123
:105420000C461A46236803F11004002BF9D14FF003
:10543000FF33C3610023C0E904329AB102F11001C5
:1054400010E0002500E00125002CC0E90434C16112
:1054500018BF04F1100210602DB1DA69511AD96138
:1054600003F114010860B0BDC2690169531C0AD080
:1054700021B143694B61CB691A44CA6142693AB9A7
:10548000ED48C162704709B142694A6142691AB187
:105490000023436111617047E7480163704700BF13
:1054A00070B5E54DEC6A1CB1E0690138E06100D0EF
:1054B00070BD042660781338B6EB301F05D1204646
:1054C00000F08FF82146FFF7C3FE204600F07FF87A
:1054D000204600F0B3F8246924B1E0690028E9D03F
:1054E00000206061EC6270BDB0B50546D2484469E9
:1054F000017A65B1022905D194F9200095F92010AF
:10550000814211DC2846BDE8B04000F097B802297E
:1055100012D1456A85B194F9200095F92010814295
:105520000ADD284600F053F82046FFF74BFF2846D7
:10553000BDE8B04000F0C4B8B0BD00BF10B504462F
:1055400000202080A07881070DD5C00605D4BA4878
:10555000216B406FFFF75DFD05E0B748216BD0F888
:105560008400FFF7B4FDA078C00708BF10BDB249A2
:10557000D1F8880020B12146BDE81040FFF7A7BD53
:10558000D1F880002146BDE81040FFF742BD00BFC2
:105590000146806882688A6002B1D1600021C160E2
:1055A000704710B591F920300246806840B190F9FB
:1055B00020409C42F8DAC1E9020291600C3004E01C
:1055C0000020C1E9020202F10800016010BDC168BB
:1055D00031B182688A60826802B1D1600021C16005
:1055E00070470178F12918BF7047C068F9E7B0B576
:1055F0000446054625B12878F12802D1ED68F9E77F
:10560000B0BD2046FFF7E3FF28462146BDE8B04085
:10561000FFF7C7BF10B50446407833280DD194F882
:105620002320616A2046FCF713FE30B10146204674
:105630000022BDE8104000F067B810BD014601200F
:1056400048707D481C30FFF7ACBF00BF4C00002005
:1056500090F82210C9064FF0200158BF6021806BDE
:10566000084470477448416939B1086B8A6B8242BB
:1056700004D90068034A904200D170470120FFF727
:105680008DBC00BFA52E5AE270B5544C0A48A26DDD
:10569000666E002100F0CAFE674DA8624EB1E26D51
:1056A0000648002100F0C2FEA864002818BF0120AF
:1056B00070BD012070BD00BF9F4F0008AD570008AE
:1056C000F849886102214170FFF7CCBF4C000020EF
:1056D00010B5F44C0246237A0020022B11D1636AE4
:1056E0007BB160694270FFF787FE606A8168616222
:1056F00011B104F11C02CA600021C160FFF7E0FF94
:10570000012010BD4C000020B0B5044690F82200E6
:105710001546C0064FF0200058BF6020A26B815094
:105720002046FFF7A1FE20461DB1BDE8B040FFF7BF
:10573000DBBEBDE8B040FFF781BFFFFFB0B5FCF7AF
:1057400075FCD84DE968286D0131E96000B18047EA
:10575000FFF7A6FE0020FFF7C7FE296C11B3AA6968
:10576000A86B90421CBFC5E90E21B0BDE96B11B119
:105770000139E96316D1297A022913D16C6A8CB1F7
:1057800090F8200094F8201081420BD12046FFF7BA
:105790001EFFA86BFFF752FF2046FFF791FF286C12
:1057A000C5E90E40B0BD00BF4C00002082B0C0482B
:1057B0000821D0E91820FFF75BFBBA4D09496C4678
:1057C000C5E91301214600224FF0FF33FFF71AFB12
:1057D00010B9DDE900108847E86CF3E708A200087B
:1057E0004C000020E957000870B5AE4D6C6C14B346
:1057F0002069012601382061ECB12069D8B9E06840
:1058000008B1A16881606864E86C04F118010022A5
:105810000023FFF73FFB18B103202146FFF7BEFB33
:10582000E078012804D161692046FCF749FD00E0D9
:1058300066706C6CE0E770BD4C000020EFF30582F1
:105840002AB9EFF3108212B9EFF31182CAB16FF0E7
:105850000302A0B199B90178F62910D10C30D0E833
:105860005F1F11B9BFF32F8F04E04A1EC0E8532F0A
:1058700003B1F4E70022080408BF6FF002021046EB
:105880007047DFF808C000DF704700BFA96100085B
:10589000EFF3058129B9EFF3108111B9EFF311810D
:1058A00011B16FF005007047DFF804C000DF7047EA
:1058B000FD610008EFF305832BB9EFF3108313B9F3
:1058C000EFF311830BB100207047DFF808C000DF51
:1058D000704700BF5D62000810B50446EFF3058015
:1058E00028B9EFF3108010B9EFF3118090B15CB1DB
:1058F0002078F62808D12046FCF736FC38B120463F
:10590000FFF70CFD002010BD6FF0030010BD6FF01D
:10591000020010BD2046DFF808C000DF10BD00BF48
:10592000DD620008DFF804C000DFFEE71563000851
:10593000B0B5EFF305822AB9EFF3108212B9EFF395
:105940001182DAB16FF00304B0B1002914D40278E7
:10595000F12A11D14278042A02D16FF002040BE03F
:1059600000F1280252E8003F43EA010442E8004502
:1059700005B1F7E7FFF7D2FC2046B0BDDFF804C061
:1059800000DFB0BD79630008EFF305832BB9EFF3B7
:10599000108313B9EFF3118313B16FF00500704753
:1059A000DFF804C000DF7047E1630008EFF3058310
:1059B0002BB9EFF3108313B9EFF311830BB1002070
:1059C0007047DFF808C000DF704700BF2D64000893
:1059D000EFF3058129B9EFF3108111B9EFF31181CC
:1059E00011B16FF005007047DFF804C000DF7047A9
:1059F000FD65000810B5EFF305842CB9EFF31084B2
:105A000014B9EFF311840CB1002010BDDFF804C00D
:105A100000DF10BDB9660008EFF305822AB9EFF385
:105A2000108212B9EFF3118212B16FF005007047C6
:105A3000DFF804C000DF70472D67000810B5074C81
:105A4000207808B1012010BDFFF776F9012802DDAA
:105A50000120207010BD207810BD00BF285F0020FD
:105A60004A1E00214FF0010C06E0C3071CBF0CFAD0
:105A700002F319434008013A531CF6D10846704717
:105A800030B180B501461320FFF722FEBDE880400B
:105A900000207047B148007A704700BFFA48C068DC
:105AA000704700BF4C00002073484068704700BF3B
:105AB00008A200082DE9F843F34F387A30B10128E5
:105AC00000F096804FF0FF30BDE8F88307F1080042
:105AD0009C21FAF7AFFDDFF8148BB8F81000D8E975
