:020000040800F2
:10000000702D0020A1010008FB0B0008C9070008A3
:10001000F90B0008A30200081536000800000000D4
:10002000000000000000000000000000A31900080C
:10003000A502000800000000CD0D0008A519000869
:10004000BB010008BB010008BB010008BB010008A0
:10005000BB010008BB010008BB010008BB01000890
:10006000BB010008BB010008BB010008BB01000880
:10007000BB010008BB010008BB010008BB01000870
:10008000BB010008BB010008BB010008BB01000860
:10009000BB010008BB010008BB010008BB01000850
:1000A000BB010008BB010008BB010008BB01000840
:1000B000BB0100080000000000000000BB010008B8
:1000C000BB010008BB010008BB010008BB01000820
:1000D000BB010008BB010008BB010008BB01000810
:1000E000BB010008BB010008000000000000000088
:1000F0000000000000000000000000000000000000
:1001000000000000BB01000800000000BB01000867
:100110000000000000000000BB010008BB01000857
:10012000BB010008BB010008BB010008BB010008BF
:10013000BB010008000000000000000000000000FB
:10014000BB010008BB010008BB0100081D29000815
:10015000BB010008BB010008BB010008BB0100088F
:10016000BB010008BB010008BB0100080000000043
:10017000BB010008BB010008BB0100080000000033
:10018000BB010008BB010008BB010008DFF80CD070
:1001900000F038F80048004719360008702D00209C
:1001A0000648804706480047FEE7FEE7FEE7FEE711
:1001B000FEE7FEE7FEE7FEE7FEE7FEE7A51C000818
:1001C0008D01000830B504460020034600E05B1CAA
:1001D000934203D2E05CCD5C401BF8D030BD40EAD6
:1001E00001039B0703D009E008C9121F08C0042AB5
:1001F000FAD203E011F8013B00F8013B521EF9D29C
:1002000070470000064C074D06E0E06840F001032F
:1002100094E8070098471034AC42F6D3FFF7BAFFD2
:10022000D0380008F0380008D2B201E000F8012B05
:10023000491EFBD270470022F6E710B513460A4666
:1002400004461946FFF7F0FF204610BD70B58C1824
:1002500010F8015B15F0070301D110F8013B2A11DA
:1002600006D110F8012B03E010F8016B01F8016BC7
:100270005B1EF9D12B0705D40023521E0DD401F8C3
:10028000013BFAE710F8013BCB1A921C03E013F88C
:10029000015B01F8015B521EF9D5A142D8D30020C1
:1002A00070BDFEE77047000027481349C26B032A60
:1002B00003D0022A11D0012A1BD10B6822F00102BF
:1002C000022A43F400630B600B6823F400630B60A5
:1002D0000B6843F400730B600BD10A6842F4805240
:1002E0000A600A6822F480520A600A6842F4806256
:1002F0000A600021C16370470020024010B519490F
:100300000F484CF250330A680468E40305D50C68C2
:10031000A41A9C42F8D3032010BD0168094A114079
:1003200006D0094A536A0B4353620160012010BD95
:100330000168C90701D001210160002010BD00BF84
:1003400010200240FAC302007C0000200549013061
:1003500028BF4FF0FF300A680B689B1A8342FBD31B
:10036000704700BF6C0900202DE9F84F554B4FF046
:10037000000E4FF0010A4FF0000B0024026832FA21
:1003800004F108BF00F0A4B80AFA04F112EA010867
:1003900000F085804668122E00F287800AFA06F285
:1003A00012F0061F00F0818003225F68D0F80CC0B5
:1003B00002FA0EF297430CFA0EF5D2433D435D600C
:1003C00035091F68A54027EA0101294319607146D4
:1003D0009D6887689C4615408F403D439D6046F070
:1003E0001005122D13D10BF01C050F2303FA05F68F
:1003F0006FF0030303EA5407334B9946FB58B343AA
:10040000066906FA05F52B4347F8093046684FF0B0
:1004100090452B681A4006F0030303FA01F1634686
:1004200011432960F1003AD5254A234E274D116822
:1004300041F00101116011680F2201F001010091EA
:100440000BF00C0102FA01F124F00302009B32448C
:10045000535923EA010151513168436841EA0802C6
:10046000DD0358BF21EA080232609D03716841EA4A
:10047000080258BF21EA08027260DD02B1680F4D20
:1004800041EA080258BF21EA0802B2609B022968CB
:10049000634641EA080258BF21EA08022A600EF1C9
:1004A000020E0BF1040B013468E7032101FA0EF18F
:1004B000CA4361008CE700BF000401400C04014006
:1004C00060100240040000482000004808FCFFFFC4
:1004D00018BCBDE8E08F0000B0B5104D04464FF4E5
:1004E0007A712869B0FBF1F0411E0020B0EB116F6A
:1004F00011D10B4AF02351600A490B70906007201C
:100500000F2C106007D84FF0FF30214600F00CF898
:100510000020EC60B0BD0120B0BD00BF080000208D
:1005200010E000E023ED00E010B500F00F03104CE8
:100530000E4A043B23440C33B0F1FF3FC8BF83187D
:1005400020684FF0FF34C0F30220C21E80F0070085
:1005500038BF0022042828BF042004FA00F021EA52
:10056000000090400001187010BD00BF00E400E0E2
:100570000CED00E010B5012815D0E8B95C4CA0697D
:1005800030B101F015FA5B48016821F00601016005
:10059000D4F8F40290F89C1204290DD190F89D1221
:1005A00080F89C1210BD524800F084FB04D05148E2
:1005B000016841F00601016010BD00BFB0B5014601
:1005C0004B48D0F8F44259B1D4F8B8024269002A35
:1005D00047D000F0AEFB44D12046BDE8B040104704
:1005E000D4F89422022A35D1D4E907239A420AD9B1
:1005F00001EB8101D21A00EBC100E261C16B204620
:1006000001F076FB20E00FD1A06990420CD3D4F822
:100610009812884208D2204600210022002501F0CD
:1006200067FBC4F898520FE0D4F8B802C16821B152
:1006300000F07FFB01D1204688472046802101F051
:100640003FFE0520C4F8940220460021002200232A
:1006500001F01EFE94F8A002012802D1002084F8C7
:10066000A002B0BDB0B501462148D0F8F44251B166
:10067000D4F8B802826902B300F05BFB1DD12046BA
:10068000BDE8B0401047D4F89422032A15D1D4E92C
:1006900057539D4212D901EB810100EBC100D0F804
:1006A0007C21E81A9842C4F85C0138BF0346204612
:1006B0000021BDE8B04001F0EBBDB0BDD4F8B802F8
:1006C000016921B100F035FB01D120468847204661
:1006D000BDE8B04001F029BB0548734600F0EAFAD6
:1006E0009E4604D00348016841F00601016070474E
:1006F0007406002010ED00E010B524498A68C8682F
:1007000012F00C0205D00C2A20D100F003000128C1
:100710001CD10868000703D4D1F89400000A01E056
:100720000868000900F00F001BA3002A53F82030CE
:10073000184618BF00200C2A21D1C86800F0030019
:10074000022809D0032808BF124B06E0042A17D05C
:10075000082A17D10F4810BD0D4BC868CA68C96870
:100760000224C2F30622C0F30210C1F341615A43CE
:10077000013004EB4101B2FBF0F0B0FBF1F010BD31
:10078000034810BD00200023D5E700BF0010024041
:100790000024F40000127A00A0860100400D03003E
:1007A000801A060000350C0040420F0080841E00B5
:1007B00000093D0000127A000024F40000366E01AA
:1007C0000048E801006CDC02FEE770B5013100234F
:1007D000372472B1060F01F8023B04EB1075B0F13B
:1007E000204F38BF06F1300501F8035C013A0001E3
:1007F000EFE770BDB0B5D0F8BC52044695F81C02C6
:1008000068B100F035FA687A022818BFB0BD00F070
:100810002FFA20460121BDE8B04001F051BDD5F8C6
:1008200018020028EDD0687A0028EAD1204601217C
:1008300001F046FDE5E710B50446D0F8BC02407A69
:10084000022807D100F014FA20460121BDE810402B
:1008500001F036BD49B2B1F1FF3F01DC012800D102
:1008600010BD20460121BDE8104000F0B7B810B51A
:100870000446D0F8BC02017ACA1E022A05D22046DC
:100880000021BDE8104000F0A9B8022909D190F874
:100890001D1200F21F22204600F038FBB0F1FF3F8E
:1008A00000DD10BD20460121EBE70000B0B5D0F817
:1008B000BC520446287A012821D038BBD5E98501ED
:1008C000C5E98D01D4F8C402D0F8AC011F280DD1C0
:1008D000D5F810022549884208D195F81D12012942
:1008E00004D895F81E0208B1112810D300F025FA9B
:1008F000022068722046BDE8B040FFF77BBF95F844
:100900001D1200F0E8F9B0F1FF3F26DDB0BD00F0A8
:10091000E2F9297AB0F1FF3F1DDD481E0328F5D327
:10092000EB6803B3D4F8BC020021D0F8382280F879
:100930003C1204210172D0F81812D21A9942C0F860
:10094000382238BF0B4605F1100220468121BDE850
:10095000B04001F0F5BC0529CCD120460121BDE80D
:10096000B04000F03BB820460021F8E75553424321
:1009700070B50446D0E9AF5000262E81A5F860621C
:1009800085F86262016800208847D4F8C40205F542
:100990000472D0F8A812012918BFC0F8A862204636
:1009A00001211F23BDE8704001F072BCB0B5D0F842
:1009B000BC5204464FF4807081212881204601F00A
:1009C00043FA2046012101F03FFA05F50472204662
:1009D00001211F23BDE8B04001F05ABCB0B5D0F8EA
:1009E000BC5204460B480D23C5F83002002085F8A0
:1009F0003C1205F50C7281212872204601F0A0FC02
:100A000005F50472204601211F23BDE8B04001F026
:100A10003FBC00BF555342532DE9FC416E48724A1A
:100A2000DFF8B8816E4D0027012408260168543292
:100A300041F4806101606B480221C5F8F482C8F876
:100A4000CC72C8F8B87288F89C4288F80070C8E97F
:100A5000B075C8F8B422C5E90006A960C5E9041755
:100A6000C5E906772F62D5F8AC1299B95F48C5F889
:100A7000A872016841F0806101600021006800F007
:100A80008060009000984320FFF74EFD58480660B4
:100A9000D5E90006032144F27F02C5F8AC12B0F894
:100AA00040101140A0F840100021CAB296420FD960
:100AB00002EB820305EBC30383F82810DA8683F880
:100AC0002940C3E90E771F6483F82B700131ECE7EE
:100AD00000210022D3B29E420FD903EB830305EB22
:100AE000C303C3E95E1183F86821C3F8801183F85A
:100AF0006B1183F869110132ECE701220021A0F8A3
:100B00004020A0F84010A0F84410A0F8501085F83C
:100B10002410C5F8AC22EB69012B0FD1B0F854308A
:100B200043F00103A0F85430C5F8E412C5F8EC22F4
:100B3000B0F8542042F00202A0F85420B0F8582037
:100B40002C4C6FF3DF32A0F858201822ADF80610B5
:100B5000D8F8C40280F87411A0F86E215822D8F891
:100B6000C40280F83410C2859822D8F8C40280F8F4
:100B70005C10A0F85620D822D8F8C40280F89C1146
:100B8000E16EA0F8962104F14000C8F8B80221B146
:100B90000DF106008847C8F8CC02D8F8C402C8F89E
:100BA000C042D0F8A812012903D1EFF3108072B629
:100BB000FEE7016800224BF68073A1F84420A1F8FB
:100BC0004030C0F8A822B1F8580040F40040A1F825
:100BD0005800BDE8FC8100BF04700040A403002061
:100BE00074060020006800400800002058100240F1
:100BF00008E100E07C000020FEE7FEE7D4F8C00238
:100C000081683046084730F8212043F60F731A40B8
:100C10004AF280035A4020F8212070470B8840F6A2
:100C20000F74234002F580442343704702EB820196
:100C3000012300EBC10181F829307047D5F802008B
:100C400001BAC7F86C12D5F80600704730F82130A9
:100C50004AF2800404F5005403EA0903234320F810
:100C60002130704702BA2046C7F8702200F03CB924
:100C70002046812101F024BB9E5A26F4F8469E525C
:100C80009E5A46F40046704704F58066BBB2314474
:100C90000F52204669697047B0F8401041F00401D6
:100CA000A0F840107047B0F8401041F00801A0F8DB
:100CB00040107047D0F8F412806991F89C2281F8B6
:100CC0009D220422002881F89C227047D9F87C11CB
:100CD000334602F07EBC05F21F22204600F016B912
:100CE000584601F022B8584601F007B8DBF8B802C0
:100CF00000287047D4F8C002C16830460847B4F8ED
:100D000050202B78DB00324406337047B4F8502073
:100D10002B78DB00324402337047B7F86402D7F80F
:100D20007022D7F818127047421845F82120013177
:100D3000704794F89C020328704720460521202222
:100D400000F08FBB68692A69C119286A6961831A32
:100D500070476969B3B2204602F04FBC297840F66B
:100D60000F7334F821201A4070470B8840F60F7437
:100D7000234002F1400423430B8070470B8840F668
:100D80000F74234002F5804423430B807047D5F84D
:100D9000020001BAC7F86C12B5F8070000047047EA
:100DA000D4F8BC72387A0028704730F8212048F215
:100DB000C0033A401A4320F8212070470B8840F6C0
:100DC0000F74234002F14004234370477047000032
:100DD000B0B5404AD3689B070FD0D368046803F0CE
:100DE0000303A34242D1002B40D04368D468C4F32C
:100DF000021401349C421CD038E00368032B07D056
:100E0000022B30D0012B31D11468A40706D42DE079
:100E10001468A40302D41468640327D544686FF0EF
:100E20000F0505EB0414D56825F073052B43234308
:100E3000D360136823F080631360274B1C68156828
:100E40002D0104D51D682D1B022DF8D93AE001298A
:100E50000ED0E1B91169234C2140D0E9024541EAA5
:100E60000421EC0620E014686405D7D40120B0BD4D
:100E70001A491469056901F1B4612140846841EAA5
:100E80000421174C04EA0554A4F500140CE0116980
:100E9000124C45692140846841EA04214FF07E44A8
:100EA00004EA056404F17E4421431161116841F0B4
:100EB0008061116019681468240105D41C68641AE3
:100EC000022CF8D90320B0BD806911690843106174
:100ED0000020B0BD001002406C090020FF80FFF927
:100EE0000000E0FFFF80FF0780B51144D0F8BC226E
:100EF000D2F86822914205D90521212200F0B1FAE9
:100F0000FF2000E0002040B280BD0000FEB5044696
:100F100010780E461546A0F11A0110292ED9AA28DC
:100F200000F0DB80032800F0E380122800F0F0805E
:100F30002F2800F006815A2800F014819E2800F026
:100F40001D81A82800F0388100282CD1D4F8BC528B
:100F5000D5F81802002840F0708195F86202022846
:100F600004D0FFF74BFE002800F0F9802046022154
:100F70003A2200F076FA05202872AAE1DFE801F0B3
:100F8000091A131331131313133C135613137B1342
:100F900091002A79DFF8001D172A28BF1722D4F8FC
:100FA000BC022231E6E0D4F8BC52FFF7C6FE0220B4
:100FB00068728EE1D4F8BC12287991F8622200F0B0
:100FC0000300012A08BF022800F043810022012803
:100FD00018BF032840F0418181F862220020C860D8
:100FE00078E12979D4F8BC220020D060002918BF0C
:100FF000012182F862126DE1D4E9AF500DF10A02CD
:10100000436801A930469847002840F05D8195F873
:101010006202022800F0588105F110000021002230
:101020000C2A00F01F8181540132F9E7D4E9AF5056
:10103000436805F51A7105F519723046984700287E
:1010400040F0428195F86202022800F03D810821BB
:101050000020E960D5F86812A88201390A0AE9740B
:10106000AA740A0C090E2974B5F864126A7409BAD4
:10107000090CE9822EE1FFF793FE40F0A08097F97A
:101080001C02002840F1D98097F86202022800F083
:101090001B81FFF7B3FD002840F01681FFF777FEB4
:1010A0002BE1FFF77DFE1CD1D7F81802002800F0D5
:1010B000C48097F91C02B0F1FF3F40F3BE80FFF7F8
:1010C0009DFD002840F00081FFF714FE002800F08D
:1010D0002081204602212722F9E0FFF761FE00F07F
:1010E00098802046314603B0BDE8F04000F070B96A
:1010F000D4F8BC02D0F81812002900F09E8000F14C
:10110000100100220023122B63D0CA540133FAE7E6
:10111000D4F8BC02D0F81812002900F08E8069784B
:10112000C90740F08E80D4F8C02206EBC601D26910
:1011300002EB81010A79531D2A79934238BF1A467E
:1011400018E06878800700F18480D4F8BC5220460B
:10115000D5E99B12FFF7C8FE002800F1BA800020F5
:10116000E860B7E02A7A7A491B2A28BF1B22D4F804
:10117000BC02393100F08BF90020ABE0D4E9AF704C
:10118000436807F51A7107F5197230469847002829
:1011900040F09A8097F86202022800F09580D5F816
:1011A0000A000021002200BAF860D3B298426ED93A
:1011B0003B4401321974F8E7FFF7F2FD39D04FF4E0
:1011C00000703146F860204603B0BDE8F04000F002
:1011D000C1B80C2190F86122C1757021017490F89A
:1011E000601291420ED000EBC102013192F8403200
:1011F000B2F844228283CAB28374043A18BF0A4602
:1012000080F860221221C1602979122998BFC1603B
:10121000B2E7D7F8180280B197F91C02B0F1FF3F8E
:101220000BDDFFF7EBFC00285AD0204602213A22C2
:101230005CE097F91C0200283FD4204605212022BB
:1012400045E0A978802947D019B9414906221431CF
:1012500090E720460521242239E002287FF4BEAE23
:101260000222B9E60820E874022028830C20E860F6
:1012700001980138010AE875A975010C000E28755E
:10128000BDF80A00697500BA000C688374E7D7F8E6
:1012900068120020388301390A0AF975BA750A0CF8
:1012A000090E3975B7F864127A7509BA090C798391
:1012B000D5F80A1009BAF9600CE097F86202022822
:1012C00002D0FFF79BFCB0B1204602213A2200F089
:1012D000C8F8FF2040B2FEBDEC4908221A3149E7A8
:1012E000FFF708FDC0B120460221272200F0B9F81F
:1012F00005203872EDE7FFF7A1FCFFF7B3FC0028EB
:10130000E7D4FFF70AFD5043814296D1022038729C
:1013100055E7FFF73CFD01E0FFF790FCFFF7A2FC6B
:101320000028D6D4FFF7F9FC02FB00F399427FF4C2
:1013300084AF012007F11002B3F5007F387228BF97
:101340004FF400732046012100F0A2FF14E700BF14
:10135000080000202DE9F0410546D0E9AF70B7F84C
:101360006432D7E99B2407F110085C43B4F5007F91
:1013700028BF4FF40074B4FBF3F3066908464146F6
:101380009BB2B047B0F1FF3F19DD284681214246AC
:10139000234600F0D5FFD7F83802D7E99B12001B8F
:1013A000C7F83802B7F86402B4FBF0F00144101A31
:1013B000C7E99B1001D103203872002005E02846C0
:1013C0000421112200F04DF8FF2040B2BDE8F08169
:1013D0002DE9F0410446D0E9AF60B6F86432D6E9B1
:1013E0009B2506F1100805FB03F7B7F5007F28BF22
:1013F0004FF40077B7FBF3F34569084641469BB2CB
:10140000A847B0F1FF3F1DDDD6F83802D6E99B12A0
:10141000C01BC6F83802B6F86402B7FBF0F3CD186B
:10142000D11AC6E99B5114D001FB00F32046424675
:10143000B3F5007F28BF4FF40073012100F028FFAF
:1014400000250BE020460421032200F00AF8FF25C6
:1014500004E0204600210025FFF7C0FA68B2BDE88D
:10146000F081B0B5D0F8BC02002590F8613200EBF5
:10147000C30484F84012591C84F8442284F845526D
:10148000CAB2043A18BF0A4680F86122B0BD10B54E
:10149000C26032B1013A94B210FA82F30C5D1C744E
:1014A000F7E710BD4FF4007010804FF480300860F3
:1014B00000207047002070470020704700207047D0
:1014C000002070472DE9FE4F70480D461C4657021C
:1014D0004FF000084FF0010B4AF6552A4FF0000973
:1014E00000264168806802910190A64200F0CA80FF
:1014F000780A082837D80BFA00F010F0410F1DD1F8
:1015000010F0820F06D110F4827F2CD028464FF4C1
:10151000FF711CE0281D4FF4FD71FEF78CFE40F6B4
:101520000500A5F8FEA1C5F8EC015948C5F8E80189
:101530005848C5F8E401584828600CE05749284647
:101540005A22FEF74CFE05F15A004FF4D271FEF715
:1015500072FEA5F8FEA117F5007705F5007549F1B3
:1015600000090136C1E74E483844B0F5085F04D39E
:101570004C493944490A10290ED8534980088F42F2
:1015800040D0524940F001008F4257D10021042938
:101590004AD0FFF7C9FBFAE7B7F5800F55D105F13F
:1015A00040004FF4E071FEF746FE28463FA10B22B3
:1015B000FEF715FE082040A10B22C5F80C80C5F8E7
:1015C0001080C5F81480C5F81C80E87245F29C00B4
:1015D000A86105F12000FEF702FE4FF4703045F2DD
:1015E0009C0185F82D80E8630520C5F832106887D6
:1015F0003448C5F83600C5F82E004FF4C150A5F8A0
:101600002B00A8E7324940F0010029604FF0FF317C
:1016100069606FF07041C5E90211296105218029D7
:1016200099D0FFF781FBFAE76FF070402861052041
:10163000802890D045F820800130F9E700218029EA
:101640003FF489AFFFF770FBF9E70298B84213D86F
:101650000198B84210D902984FF47032381A00F548
:101660000071B1F5703F28BF11460A1A0E490144B6
:101670002846FEF7B4FD6EE728464FF40071FEF7EA
:10168000DAFD68E7002000F025B800BF0800002060
:10169000BE980300727241615252614140380008A5
:1016A0000008DDFF0084CEFF0040000859414220C1
:1016B0004469736B202020004C3433335F41505019
:1016C00042494E0000009C5000F822000018230000
:1016D000F8FFFF0F1EBCBDE8E08F00002DE9F04FC2
:1016E00089B0A448DFF894828A4699460025A9A4C7
:1016F0000021009300EB422B52020BF104000690F4
:101700000020484500F03181CDE90401D8F80810E7
:1017100040F2FF1021EA0000C90518BF00F5007073
:10172000B2F5800F079210D20698079A05990BF52B
:10173000007B0AF5007A00F5007012F50072069041
:10174000049841F100010130DBE720D10027B5EB1F
:10175000572FE9D10AEB07062146032206F10800BC
:10176000FEF730FD88B9718BB08A490241EA4060CA
:1017700089490844F169C8F80400B1F5703F28BFF1
:101780004FF470310844C8F808002037DFE70799A4
:1017900088422FD9D8F8040088422BD878480222F2
:1017A0000260754A88F800505069B0F1FF3F04DCD0
:1017B00074489060744890605069D8E90160831B58
:1017C000B3F5007F28BF4FF40073980718BF0433A8
:1017D0000393B14258D16D48006A012800F0AC80F3
:1017E00002966A4E01203062FEF788FD30B1624AEF
:1017F0003562A1E001208DF8230095E75E4A75620D
:1018000011681068890503D4400509D4002012E04E
:1018100020F4007010601068400507D401200AE031
:10182000106820F480601060022004E0106820F44A
:1018300080601060032055494026C863B6F5806F6C
:1018400018D0506920F47E7030435061506940F0E8
:1018500002005061506940F480305061FEF74EFD47
:10186000454A074640F2FA3150698843506117B93A
:101870000836E3E70027FEF717FD444807993E4A7C
:10188000029E002F056257D1881B4149884253D8D8
:101890003849084401F5703188424DD2ABEB06005F
:1018A0003A494FF0000902900698801B0190039876
:1018B00081454FD2086A01284CD00AEB09005AF83A
:1018C00009705E468B46446801200862FEF716FDEB
:1018D000D0BB0020284ACBF824001168490504D564
:1018E000106820F4806010600220DFF8A0B0CBF810
:1018F0003C00506940F001005061029849F80070C6
:10190000BFF36F8F019840F809401446FEF7F6FCCC
:101910000746606920F001006061FEF7C5FC002504
:10192000DFF85880594609F108091AA4CBF820506D
:10193000002FB346BBD00DE0506940F0004050612D
:10194000FF2088F80000EFE60020002511A4CBF866
:101950002000B3460849486940F000404861FF2034
:1019600088F80000DDF80090DEE6002009B000F005
:1019700015B800BF00400008002002400800002009
:101980001800004823016745AB89EFCD7C0000209B
:10199000FFBFFFF742494E0000FC3F0030BCBDE8EE
:1019A000C08F7047B348016801310160704700BFC4
:1019B000F0B599B001AC60212046FEF73CFCAC4E7E
:1019C000B068F16800F00C00082805D00C2832D16E
:1019D00001F0030103292ED13168F168A64A0A40BB
:1019E000A6498A4214D1306880014BD4306840F057
:1019F00080703060F06840F08070F0609D48016851
:101A0000326892013ED40268521A032AF8D31FE0CA
:101A10000C281DD0306840011AD4306820F0807046
:101A200030609448026833689B0115D503689B1A9F
:101A3000022BF8D90CE0316841F4803131608D49D6
:101A40000A6833689B03C8D40B689B1A642BF8D9C7
:101A5000EFF3108072B6FEE7F268894B1A4011432B
:101A6000F160316841F080713160F16841F080715E
:101A7000F16001683268920104D40268521A022AA5
:101A8000F8D9E5E77F480168490709D401680422CD
:101A900062F302010160016801F0070104293FD1EE
:101AA000316889013CD5B16841F2883341F00301C6
:101AB000B16070490A68B56805F00C050C2D04D0BA
:101AC0000D68AD1A9D42F6D92AE0B16821F0F00107
:101AD000B160016801F00701052909D301680422FA
:101AE00062F302010160006800F00700042817D1CA
:101AF000B06820F4E060B060B06820F46050B0607E
:101B0000FEF7FAFDB16860A2634FC1F30311515CA7
:101B100001F01F01C8403861F868FEF7DDFC18B11C
:101B2000EFF3108072B6FEE70120251D0390D6F872
:101B3000881060F39B614FF08060C6F888101390A6
:101B40004FF40050012101904FF4801008900220C2
:101B5000CDE90600072005900C2004900320029098
:101B60002846FFF735F90446019801031AD5D6F83F
:101B7000881021F0406214990A43B1F1806FC6F8D1
:101B8000882007D0B1F1006F0CD1F16841F48011C9
:101B9000F16007E028460121FFF71AF9002818BF75
:101BA0000446019841031AD5D6F8881021F0406206
:101BB00015990A43B1F1806FC6F8882007D0B1F1BA
:101BC000006F0CD1F16841F48011F16007E0284604
:101BD0000121FFF7FDF8002818BF044601984104D1
:101BE00012D5D6F88810169A21F040511143B2F15F
:101BF000805FC6F8881007D128460221FFF7E8F871
:101C0000002818BF04460198000407D5D6F88800BC
:101C1000179920F080400843C6F888001CB1EFF304
:101C2000108072B6FEE71D48016801F4C061B1F58D
:101C3000007F16D00168012262F34A21322201603E
:101C400039695143164AB1FBF2F101314A1E436929
:101C50008A4203D213F480611146F7D140694005EE
:101C600001D419B0F0BDEFF3108072B6FEE700BFEB
:101C7000001002406C090020737F60FE03140038DE
:101C80008C809D0100200240000000000000000048
:101C90000102030406070809080000200070004044
:101CA00040420F0010B50F48104CD0F8801041F49E
:101CB0007001C0F880100C490A6842F001020A6005
:101CC00000228A600B6823400B604FF48053CB6086
:101CD0000B6823F480230B608A614FF00061016080
:101CE00010BD00BF08ED00E000100240FFFFF6EA63
:101CF00013460A46002100F023BB10B5802104469C
:101D000000F0DEFA20460021BDE8104000F0D8BA0D
:101D100080B513460A460221C0E90633C0F8941282
:101D2000002100F00DFB002080BD042100220023D3
:101D3000C0F89412002100F003BB000080B502A09F
:101D400000F062F83F4880BD4D534320436F6E66FC
:101D500069670000122008800048704700010020D9
:101D600080B502A000F050F8364880BD4D534320A6
:101D7000496E746572666163650000000420088026
:101D8000004870471401002080B502A000F03CF824
:101D90002C4880BD53544D6963726F656C656374E4
:101DA000726F6E696373000080B502A000F02CF8BA
:101DB000244880BD53544D3332204D6173732053FA
:101DC000746F726167650000B0B51A200880094918
:101DD00008688A6880180BD0074D4C680822A91C37
:101DE000FEF7F3FC05F1120120460422FEF7EDFC9C
:101DF0000148B0BD9075FF1F840100200C200880B1
:101E000000487047F4000020B0B5D0B1002203466E
:101E10001C7814B101330132FAE7D3B20222032451
:101E200002EB43030B8007490B7000234C700478CE
:101E30003CB1D5B2023201304C5545F001040B558E
:101E4000F5E7B0BDA401002070B5D0F8C40201F0E0
:101E50000F0243689A4258D801F00703090609D4D3
:101E600003EB8301002200EBC10181F8692101F538
:101E7000B47208E003EB8301012200EBC10181F899
:101E8000292001F12802002113709170D0F8A812C6
:101E900001293AD00121C0F8A812117B91BB016839
:101EA00031F8234055785B00B5B1640648F2A004D0
:101EB00009D531F8135040F60F76354004F120066D
:101EC000354321F81350D278012A1BD031F8132062
:101ED00040F63F752A4012E062044BF2800209D5B9
:101EE00031F8134040F60F752C4002F580552C4315
:101EF00021F8134031F8134043F60F752C4062402F
:101F000021F813200021C0F8A81270BDB0B5D0F898
:101F1000C40201F00702090609D402EB8201002382
:101F200000EBC10181F8693101F5B47303E0FEF7FC
:101F30007DFE01F12803D0F8A8121A70012901D101
:101F4000022443E00121C0F8A812016831F82240C0
:101F50005D781B7B01EB820148F28002B3B104F48F
:101F60008043CDB10BB1FEF709FF0B885B0601D5AD
:101F7000FEF7FBFEFEF752FE40F63F740B800B8827
:101F8000234013430B8043F60F7318E015B3630629
:101F900013D5FEF713FF0FE00BB1FEF7EFFE0B8832
:101FA0005B0601D5FEF7E1FEFEF708FF43F60F746E
:101FB0000B800B88234013430B8040F63F730024B3
:101FC000C0F8A8420888184010430880DB4850F841
:101FD0002400B0BD6304D6D5FEF720FED2E700BFD3
:101FE000D0F8C412D1F8A802012801D1022002E0E1
:101FF0000020C1F8A802D14951F82000704700BF65
:102000002DE9F043D0F8C4E201F00706080609D430
:1020100006EB860000210EEBC00000F5B47580F8D9
:10202000691108E006EB860001210EEBC00080F884
:10203000291000F1280595F801902B61EA702E70A7
:10204000B9F1000F18BFEE81022A01D100202871DA
:10205000DEF8A802012801D1022211E10120DEF8F8
:10206000004047F27061CEF8A80234F8260004EB75
:1020700086088843032A05D0012A06D03AB940F4DD
:10208000007004E040F4C06001E040F4806048F279
:10209000800C40F60F7140EA0C00A8F80000B8F878
:1020A00000000840304340EA0C00A8F80000287BFC
:1020B00000284FD0B8F8000040F60F6108400CF53A
:1020C00080710843A8F8000004F58060B4F850302F
:1020D0002F8900EBC60127F00107CF52F100043130
:1020E0000844B4F850106B89B9F1000F23F00103D4
:1020F0004352B8F8000000F4804050D048B1B8F81E
:10210000000040F60F7108400CF580410843A8F824
:102110000000B8F80000400609D5B8F8000040F605
:102120000F7108400CF140010843A8F80000B8F80E
:10213000000040F63F7108400CF120014140012AA7
:1021400008BF40EA0C01A8F80010B8F8000043F6F8
:102150000F714BE0F000B4F85060B9F1000F49D0B6
:10216000E9882044304421F00101A0F80014B8F8B7
:102170000000400609D5B8F8000040F60F7108408D
:102180000CF140010843A8F80000B8F8000040F640
:102190003F710840012A2AD00CF120016AE048B1C1
:1021A000B8F8000040F60F7108400CF58041084374
:1021B000A8F80000B8F80000400609D5B8F80000FB
:1021C00040F60F7108400CF140010843A8F80000E8
:1021D000B8F8000043F60F7108400CF54051484034
:1021E00040F63F71A8F80000B8F80000084040EA47
:1021F0000C0040E0ED8840F0040104F5806240F0FE
:1022000006001144024425F001058D53B4F85040F6
:102210003BB13E2B0DD803F0010000EB53008002D0
:1022200012E0A05A194920F4F840A052A05A0843DD
:102230000AE0D9064FF0FF304FEA531108BF00EB18
:102240005311124840EA8120A052B8F8000040041F
:1022500009D5B8F8000040F60F7108400CF5804130
:102260000843A8F80000B8F8000043F60F710840D2
:102270000CF5405148400022CEF8A822A8F80000F2
:102280002E4850F82200BDE8F08300BF0080FFFF19
:10229000B0B501F00701D0F8C402002501EB8104BC
:1022A00000EBC40404F5BE772CC784F8681184F8E9
:1022B000695104F5B4710068BDE8B04000F01CB984
:1022C000B0B5D0F8C40201F0070243689A4201D9C0
:1022D00001212CE00B0609D401EB8101002300EB66
:1022E000C10181F8693101F5B47102E0FEF79EFC8D
:1022F000283101230A708B70D0F8A832012B01D14C
:10230000022114E049780C4B002940F63F7108BFC8
:1023100003F57F6308BF43F60F71046834F8225059
:102320002940594024F822100021C0F8A81203487F
:1023300050F82100B0BD00BF9080FFFFC0380008FA
:10234000B0B501F00704D0F8C402002504EB840105
:1023500000EBC10101F8284F012401F1140781F8B5
:1023600024402CC70B624C700068BDE8B04000F000
:10237000C3B880B5FEF77BFA002080BD80B5FEF7BC
:1023800095FA002080BDB0B501210446FFF7BEFDDF
:10239000002520468121A4F87851FFF7B7FDD4F835
:1023A000BC022587057201F0EDF90020C4F8BC528B
:1023B000B0BD00000A21018000487047580100208C
:1023C0002021018000487047180100202021018051
:1023D00000487047380100202021018000487047E4
:1023E0006401002070B504464FF41D7001F0F2F94D
:1023F000E0B1C4F8BC0220694025002808BF4FF4B2
:10240000007520462B46012102220126FFF7F8FD28
:102410002046812102222B46A4F87861FFF7F0FDC7
:1024200020462687FEF7A4FA002070BD0020C4F8DD
:10243000BC02022070BD7CB50446D0F8BC5200201E
:102440000E46ADF80600087810F0600116D020297D
:102450004CD17178FF2921D0FE2947D171880029FC
:1024600044D1F188012941D100063FD5D4F8C002FA
:102470008069804728602046294632E070780B2822
:1024800016D001281AD00A2826D078BBFEF751FCB6
:102490002CD10DF106012046022223E0718829BBD0
:1024A000000623D4F08808BB2046FEF77FFA1BE025
:1024B000FEF73FFC1AD1B078686015E0FEF739FCF2
:1024C00012D1708880B931792046FFF789FD3179C2
:1024D0002046FEF7B0F907E0FEF72BFC06D1291DD8
:1024E00020460122FFF714FC00207CBD2046FFF7A8
:1024F00004FC03207CBD00002DE9F0410D46497825
:10250000044601294BD12F69AE69BE4288BF3E46C1
:10251000287B002863D0E878022840F08980297859
:1025200040F60F6234F8210000EA0203286A4A00EC
:10253000B84240F2AE8048F28016C01BC90048F293
:102540008008334324F81230286234F81200400621
:10255000B4F8500000F1EC8041F00201FEF794FB6A
:102560002A8901F04AF8FEF7EDFB38BF00232B6201
:1025700088BF10466A78012A00F01081002A40F0D6
:10258000B281FEF7BCFB002800F09A813E2800F2E1
:102590009D8100F0010606EB5006B602A2E1287B01
:1025A00050B3E878012855D0022840F077810029FF
:1025B00040F04E81B4F850002B7804F580610A1881
:1025C000DB0028699E1C002800F0D4803E2800F221
:1025D000ED8000F0010707EB5007BF02F1E0EA8849
:1025E000FEF7B7FBB4F850002978C9002044023147
:1025F0000844A0F8006476E02869AA69111A38BF77
:102600000021A96188BF0246B4F85000297820440F
:10261000C90000F580608B1D48F28001002A64D05B
:102620003E2A6AD802F0010606EB5202920270E0DE
:10263000287834F8201049064FEAC001B4F8500059
:102640003BD441F0020121440844A0F8006405F1A4
:1026500008003AE02A69A869831A38BF0023AB61F1
:1026600088BF1046002940F00081B4F8502004F5DE
:1026700080618B182A78D200961C002800F0848094
:102680003E2800F2B58000F0010707EB5007BF02BB
:10269000B9E048F28006C9003343023124F8123011
:1026A000214483B2B4F850201144A1F8000420461C
:1026B00069692A8900F0A1FF15E041F00601214473
:1026C0000844A0F8006405F10A000288FEF741FB07
:1026D000697848F2800001291FD021B9FEF73EFB3E
:1026E00000F140031DE08B481EE01A5A22F4F84224
:1026F0001A521A5A42F400420BE0D7064FF0FF3646
:102700004FEA521708BF06EB52174FF4004242EA55
:1027100087221A5201F54050B7E0FEF71FFB00F583
:1027200080431A4324F82120303040F63F71AEE058
:1027300041F00601FEF7A8FA6A8900F05EFFFEF795
:1027400001FB38BF00232B6288BF10466A78012A3C
:1027500028D0002A40F0D680FEF7D8FA002800F0F2
:10276000B2803E2800F2C18000F0010606EB500660
:10277000B602C6E0B75A27F4F847B752664F36F8A4
:1027800002C047EA0C071CE0F75A27F4F847F75253
:10279000614F36F803C047EA0C0734E0FEF7AFFAA2
:1027A000D052A0E0FEF7B2FAD052ABE0C7064FEA33
:1027B000501E4FF0FF3C584F08BF0CEB501E47EA2D
:1027C0008E27B752B4F85020114443F0060238B1B6
:1027D0003E2831D800F0010303EB5000800236E0C0
:1027E000505A4D4B20F4F8405052505A18432EE0A6
:1027F000C7064FEA501E4FF0FF3C474F08BF0CEB97
:10280000501E47EA8E27F75248F2800C42F006022B
:10281000B4F85030194438B13E2841D800F00103D3
:1028200003EB5000800247E0505A20F4F840505229
:10283000505A40F400403FE0C6064FF0FF334FEAE5
:10284000501608BF03EB5016334840EA862050521A
:10285000E86950B1297848F2800034F8213003F05B
:1028600040025B0403D41AB10DE02A480BE052B1D8
:10287000490040F60F7334F811201A4000F140036C
:102880001A4324F8112000F5405043F60F712A78BE
:1028900034F822301940484024F82200BDE8F08185
:1028A000C6064FF0FF334FEA501608BF03EB501631
:1028B0004FF4004040EA862050520CF54050E4E7C7
:1028C000FEF7DAF90EE0FEF7D7F91AE0C7064FF087
:1028D000FF364FEA501708BF06EB50174FF400467B
:1028E00046EA87269E526A890DE0C7064FF0FF36FA
:1028F0004FEA501708BF06EB50174FF4004646EA60
:1029000087269E522A8983B2204600F076FE08F17F
:1029100030000AE78080FFFF0080FFFF2DE9F84FBD
:10292000DFF89C8CD8F80000B0F94410B1F1FF3FFB
:1029300043DDB0F84410490540F1A085B0F84410DB
:1029400021F48061A0F84410D8F80800022840F073
:102950008985D8F8F44200200125C4F89402C4F80F
:10296000A4026060D4F8BC0284F89C52256128B1AE
:10297000D4F8B80200214268204690472046002142
:102980000022402300264027FFF73AFB2046802103
:1029900000224023A4F86451C4F860714FF080090C
:1029A000FFF72EFBD8F8A802A5842762012840F083
:1029B0005D85D8F8000000F061BD4FF0FF3740F6AC
:1029C0000F76B0F94410B942B3DCB0F8442012F0ED
:1029D0000F0A41D030F82A404FEA4A0B210440F157
:1029E000728130F81B103140803120F81B100AEB47
:1029F0008A0108EBC10999F8741109F5B475002929
:102A000000F0998099F86B11022940F0A480297890
:102A1000B0F8502040F60F77630400F10F810244B4
:102A2000D9F8803102EBC102B2F806646FF39F2639
:102A30009A1B4FF0000338BF1A46C9F8802101D80D
:102A4000FEF7E1F8620601D4FEF7AFF9002E00F0C0
:102A50001E81B9F872210BE10188D2062FD43140D2
:102A600001F500410180B0F85010084498F8281092
:102A700000EBC100D8F83C10B0F802046FF39F20BF
:102A8000C8F844000844C8F83C000020FDF796FD53
:102A9000D8F8400098F82410002900F0438300285B
:102AA00040F04083D8F8000098F8241041F08001ED
:102AB000C9B2A0F84C10002088F8240032E30A05BF
:102AC00066D4090440F12E83018800F206423140A9
:102AD00080310180B0F8501098F86831114431F815
:102AE00033306FF39F23C8F88431A3B1D8F87C1139
:102AF00089B1B8F86E2100F06CFDD8F87C01D8F8E7
:102B000084110844C8F87C010020FDF7ABFDD8F81B
:102B1000000000F20642D8F87831B0F85010002BCF
:102B200000F0CD813E2B00F2D28103F0010404EBD2
:102B300053039B02D4E1B0F850102A78014401EB12
:102B4000C201B1F806646FF39F26002E00F09D804D
:102B5000B9F86E2196E0297848F2C00330F82120B8
:102B600032401A4320F8212030F8212052044FEA45
:102B7000C102B0F85010024411447CD4B1F806648C
:102B80006FF39F26002E00F08080B9F8722179E063
:102B9000B0F8501098F86821014401EBC201B8F870
:102BA0006E21B1F8063408F52D716FF39F23C8F834
:102BB000843100F00EFDD8F8000001270188314073
:102BC00080310180D8F8F4B298F8B4628BF8AA6228
:102BD0000BF2AA2998F8B5328BF8AB3298F8B6A266
:102BE00098F8B7424AEA0420ABF8AC0298F8B81259
:102BF00098F8B92241EA0225ABF8AE52B8F8BA22E9
:102C0000CBE9A57206F01F07ABF8B022022F00F047
:102C10000881012F00F01981002F40F0298116F062
:102C200060014FF0FF3700F06C81402940F60F76CD
:102C300000F00481202900F0018172E10244D9F8FA
:102C4000803102EBC102B2F802646FF39F269A1B37
:102C50004FF0000338BF1A46C9F8802101D8FDF7AC
:102C6000D2FF620601D5FEF7A0F886B1B9F870214F
:102C7000FEF72CF80CE0B1F802646FF39F2626B142
:102C8000B9F87021FEF722F804E0002602E00026E1
:102C90004FF0FF3709F5BE7207CA32443044C9F815
:102CA0008421C9F87C0119B1D9F87801B04203D95F
:102CB0002878FDF7D7FC04E0D8F800002946FFF794
:102CC0001BFC40F60F76200640F12C82D8F800005D
:102CD00030F81B10314001F5004120F81B100AEBC1
:102CE0008A0108EBC10292F82B1002F12805022993
:102CF00001D1E10520D4146CB0F85010002743181E
:102D0000297803EBC103B3F802346FF39F23E41A6D
:102D100038BF3C46146409D9D16B546C1944D16353
:102D2000E11851642946FFF7E7FB02E00846FDF78A
:102D300045FC4FF0FF37F5E1B0F85030297840F608
:102D40000F7966064FEAC10E35D40344176C7344FD
:102D5000B3F806646FF39F26BB1B4FF0000738BF24
:102D60003B46136440F28C8063044FF0FF3703D47A
:102D7000F246FDF76BFFD646144614F84C1F0129A6
:102D800040F0C081134653F8489F53E904C153F8FB
:102D9000047C3144374443F80C1C43F8047CE1457F
:102DA00080F0E980B9F1000F00F023810026CC46C5
:102DB00026701E6020E10344176C7344B3F802646C
:102DC0006FF39F26BB1B4FF0000738BF3B461364D1
:102DD0005ED963044FF0FF3703D5F246FDF736FFA7
:102DE000D646134613F84C1F012940F08B81144638
:102DF00054F848CF54E904A154F8047C31443744D2
:102E000044F80C1C44F8047CD44580F0B8804FF0A2
:102E10000009BCF1000F83F8009040F0B380B44685
:102E2000B2E016F0600400F09280402C4FF0FF37C3
:102E300040F60F7602D0202C40F07380DBF8B80209
:102E400049468268584690476CE116F060004FF0A2
:102E5000FF3718BF40284FD19BF89C0240F60F76F1
:102E6000013802285DD811F0FE0F00F0AA8058E06A
:102E700006F080015846FFF723FA4FF0FF374FE185
:102E80000846FDF79BFB60044FF0FF3708D539E19A
:102E90000846FDF793FB60044FF0FF3740F13281A5
:102EA0002878D8F800104AF2800303F5005331F86F
:102EB000202002EA09021A4321F8202022E18B5A3D
:102EC000CE4C23F4F8438B528B5A234308E0DC06A4
:102ED0004FEA531408BF07EB5314C84B43EA84234B
:102EE0008B5243F60F72018811404AF2800202F5BC
:102EF00080525140018015E12028ADD0FDF7F3FE4E
:102F00000EE1092B40F60F760BD8DFE813F00D0029
:102F10000F010A0019010A001F014B010A006A0192
:102F20007901FDF7E0FEFDE09BF89C0201380228E4
:102F3000F7D8022AF5D1DBF8A402594600284FF051
:102F4000030008BF012041F80C0F5846AFE1002BE9
:102F50004FF0FF3740F60F7672D0012B00F08A80D9
:102F6000032BDED19BF89C32032B00F06D81022BEA
:102F700000F08880D5E7A9EB0C041C603CE0ACEBCA
:102F80000A09D446C4F8009092F829304FF0FF3770
:102F9000012B25D0002B40F0A0804EF00203B0F8AA
:102FA0005040BCF1000F034403F5806377D0BCF1BF
:102FB0003E0F00F284800CF0010606EB5C06B602C0
:102FC0008AE0DBF8B80249468268584690470028F4
:102FD00040F0A880BBF8B002002800F01E82A1E0FB
:102FE0004EF00203B0F8504003442344A3F800C459
:102FF00073E00023B446237092F829304FF0FF3776
:10300000012B14D0002B78D14EF00603B0F85040BD
:10301000BCF1000F034403F5806348D0BCF13E0FC0
:103020005DD80CF0010606EB5C06B60264E04EF0DB
:103030000603B0F8504003442344A3F800C45CE006
:103040009BF89C02032800F00E8102287FF469AFF0
:1030500041F0800080287FF464AF01F07F00090612
:1030600000EB80000BEB800000F1140258BF00F56C
:10307000AA7218E19BF89C22032A00F01A81022A06
:103080007FF44FAF41F0800080283FF44AAF5846AC
:10309000FFF716F958468021FFF712F942E0E65A89
:1030A00026F4F846E652E65A46F4004614E0E65A9C
:1030B00026F4F846E652E65A46F400461CE05FEA7B
:1030C000CC664FEA5C1608BF07EB5C164FF400476E
:1030D00047EA86264FF0FF37E652128E0EE05FEA8F
:1030E000CC664FEA5C1608BF07EB5C164FF400474E
:1030F00047EA86264FF0FF37E652528E1FFA8CF3CE
:1031000000F07BFA2878D8F8001040F63F7331F8C9
:1031100020201A4048F2C003103B5A4021F82020DA
:1031200040F60F76D8F80000FFF74BBC9BF89C12D6
:10313000013902293FF6F5AE0128F3D1002002E063
:103140000128EFD10120CBF8A40266E145EA020193
:1031500009047FF4E6AE7F283FF6E3AE9BF89C02BD
:1031600003283FF4DEAEDBF8C4028BF89EA2D0F851
:10317000A81201290ED0012180F824A0BAF1000F75
:10318000C0F8A81203D101688022A1F84C200021C8
:10319000C0F8A812FDF7A4FDBAF1000F00F01381EA
:1031A000022011E10020ADF80200601E0E283FF65B
:1031B000B8AEDFE810F01000BC00C4000F000F0034
:1031C000D100DD000F000F000F000F000F000F00F7
:1031D0000F00EB00A5E6DBF8B412DBF810000A687C
:1031E000DCE0012A7FF49DAE9BF89C02411E02297F
:1031F0006AD25946002041F8080F6AE00080FFFFBC
:10320000DFF8C003BAF1020F80F800A0BFF489AE66
:103210009BF89C0203285FD002287ED1BAF1000FF0
:1032200000F0FB800120CBF80400FDF75FFD3FF4C8
:1032300078AE026858465146904700287FF471AE38
:10324000FDF74EFD0320BFE0002840F0E68041F08E
:103250008000802800F0E180002A40F0DE8058469F
:10326000FFF72EF8D9E001F00F0211F0800002EB19
:1032700082020BEB820214BF928CB2F86421002A06
:103280003FF44FAE01F07F02002841F0800102EBD5
:1032900082030BEB830404F1140208BF04F5AA7245
:1032A000802940F08080002010605846114602229C
:1032B000B0E000287FF436AF480602D05846FEF74B
:1032C000C3FDFDF70DFDB9E503287FF42AAE0BF130
:1032D0000401584601229DE0BAF1000F00F077800A
:1032E000DBF80400012800F09880DBF8B812002910
:1032F00000F096804A68C1B258469047B1480178BC
:10330000FDF7F4FCCBF8041000F08C8002685846FE
:103310009047002840F086807FE0FDF7E4FCFDF751
:10332000E5FC3FF4FFAE4268A64801788AE5DBF889
:103330001010DBF8B802002957D0C16A56E0BAF184
:10334000050F3FF6EEADDFE80AF003797D81858950
:10335000DBF8B40242681CE0DBF8100000287FF4C0
:10336000E0ADDBF8B802416B0DF10200884718E0D0
:10337000DBF8100000287FF4D4ADDBF8B802016B55
:103380000DF1020088470146072034E0DBF8B40263
:10339000C269002A3FF4C5ADDBF810000DF102014F
:1033A0009047014628E0DBF8C412002801EBC30176
:1033B00001F12A0308BF01F5B573187800283FF41E
:1033C00072AF012070E701208BF89C02AAE6002072
:1033D000CBF8040002208BF89C02FDF787FC1CD080
:1033E000426858465146904717E0816A0DF1020045
:1033F0008847014602204870BBF8B0226AB1BDF888
:10340000020000283FF48DAD904238BF0246584676
:10341000ADF80220FEF77CFC84E6FDF761FC81E656
:10342000CBF804A0FDF75FFCFDF760FC3FF4B8AEFD
:1034300042689BF8041058469047B1E6DBF8B402A6
:103440008268A6E7DBF8B402C268A2E7DBF8B40240
:1034500002699EE7DBF8B40242699AE7DBF8B4023E
:10346000826996E7EFF3108072B6FEE788F8246071
:10347000C8F8A862D8F80000A0F84C90B0F8441042
:10348000490405D5B0F8441021F48041A0F8441057
:10349000B0F84410890405D5B0F8441021F4005167
:1034A000A0F84410B0F84410C90431D5B0F8401069
:1034B00021F00401A0F84010B0F8401021F00801FC
:1034C000A0F84010D8F8E402012805D10020C8F87F
:1034D000E4020020FDF74EF8D8F8180030B13A4861
:1034E000016821F006010160FEF762FAD8F8F402E3
:1034F00090F89C12042904BF90F89D1280F89C1249
:10350000D8F80000B0F8441021F48051A0F844101D
:10351000B0F8441009050DD5FDF7C5FBB0F844100F
:1035200021F40061A0F84410FDF7B6FBFDF7D4F8D4
:10353000D8F80000B0F8441009061CD5B0F84410C3
:1035400021F08001A0F84410D8F8E41211B1FDF781
:10355000C3F810E0FDF7A0FBFDF7A5FB0121C8F8BB
:10356000E4123C21B0F8540001EA9000C8F8E802E7
:103570000120FCF7FFFFD8F80010B1F844008005E7
:1035800012D5B1F8440020F40070A1F84400D8F836
:10359000F40290F89C22032A06D1D0F8B822D2690E
:1035A00012B19047D8F80010B1F84400C00505D515
:1035B000B1F8440020F48070A1F8440000F006B88F
:1035C00074060020A001002010ED00E018BCBDE84A
:1035D000E08F10B5104400F58062481C590831B1E5
:1035E00032F8024B013920F8014C0230F7E7D907D5
:1035F0001CBF118800F8011C10BD10445A1C00F5B6
:10360000806052082AB131F8023B013A20F8023BAF
:10361000F8E77047FEE7000086B04C4A4FF6FF011E
:103620004FF00008506892460840494908435060EE
:103630000020FCF751FF474E88B9B06B40F0010005
:10364000B063B06B00F0010001900198306B40F066
:1036500080503063306B00F0805001900198FEF78D
:10366000A7F9CDE904883C4F4FF002090125706AA3
:1036700040F080007062706A00F080000090009856
:10368000706A40F001007062706A00F00100009002
:103690000098C7F818900395CDE9015801AC204671
:1036A000FCF762FE2046CDE90358CDE90195FCF711
:1036B0005BFEFDF7B1F9294C2068013001280BD8D9
:1036C00060680130012807D8A0680130012803D8BC
:1036D000E0680130022808D33868C0071FD1C8202D
:1036E000FCF734FE3868C00719D1FDF795F91C4C7A
:1036F00002252078FF2805D0FA2805D00028F8D127
:10370000BD60F6E7BD61F4E7BD612078FCF71EFE01
:10371000BD60207800EB4000FCF718FEE9E7606828
:103720004FF0FF3100223161716132617261B1612C
:10373000B2613160326071607260B160B260216804
:1037400081F30888CAF800408047FEE708ED00E0F2
:103750000003FA052810024010000048004000084D
:103760000800002002E008C8121F08C1002AFAD190
:1037700070477047002001E001C1121F002AFBD1F1
:103780007047000010B5002821D0114B0022001F07
:10379000196803E0814203D80A4649680029F9D133
:1037A00052B11368841A9C4204D100681844106016
:1037B000104602E0506000E0186039B102680B1A50
:1037C000934203D10B681A4402604968416010BDFE
:1037D00000000020F0B50B30154D20F0070100244B
:1037E000144A0FE003688B420BD38B4205D95E1A53
:1037F00043184768C3E9006700E04368136002C0EC
:1038000004E0021D10680028ECD12046002802D1F7
:10381000286808B10020F0BD064A07481060074A32
:10382000121A22F00702C0E9002401202860D7E71D
:1038300004000020000000207409002070290020EE
:10384000EBFE904D53444F53352E300002017C1156
:103850000200000000F800003F00FF003F000000F1
:10386000C1C0030042070000000000000200000089
:103870000100060000000000000000000000000041
:10388000800029B04990024E4F204E414D452020E6
:1038900020204641543332202020008002021F00A5
:1038A000000053544D202020202050726F64756317
:1038B00074202020202020202020302E30310000B5
:1038C00000000000030000000100000003000000F1
:1038D000F038000800000020A00100004C020008A1
:1038E000C0390008A0010020D02B00007437000868
:1038F0008142FA23064013C643421043093D120297
:103900001A80021B082001322203120812622609C3
:10391000111B13551D1B087D041A89041AA9041ACA
:10392000C9041A3D041A61041AFD0413B9141B08D2
:10393000A5041ABD041AC1041AC50413DD161B0818
:10394000B508139A38021008F20113E5231B088703
:10395000048B37242C1A73101A7D04C11ACD101A47
:10396000C1041AD9041AB50414050F0C3601071046
:1039700002022C120101071640830449571D02015F
:10398000020365100804030904090220200801014C
:1039900004C0320904200B02080650050705810205
:1039A000402C07050107091420113A022019071BB2
:1039B0000A0605195829B40B1C09074C031A1A03E7
:040000050800018D61
:00000001FF
